S021000077617465725F6C6576656C5F696E64696361746F725F365F312E7372656328
S11300000C9479020C94B9060C9496020C945C142A
S11300100C9496020C9496020C9496020C949602FC
S11300200C9496020C947E0B0C9496020C949602FB
S11300300C9496020C9496020C9496020C949602DC
S11300400C9470130C9496020C944D0C0C94960220
S11300500C9496020C9449060C94AA080C949602EB
S11300600C9496020C949602AE2000B0C800104086
S1130070813FA1A6A83FA4D300D5F0D922DA12DB90
S1130080208D14AF0000000000000000002F0000CD
S113009000000700070000147F147F1400242A7F47
S11300A02A120062640813230036495522500000C6
S11300B00503000000001C224100000041221C0036
S11300C00014083E08140008083E0808000000A0B8
S11300D060000008080808080000606000000020B4
S11300E010080402003E5149453E0000427F400092
S11300F0004261514946002141454B310018141218
S11301007F10002745454539003C4A4949300001E4
S11301107109050300364949493600064949291E33
S11301200000363600000000563600000008142295
S11301304100001414141414000041221408000295
S11301400151090600324959513E007C1211127CBA
S1130150007F49494936003E41414122007F4141E7
S1130160221C007F49494941007F09090901003ED9
S11301704149497A007F0808087F0000417F410017
S1130180002040413F01007F08142241007F40408D
S11301904040007F020C027F007F0408107F003E75
S11301A04141413E007F09090906003E4151215E5B
S11301B0007F091929460046494949310001017F58
S11301C00101003F4040403F001F2040201F003FEE
S11301D04038403F006314081463000708700807A0
S11301E000615149454300007F41410000552A55B3
S11301F02A55000041417F0000040201020400402E
S1130200404040400000010204000020545454784F
S1130210007F48444438003844444420003844446F
S1130220487F00385454541800087E09010200180D
S1130230A4A4A47C007F080404780000447D40004A
S1130240004080847D00007F102844000000417F2E
S11302504000007C04180478007C0804047800380A
S11302604444443800FC242424180018242418FC92
S1130270007C0804040800485454542000043F44FB
S11302804020003C4040207C001C2040201C003CBE
S11302904030403C004428102844001CA0A0A07C0E
S11302A0004464544C4414141414141423002600FD
S11302B02900240027002A00250028002B00080319
S11302C0F802E802D802C8025A03E60444032E03E3
S11302D0E604E604E6041803B203E6049C0386037A
S11302E0E604E604E60470032004E6040A04F403C6
S11302F0DE03E604E604C8038E04E604780462041C
S11303004C04E604E6043604D004E604BA04E60425
S1130310E604E604E604A404202020202020202073
S11303204241434B20202020202020202000322E38
S113033046756C6C2054616E6B20436E74202020D3
S113034020202000312E4F7072204872202020205F
S113035020202020202020202000202020202020B9
S113036020204461696720202020202020202000B4
S113037020202020202020204241434B20202020E8
S1130380202020202000322E546F70206C6576656A
S11303906C2020202020202020202000312E546199
S11303A06E6B2073697A6520202020202020202075
S11303B0200020202020202020204D6F746F7220E8
S11303C02020202020202000202020202020202049
S11303D04241434B20202020202020202000332E87
S11303E053656D69202020202020202020202020FB
S11303F020202000322E4175746F202020202020E0
S113040020202020202020202000312E4D616E75D8
S1130410616C20202020202020202020202020006B
S113042020202020202020204D6F646520202020C3
S11304302020202020002020202020202020424195
S1130440434B20202020202020202000332E4469EC
S11304506167202020202020202020202020202010
S11304602000322E53657474696E67732020202037
S11304702020202020202000312E4D6F6465202074
S11304802020202020202020202020202000202088
S11304902020202020204D454E55202020202020A3
S11304A02020200020202020202020204D454E55B3
S11304B02020202020202020200054616E6B204C1E
S11304C06576656C203A2020202020202020200002
S11304D02020202020202020574C43202020202092
S11304E02020202020002020202020202020202028
S11304F0000011241FBECFEFD8E0DEBFCDBF13E054
S1130500A0E0B1E0E2E7F0E402C005900D92AC3760
S1130510B107D9F726E0ACE7B3E001C01D92A537D7
S1130520B207E1F70E94B7130C9437200C94000033
S11305309B013327E0917C03F0E0E217F30768F4B2
S113054080937D0360937C036627707F70937F03A1
S113055060937E03409380030895232B59F4662708
S1130560707F80917E0390917F036817790711F45F
S113057010927C03089560917C03662331F12091ED
S113058081033091820388EE93E070E00E94F31FB0
S11305902617370798F09091830381E08927809389
S11305A083034091800360917D030E94770981E079
S11305B090E0909382038093810308952F5F3F4FCF
S11305C030938203209381030895409180036091C6
S11305D07D0380E00E94770908954F925F926F92A5
S11305E07F928F929F92AF92BF92CF92DF92EF92BF
S11305F0FF920F931F93CF93DF931F92CDB7DEB774
S11306007C0186E289830F2EFCE0AF2EF1E0BF2E41
S1130610F02D0F2EFBE0CF2EF1E0DF2EF02D08E7BA
S113062011E0512C752C992493944AC0C901D90125
S113063012974C91413011F5663201F1AF0160809F
S1130640D90114970D90BC91A02DA60DB11DAC91AC
S11306506A130FC0D9014C90641410F4639460823F
S1130660DA014C91DC018C91481308C0872C792D58
S113067005C0D9018C91681608F41082275F3F4F9A
S113068039962017310791F670938503809286037B
S11306907130B1F48981863209F1E82DF0E0E9572F
S11306A0FC4F8083982D9F5F909386039C3111F0BB
S11306B08A3031F450928503509286039092A603B7
S11306C0CE010196F701099581110CC069817091E1
S11306D08503809086039501F601A8CFFCE18F1273
S11306E0EFCFE8CF80E090E00F90DF91CF911F91A2
S11306F00F91FF90EF90DF90CF90BF90AF909F90BD
S11307008F907F906F905F904F900895CF93DF9379
S1130710ECE0F1E088E791E0EF012497A881B9814A
S1130720ED0109900020E9F72197CA1BDB0BC08378
S11307303996E817F90781F781E080936401809383
S1130740130180936D01DF91CF9108951F93CF938F
S1130750DF9300D000D0CDB7DEB78091AA038983A0
S11307601A82CE0101960E94DB1F8FEB92E00E9459
S1130770DB1F2091AB033091AC03E22F49E2249FAD
S1130780412D112442954F701CE91403C00111241A
S1130790820F911D6AE070E00E94F31F842F805D38
S11307A08983862F805D8A83E05D419FE00D11245B
S11307B0660F962F990F990F690FE61BEB831C8226
S11307C02A3031051CF4E9831A8206C02436310527
S11307D01CF48983EA831B82CE0101960E94DB1FED
S11307E081EC92E00E94DB1F0F900F900F900F900E
S11307F0DF91CF911F9108959091650180916601D9
S1130800981304C01092650180E0089582E0089571
S1130810813029F41092A9031092A8030BC08230EE
S113082049F48091A8039091A90301969093A90398
S11308308093A8038091A8039091A90308951F931E
S1130840CF93DF93182F8091A703811126C0C12F66
S1130850D0E0FE01EE0FFF1FEE0FFF1FEE0FFF1F94
S1130860EC0FFD1FEA5FFE4F808191810E94DB1F28
S1130870173011F40E94A6039E01220F331F220F8A
S1130880331F220F331FC20FD31FCA5FDE4F81E015
S11308908C838093A7030E940804C12FD0E0FE013B
S11308A0EE0FFF1FEE0FFF1FEE0FFF1FEC0FFD1FDC
S11308B0EA5FFE4F95818681981313C0163069F064
S11308C0FE01EE0FFF1FEE0FFF1FEE0FFF1FEC0FD9
S11308D0FD1FEA5FFE4F148215821092A70310E0F9
S11308E001C011E082E00E940804FE01EE0FFF1F28
S11308F0EE0FFF1FEE0FFF1FEC0FFD1FEA5FFE4F11
S1130900278130852817390760F4148215821092E4
S1130910A9031092A8031092A70381E00E9408047F
S113092012E0812FDF91CF911F9108958091AD0343
S1130930811106C084E08093AE0381E08093AD030F
S11309408091AE030E941F0481110BC08091AE03FD
S11309508F5F8093AE03863089F51092AD0380E0FB
S11309600895823069F58091AF03853000F12091BC
S1130970AE03223031F41092AF031092AD0382E043
S113098017C0E22FF0E0CF01880F991F880F991F3D
S1130990880F991FE80FF91FEA5FFE4F1482158232
S11309A021502093AE031092AF0381E001C081E097
S11309B09091AF039F5F9093AF03089581E00895F2
S11309C081E00895FC01E60FF11D2081222389F0C6
S11309D0241306C002C0241303C0862F8F5F08951A
S11309E06F5FFC01E60FF11D20812111F4CF80E03F
S11309F0089580E00895421770F4FB0130E0DC01B3
S1130A00A40FB11D5C9151933F5F4F5F421720F4D7
S1130A103430A9F701C030E0FC01E40FF11D8081FE
S1130A20FB01E30FF11D80833093C203089580938B
S1130A30AB031092AC0387E00E941F0408959091C9
S1130A40140180911501981304C01092140180E0E0
S1130A50089582E008950F931F93CF93DF938091BD
S1130A60A603813009F04FC0909141018091420169
S1130A70981347C081E080934001109241014CE2F9
S1130A8060E087E893E00E94E204C82F4CE2682FFC
S1130A9087E893E00E94E204082F282F4C2F63EB91
S1130AA073E087E893E00E94FB04C3EBD3E0888102
S1130AB08093AA034AE3602F87E893E00E94E2044C
S1130AC0182F282F402FBE0187E893E00E94FB04D3
S1130AD0C881C093C5038091B4038093C603109367
S1130AE0C403C10FC093C3032C2F412F63EB73E0E6
S1130AF087E893E00E94FB04EC2FF0E0EF54FC4FF6
S1130B0010821092A60390916E0180916F01981348
S1130B1003C081E08093F604DF91CF911F910F9180
S1130B2008958091B003811108C086E08093B103D9
S1130B3081E08093B0038093B20380911D028823E7
S1130B4039F086E00E941F0480931D0281E008951D
S1130B508091A603813059F41092B0031092B2032D
S1130B600E942B0581E080931D0280E0089581E0BE
S1130B7008958091740108956091720170917301D8
S1130B8083EB93E00E942E20282F392F232B21F46E
S1130B9081E08093740102C0109274016091750128
S1130BA07091760183EB93E00E942E20282F392F39
S1130BB0232B19F010927701089581E08093770137
S1130BC0089521E22093A5032091CF03E22FF0E0C2
S1130BD0E957FC4F3781FC013083273121F410920F
S1130BE0CF0381E008952F5F2093CF0380E0089521
S1130BF0FC0120812093A30381818093A4030895A1
S1130C001092A3031092A40382E480938E0384E4DD
S1130C1080938F0380E38093900381E38093910317
S1130C2008950895EAE7F0E0808187608083ACE767
S1130C30B0E08C91806C8C938C9180628C938081D9
S1130C40886080830895EAE7F0E09081906890835B
S1130C50ACE7B0E09C91987F9C939C91892B8C93FA
S1130C60808180648083089580917A0080740895DF
S1130C70809178002091790082958695869583707D
S1130C8030E0220F331F220F331F282B822F932F84
S1130C9008951F920F920FB60F9211248F93809193
S1130CA07800809179008F910F900FBE0F901F9064
S1130CB01895FC019281892F8F5F2481821708F097
S1130CC080E02381281741F0A081B181A90FB11DD3
S1130CD06C93828380E0089582E00895FC0183810F
S1130CE0982F9F5F2281821771F02481921708F058
S1130CF090E0A081B181A80FB11D8C91DB018C9390
S1130D00938380E0089581E00895FC0181E02381CC
S1130D109281291380E00895FC01938182818917CF
S1130D2020F42481820F891B0895891B089542E0D1
S1130D3067E080E00E94770900C042E067E081E05C
S1130D400E94770900C000C0000042E067E080E034
S1130D500E9477090895813031F4E9E6F0E080815A
S1130D60816080830895E9E6F0E08081816080837A
S1130D7008951F920F920FB60F9211242F933F9351
S1130D804F935F936F937F938F939F93AF93BF938F
S1130D90EF93FF938091D00381110AC00E94520BFC
S1130DA080E090E00E94AB0681E08093D0030BC00A
S1130DB00E946D0B81E090E00E94AB061092D0037C
S1130DC081E08093D103FF91EF91BF91AF919F9107
S1130DD08F917F916F915F914F913F912F910F90E0
S1130DE00FBE0F901F90189581E090E00E94AB0613
S1130DF0E89A1092D00381E08093D1030895CF93B1
S1130E00DF93EC018091D203833060F081E00E9493
S1130E10AB060E9497061092D1031092D003109251
S1130E20D2033BC09091D103913099F520911305E1
S1130E3080911105909112053FEF239F800D911D24
S1130E40112490931205809311052091110530917E
S1130E50120522953295307F3227207F3227AFE961
S1130E60B6E40E940720929582958F7089279F701F
S1130E7089279093120580931105C0911105D09193
S1130E801205D0681092D2031092D1030E949706E3
S1130E9004C0D0618F5F8093D2038C2F9D2FDF918C
S1130EA0CF910895E8EBF0E08CE08083808190E0BE
S1130EB00E941C0C0895ECEBF0E080818823ECF791
S1130EC081E00895ECEBF0E0108294EA9083908145
S1130ED09923ECF79091B900987F9830A1F480930E
S1130EE0BB0084E88093BC00ECEBF0E080818823B5
S1130EF0ECF79091B900987F983139F081E0903403
S1130F0029F480E0089581E0089580E008958093B5
S1130F10BB0084E88093BC00ECEBF0E08081882384
S1130F20ECF79091B900987F81E0983209F480E061
S1130F30089584E98093BC000895EF92FF920F9383
S1130F401F93CF93DF93F82EE62E8A0141155105A6
S1130F50D1F0C0E0D0E08F2D0E946207811115C04E
S1130F608E2D0E948707FE01E859FF4F84910E944D
S1130F70870781110CC00E9499072196C017D107D9
S1130F8051F780E005C080E003C081E001C081E04A
S1130F90DF91CF911F910F91FF90EF900895EF9201
S1130FA0FF920F931F93CF93DF93F82EE62E211514
S1130FB03105C9F0C42FD52F89010C0F1D1F8F2DAA
S1130FC00E946207811111C08E2D0E9487078991AA
S1130FD00E94870781110BC00E949907C017D1078F
S1130FE071F780E005C080E003C081E001C081E0CA
S1130FF0DF91CF911F910F91FF90EF9008954CE1F5
S113100050E060E088E70E949D07089525E030E005
S113101043ED53E060E488E70E94CF0708950F93FF
S11310201F93CF93DF93082F88E70E9462078111F3
S113103020C080E40E9487070052802F90E08C013A
S1131040000F111F800F911F8C01000F111FC0E0B2
S1131050D0E0FE01E00FF11FEC57FF4F84910E9496
S11310608707811106C02196C630D10591F70E94E9
S11310709907DF91CF911F910F910895CF93DF933B
S1131080C82FD62F88E70E946207811112C00E94E0
S113109087078D2F80550E9487078C2F8F700E94A1
S11310A087078C2F82958F7080610E9487070E942A
S11310B09907DF91CF910895CF93DF93EC01862FA9
S11310C0642F0E943E088881882331F021960E9473
S11310D00F0889918111FBCFDF91CF910895CF93B0
S11310E0DF93D42F0E943E0888E70E946207811193
S11310F019C080E40E948707D11102C0CD2F0AC015
S1131100C0E08FEF0E948707CF5FCD13FACFDF37A0
S1131110A8F306C081E00E948707CF5FCF37D0F3E2
S11311200E949907DF91CF910895805290E0FC01CD
S1131130EE0FFF1F8E0F9F1FFC01EE0FFF1FE60F28
S1131140F11DEC57FF4F84910895FB9882E0809342
S11311501E0208951F920F920FB60F9211242F931F
S11311603F934F935F936F937F938F939F93AF932B
S1131170BF93EF93FF9380911905811127C080914C
S11311801C05882301F181E080931E0280911705DC
S11311909091180592BD81BD019690931805809396
S11311A0170580911C05815080931C0580911C05B6
S11311B0E0911505F0911605E80FF11D808180BDC1
S11311C0FA9AF99A35C00E94A50832C020911705F1
S11311D03091180580911A0590911B058217930789
S11311E0F8F081E080931E02809117059091180514
S11311F092BD81BD01969093180580931705F89AC6
S11312009091140580B5E0911505F0911605E90F4C
S1131210F11D80838091140581508093140508C0CA
S11312200E94A5081092140510921B0510921A052D
S1131230FF91EF91BF91AF919F918F917F916F91AA
S11312405F914F913F912F910F900FBE0F901F9080
S1131250189580931C0570E070931805609317052A
S113126040931905309316052093150520911C050C
S113127080911705909118050197820F911D909305
S11312801B0580931A0580911C05815080931405D9
S11312900895FB9A10921E02089580911E020895EB
S11312A0E42FF0E0EE0FFF1FEE54FD4F2591349133
S11312B0E22FF32F813069F4208181E090E0AC01CA
S11312C002C0440F551F6A95E2F7BA01622B60838E
S11312D00895208181E090E0AC0102C0440F551FC5
S11312E06A95E2F7BA016095622360830895E42F5A
S11312F0F0E0EE0FFF1FE854FD4F25913491E22FEB
S1131300F32F813069F4208181E090E0AC0102C0C8
S1131310440F551F6A95E2F7BA01622B6083089562
S1131320208181E090E0AC0102C0440F551F6A9512
S1131330E2F7BA016095622360830895E42FF0E038
S1131340EE0FFF1FE455FD4F25913491E22FF32F4B
S1131350408121E030E0F90102C0EE0FFF1F6A95E1
S1131360E2F7BF016423FC01608308959091DE03DA
S1131370913081F028F09230D1F0933089F521C07A
S1131380ECEBF0E0108284EA808381E08093DE035A
S113139082E008950E945B07813021F58091B900B5
S11313A0887F883009F582E08093DE030895809376
S11313B0BB0084E88093BC0083E08093DE0382E07A
S11313C008950E945B07882389F08091B900887F83
S11313D0883111F0803461F41092DE0381E00895C5
S11313E082E0089582E0089580E0089582E00895FF
S11313F080E008959091DF03992319F09130E1F48E
S11314000AC08093BB0084E88093BC0081E0809391
S1131410DF0382E008950E945B07882379F08091BE
S1131420B900887F883221F41092DF0381E00895A7
S11314301092DF0380E0089582E0089582E0089529
S11314409091DC03913079F020F0923009F045C09E
S11314503EC088E70E94B609813009F040C08093FD
S1131460DC0382E008959091DD03913079F028F057
S11314709230B1F09330A9F51DC080E00E94FA09C2
S1131480813089F58093DD0382E00895862F8055AD
S11314900E94FA09813049F582E08093DD030895C2
S11314A08F700E94FA09813011F583E08093DD0387
S11314B082E0089582958F7080610E94FA098130DC
S11314C0C1F41092DD0382E08093DC0308950E944E
S11314D099071092DC0381E0089582E0089582E088
S11314E0089582E0089582E0089582E0089582E0FC
S11314F0089582E008959091E003913079F028F006
S11315009230D9F09330A9F52EC088E70E94B6092D
S1131510813089F58093E00382E0089580E40E949D
S1131520FA09813021F482E08093E0030895811167
S113153024C01092E00382E008956091E1030E94C8
S113154095080E94FA098130D1F48091E1038F5FFC
S11315508093E1038630A9F483E08093E003109242
S1131560E10382E008950E9499071092E00381E06C
S1131570089582E0089582E0089582E0089582E06B
S1131580089582E008958091D803813071F018F0B5
S1131590823049F520C089ED93E00E947A128111CE
S11315A022C081E08093D80308958091DA038111E9
S11315B004C09091DB03992351F06091DB030E94F6
S11315C0200A813081F482E08093D803089582E078
S11315D08093D80308958091D9030E947B0A8130B7
S11315E011F41092D8030895CF93DF93CDB7DEB7EB
S11315F069970FB6F894DEBF0FBECDBF2091E2030A
S1131600283048F5E091E303F0E0EE0FFF1FE254C9
S1131610FD4F85919491E22FF0E0EE0FFF1FE80F4C
S1131620F91F85919491682F792FCE0101960E941C
S113163027204091E40360911F02CE0101960E948D
S113164057128091E4038F5F8093E4038091E20357
S11316508F5F8093E2038091E203883011F0803140
S113166039F480911F02845C80931F021092E4037A
S11316708091E5038F5F8093E50380E069960FB660
S1131680F894DEBF0FBECDBFDF91CF910895809354
S1131690E3031092E20381E080931F021092E403BB
S11316A080E008951092130510921005E1EBF0E02C
S11316B0808186608083E0E7F0E0808181608083C0
S11316C01092B20010921205109211050895109212
S11316D0B10081E0809310050895CF93DF93C2EBAE
S11316E0D0E0888190E090931205809311050E94C8
S11316F0670B18828881DF91CF9108951F920F9212
S11317000FB60F9211248F93809113058F5F8093EE
S113171013058F910F900FBE0F901F901895909303
S1131720FF048093FE04089520E04DE95BE06CE93A
S11317307FE088EC0E94241308950F931F93CF93A6
S1131740DF931F92CDB7DEB78C01BE016F5F7F4F71
S113175080E292E00E946E06811105C08981F80141
S1131760808380E001C081E00F90DF91CF911F91D1
S11317700F9108951092000588E98093C1008EE0CE
S11317808093C2001092C50088E08093C400109238
S1131790FF041092FE046FE87BE080E00E94831453
S11317A0089520E030E00000000000000000000088
S11317B00000000000000000000000000000000025
S11317C000002F5F3F4F8217930768F70895EF9249
S11317D0FF920F931F93CF93DF93FC012081222369
S11317E0C1F08C010F5F1F4F0F2EF6ECEF2EF12C82
S11317F0F02DC0ECD0E0F7012083888186FFFDCF77
S113180088EE93E00E94D10BF80121918F01211100
S1131810F2CFDF91CF911F910F91FF90EF90089538
S11318208093C600E0ECF0E0808186FFFDCF88EE77
S113183093E00E94D10B08950F931F93CF93DF93EE
S1131840C82F19E2819F112D112412951F700CE9E4
S1131850010390011124C9018C0F911D6AE070E00D
S11318600E94F31FD62F812F805D0E94100C8D2FB4
S1131870805D0E94100CC05D8C2F109F800D112480
S1131880DD0F9D2F990F990FD90F8D1B0E94100CFE
S1131890DF91CF911F910F9108951F920F920FB670
S11318A00F9211242F933F934F935F936F937F93E2
S11318B08F939F93AF93BF93EF93FF93CF93DF9354
S11318C01F92CDB7DEB78091C6008093FC0460916F
S11318D0FC0480E292E00E9459068091FC04843664
S11318E011F410920005E0910005F0E08091FC04F1
S11318F0E950FB4F8083809100058F5F8093000542
S113190080910005853031F58091F704843601F526
S11319108091F8048536E1F48091F9048236C1F4AB
S11319208091FA048537A1F48091FB04873681F411
S113193003C089810E94100CBE016F5F7F4F80E25B
S113194092E00E946E068823A1F381E08093E6036F
S1131950109200056091FE047091FF0461157105F9
S113196059F08091E603811107C020E04DE95BE066
S113197088EC0E94241320C08091E603823081F415
S113198064E180E292E00E948C068431A8F020E0B9
S11319904DE95BE064E97BE088EC0E9424130CC011
S11319A0813051F482E08093E603BE016F5F7F4F84
S11319B080E292E00E946E060F90DF91CF91FF913A
S11319C0EF91BF91AF919F918F917F916F915F91B3
S11319D04F913F912F910F900FBE0F901F9018952C
S11319E08091C00085FB882780F991E089270895BC
S11319F08093C6000895CF93DF938091FC038111F7
S1131A0037C02091FD03822F90E0FC01EE0FFF1FF1
S1131A10E80FF91FEB5DFD4F3281313029F5FC01F0
S1131A20EE0FFF1FE80FF91FEB5DFD4F3181311100
S1131A301BC0FC01EE0FFF1F8E0F9F1FFC01EB5D0F
S1131A40FD4F80810E9423068091FD0390E0FC01FC
S1131A50EE0FFF1F8E0F9F1FFC01EB5DFD4F81E01A
S1131A6081838093FC033AC02F5F2093FD0336C02B
S1131A700E943406811132C08091FD0390E0FC0184
S1131A80EE0FFF1FE80FF91FEB5DFD4F21812130A1
S1131A9029F5FC01EE0FFF1F8E0F9F1FFC01EB5D6C
S1131AA0FD4FC081D0E00E943806CC0FDD1FC95124
S1131AB0DC4F998388832091FD03822F90E0FC0101
S1131AC0EE0FFF1F8E0F9F1FFC01EB5DFD4F82E0A9
S1131AD081832F5F2093FD031092FC038091FD030B
S1131AE0863011F41092FD0380E090E0DF91CF91F5
S1131AF00895CF93DF9300D0CDB7DEB79A8389835F
S1131B008A8186958695869587708093FB033091AC
S1131B10FB0380912502381741F0E8E2F2E081E00E
S1131B2090E02081321313C002C080E090E0DC0119
S1131B30AA0FBB1FA80FB91FAB5DBD4F11962C9107
S1131B408093FE03223099F120E030E048C00196F2
S1131B5033968630910529F745C01092270211C0AB
S1131B60822F90E0FC01EE0FFF1F8E0F9F1FFC01E0
S1131B70EB5DFD4F8281882321F081E08093000496
S1131B8039C080910004811135C0822F90E03091DA
S1131B90FB03FC01EE0FFF1FE80FF91FEB5DFD4F88
S1131BA0308381E082832F5F2093FF0323C0E32FE0
S1131BB0F0E0EE0FFF1FE951FC4F208131813068C6
S1131BC099274091FB03FC01EE0FFF1F8E0F9F1F0F
S1131BD0FC01EB5DFD4F4083118281E08283822F03
S1131BE0932F0BC01092FE032091FF03263009F0BF
S1131BF0B7CFB3CF20E030E0F2CF0F900F90DF915A
S1131C00CF910895CF93DF9300D0CDB7DEB780E0B6
S1131C1090E00E94FF069A8389838A81803821F0AC
S1131C20811105C08FEF8983898190E002C0898189
S1131C3091E00F900F90DF91CF91089580E090E0B4
S1131C400895CF93DF9300D01F92CDB7DEB740E065
S1131C5061E0CE0101960E949E0989819091010460
S1131C60891313C0909102049F5F909302048093A0
S1131C7001048093030493E09B83811134C042E008
S1131C8066E081E00E9477092EC0882329F142E0B2
S1131C9066E080E00E94770980910204853638F07E
S1131CA082E08B83809103048D5F8A8317C0833322
S1131CB038F082E08B83809103048E5F8A830EC0A8
S1131CC0863038F082E08B83809103048F5F8A83AF
S1131CD005C083E08B8302C083E08B8310920204EF
S1131CE08981809301048A819B810F900F900F90CA
S1131CF0DF91CF91089580E090E0089580E090E036
S1131D000E94C30A8FEF9FEF0895809104048F5FB0
S1131D10843018F48093040406C01092040480E014
S1131D2090E00E94F40A8FEF9FEF0895982F90534C
S1131D309A3030F4E82FF0E0E95EFD4F8081089599
S1131D40982F9154963030F4E82FF0E0E05FFD4F87
S1131D508081089580E00895DF92EF92FF920F93BF
S1131D601F93CF93DF937C018AE00E94A312D701D3
S1131D701C968C91882369F1D12CF701ED0DF11D8E
S1131D80B581DB2F80E0C82F84818E01082BD80118
S1131D90EC91E295EF70F0E0E95CFD4F80810E94E8
S1131DA0A312D801EC91EF70F0E0E95CFD4F808163
S1131DB00E94A31280E20E94A312D394D3942D2DE7
S1131DC030E0F701848590E0880F991F28173907C0
S1131DD0A4F280E090E0DF91CF911F910F91FF90EA
S1131DE0EF90DF900895DF92EF92FF920F931F938D
S1131DF0CF93DF938C01FC01F581DF2F80E0C82FA6
S1131E00F8018481C82B8AE00E94A312F80184851A
S1131E10882339F1D12C0F2EF2E8EF2EF5E0FF2EB6
S1131E20F02DE881E295EF70F0E0E95CFD4F8081F0
S1131E300E94A312E881EF70F0E0E95CFD4F80811D
S1131E400E94A31280E20E94A312F801ED0DF11D7D
S1131E5086818993F7011082D394F8018485D8167A
S1131E6000F320E030E041E855E061E070E084E315
S1131E7090E00E94241380E090E0DF91CF911F91C5
S1131E800F91FF90EF90DF900895EF92FF920F93E0
S1131E901F93CF93DF938C01FC01F580E12C8481A7
S1131EA0E82AE7018AE00E94A31245E063E08EEF8E
S1131EB092E00E945712F80186818823A1F1E881FB
S1131EC0E295EF70F0E0E95CFD4F80810E94A3127F
S1131ED0E881EF70F0E0E95CFD4F80810E94A3127D
S1131EE0E881E295EF70F0E0E95CFD4F40E060E0EE
S1131EF080810E947112E991EF70F0E0E95CFD4F7E
S1131F0040E060E080810E94711240E060E080E285
S1131F100E94711280E20E94A3129C2F9E19F80164
S1131F208681981760F280E090E0DF91CF911F9155
S1131F300F91FF90EF900895CF92DF92EF92FF926E
S1131F400F931F93CF93DF9300D01F92CDB7DEB7CB
S1131F508C0185E49FE09B838A83D12CF12CE12CB6
S1131F6034C089810E94100C29E02F1538F1D1105A
S1131F700EC089810E94960EEF2DF0E0EB5FFB4FBF
S1131F80A0E18A9FC00111248083D3941EC0B1E0D4
S1131F90DB120DC0CF2CD12C89810E94960EF60144
S1131FA0EB5FFB4F8F709081892B808304C0D394A7
S1131FB0E2E0DE120AC0F394DE2C07C0EF2DF0E05D
S1131FC0EB5FFB4F89818083F394CE010196F80186
S1131FD00995882331F2809105048B3A71F580913B
S1131FE0080481111AC01092810581E08093820552
S1131FF08A81809383058B81809384058091070473
S11320008093850580910604809386058091090458
S11320108093870580938D05A1C0813009F09EC00F
S11320201092820520E030E041E855E061E070E084
S113203084E390E00E94241391C08C3A99F583EFD5
S11320409EE09B838A831092810591E090938205A0
S1132050809383058B81809384058091070480930A
S113206085058091060480938605809108048093F9
S11320708705809109048093880580910A048093E0
S1132080890580910B0480938A0580910C048093C8
S11320908B0580910D0480938C0580910E048093B0
S11320A08D055CC08D3F99F58CEA9EE09B838A8305
S11320B01092810591E090938205809383058B8132
S11320C0809384058091070480938505809106049C
S11320D08093860580910904809387058091080484
S11320E08093880580910B048093890580910A046C
S11320F080938A0580910D0480938B0580910C0454
S113210080938C0580910E0480938D0527C08D3BB0
S113211029F506E014E0D8018C910E941C0C109261
S1132120810581E0809382058A81809383058B8178
S113213080938405D801EC91F0E0EE0FFF1FEE0FC1
S1132140FF1FE956FA4F8081809385058181809332
S1132150860583818093870580938D0589818132EB
S1132160F9F46091100470911104709396056093D2
S113217095056115710549F020E030E041E855E02E
S113218089EC90E00E94241315C020E030E041E87F
S113219055E061E070E084E390E00E9424130AC0FB
S11321A020E030E041E855E061E070E084E390E055
S11321B00E94241380E090E00F900F900F90DF9125
S11321C0CF911F910F91FF90EF90DF90CF900895E2
S11321D0E42FF0E0EE0FFF1FEE0FFF1FE956FA4F5A
S11321E0918380834283638308951092050581E07F
S11321F0809306058093070594E09093080595E085
S11322009093090580930A0596E090930B058093BB
S11322100C0597E090930D0580930E050895CF93D8
S1132220DF93EC010E944D0940915B0250915C02E6
S113223060915D0270915E024F5F5F4F6F4F7F4F01
S113224040935B0250935C0260935D0270935E0264
S1132250823009F040C080911104811118C0EE81D0
S1132260F0E02C813D814F81EE0FFF1FEB5FFA4FB1
S1132270608150E070E0818190E00E9429090E9411
S1132280490981E08093110421E030E025C08130C8
S113229011F50C80DD81C02D888190E00E941C0C1A
S11322A0898190E00E941C0C8A8190E00E941C0CA1
S11322B08B8190E00E941C0C1092130420E042E1F8
S11322C054E061E070E084E30E942413109211044E
S11322D020E030E001C002C0822F932FDF91CF9124
S11322E008959091110491113BC02FE031E1309396
S11322F0AC052093AB0592E09093120491E0909387
S11323001304EBEAF5E020931404918190931504EF
S11323106093AB057093AC05609316049181909320
S113232017048093180440931904809157029091E4
S11323305802A0915902B0915A020196A11DB11DF3
S11323408093570290935802A0935902B0935A0273
S113235020E042E154E061E070E084E30E94241351
S11323600895CF93DF939B01C82FD0E0CC0FDD1FDE
S1132370CB5FDA4F688141E050E070E0898190E002
S11323800E9429092881898190E0820F911D0E9471
S11323901C0C85E093E00E94E70B0E944909C1E010
S11323A002C0C0931A040E944D09892BD1F380E026
S11323B0DF91CF910895CF93DF93EC012881211110
S11323C021C0898190E0FC01EE0FFF1FE55EFB4F09
S11323D02181223021F44081322F118225C02A81AB
S11323E040E050E06BED71E182E30E942413E98147
S11323F0F0E0EE0FFF1FE55EFB4F4081318181E08D
S1132400818312C0213081F48A81E981F0E0EE0FEA
S1132410FF1FE55EFB4F8083E981F0E0EE0FFF1FB5
S1132420E55EFB4F82E08183842F932FDF91CF9170
S11324300895FC018281282F2F5F9481291708F0C9
S113244020E09381921781F090E0DC01AA0FBB1F7A
S11324508A0F9B1FA081B181A80FB91F4D935D9373
S11324606C93228380E0089582E00895FC018381C7
S1132470582F5F5F92818917C1F09481591708F032
S113248050E090E0DC01AA0FBB1F8A0F9B1FA081C4
S1132490B181A80FB91F2D913D914C91DB012D9372
S11324A03D934C93538380E0089581E008951F93F6
S11324B0CF93DF93562F642FFC014081442361F0B6
S11324C0EC01219610E08FE592E00E941912512F41
S11324D0612F49914111F7CF81E0DF91CF911F9195
S11324E00895562F642F482F8FE592E00E94191209
S11324F081E00895BC018FE592E00E9436120895B0
S11325000E94F00C81110CC069E672E084E692E04E
S11325100E946E06811104C0809169020E94F80C29
S11325200895CF93DF93FC016081662349F0EC01A9
S1132530219684E692E00E94590669916111F9CFCF
S1132540DF91CF910895682F84E692E00E945906A6
S1132550089584E692E00E948506811108C020E077
S113256040E050E060E872E183E00E9424130895A3
S113257010928A041092890410928C0410928B0495
S1132580089580918D040895CF93DF9300D000D0F7
S113259000D0CDB7DEB729833A834B835C836D8348
S11325A07E83FC012281422F4F5F3481431708F060
S11325B040E0FC0133813417B9F030E0D901AA0FAF
S11325C0BB1F2A0F3B1F220F331FA081B181A20F13
S11325D0B31F26E0FE01319601900D922A95E1F792
S11325E0FC01428380E001C082E026960FB6F89495
S11325F0DEBF0FBECDBFDF91CF910895CF93DF93A0
S1132600EC018B81282F2F5F9A818917C9F09C8157
S1132610291708F020E090E0FC01EE0FFF1F8E0F59
S11326209F1F880F991FE881F981E80FF91F86E041
S1132630DB0101900D928A95E1F72B8380E001C0C4
S113264081E0DF91CF910895CF93DF9300D000D044
S113265000D0CDB7DEB7922FF894262F69837A8302
S11326608C83642F4D835E839B83372F492F582F90
S11326707E818AE692E00E94C412789426960FB670
S1132680F894DEBF0FBECDBFDF91CF9108950F93B5
S11326901F93CF93DF9300D000D000D0CDB7DEB727
S11326A08C01BE016F5F7F4F8AE692E00E94FE12AA
S11326B081110AC086E0FE013196D80101900D9285
S11326C08A95E1F780E001C081E026960FB6F89480
S11326D0DEBF0FBECDBFDF91CF911F910F91089543
S11326E01F920F920FB60F9211248F939F93AF9363
S11326F0BF9380918F0490919004A0919104B09124
S113270092040197A105B10569F480918E048F5F4D
S113271080938E0410928F0410929004109291046E
S11327201092920416BC80918F0490919004A09111
S11327309104B09192040196A11DB11D80938F0460
S113274090939004A0939104B0939204BF91AF919D
S11327509F918F910F900FBE0F901F901895019726
S113276029F4EEE6F0E080818160808308950E9480
S1132770F40617B88BEF8AB95A9A5B9A7894EEE606
S1132780F0E080818160808386E486BD83E085BD3E
S11327900E94BA0B0E9412060E94B8128BE093E0CA
S11327A00E94E70B81E090E00E94AF13E8E6F0E0BE
S11327B0808181608083EBE6F0E0808181608083AA
S11327C081E080935D0689E39FE190935B068093AB
S11327D05A06CDE5D6E00EE516E080918E048130F0
S11327E0B9F480916F028F5F80936F0220E040E024
S11327F050E069E37FE181E00E94241320E040E09F
S113280050E065E97FE182E00E94241310928E0477
S11328108AE596E00E94471381113FC060915A06F1
S113282070915B0661157105C1F19881892F8D57EF
S11328308B3480F49F3A48F40E948C14FC018091FC
S11328405A0690915B06099528C0892F8D5A0E94DB
S1132850831423C0983C30F0D8018D919C91FB01E6
S113286009951BC0892F82538B3498F48F5F0E9483
S11328708C14FC018CE596E009958881843369F415
S113288083E00E948C14FC01D8018D919C910995E0
S113289004C080E090E0FB0109950E94C112809180
S11328A00105813021F080910105811196CF81E0ED
S11328B095E00E94C31F91CF1F920F920FB60F9203
S11328C011242F933F934F935F936F937F938F9331
S11328D09F93AF93BF93EF93FF9342E066E081E051
S11328E00E947709FF91EF91BF91AF919F918F91D2
S11328F07F916F915F914F913F912F910F900FBEF8
S11329000F901F901895E82FF0E0EE0FFF1FE05A8C
S1132910F94F718360830895E82FF0E0EE0FFF1FF5
S1132920E05AF94F8081918108951F93CF93C82F66
S1132930FB0149E2849F412D112442954F701CE90B
S1132940140390011124C9018C0F911D6AE070E0F9
S11329500E94F31F842F805D8083862F805D818396
S1132960C05D419FC00D1124660F862F880F880F0C
S1132970680FC61BC283CF911F910895CF93DF9335
S113298000D000D000D0CDB7DEB782E395E3A5E355
S1132990B0E089839A83AB83BC8380E390E09E8319
S11329A08D838091D4048130C1F120F0823009F00C
S11329B0ABC06AC08091B6048130C9F41092B604E9
S11329C08091D504805D8D83462F6CE4CE010596FD
S11329D00E9457128091D5048F5F8A3021F0809332
S11329E0D50480E098C01092D50480E094C0825051
S11329F0823008F08BC08091D504815094E6899F81
S1132A00802D11248093D60481E08093D404109205
S1132A10D5041092B60480E07EC08091B604813063
S1132A20C9F41092B6048091D504805D8D83462F3D
S1132A3062E5CE0105960E9457128091D5048F5FFE
S1132A408A3021F08093D50480E065C01092D504CB
S1132A5080E061C08250823008F05AC08091D50471
S1132A608150880F982F990F990F890F9091D60450
S1132A70890F8093D60482E08093D4041092D50405
S1132A801092B60480E047C08091B6048130C9F446
S1132A901092B6048091D504805D8D83462F68E53D
S1132AA0CE0105960E9457128091D5048F5F8A301B
S1132AB021F08093D50480E02EC01092D50480E0EC
S1132AC02AC08250823030F59091D5048091D6048A
S1132AD0890F81508093D6041092D4041092D504A7
S1132AE01092B604FA018083BE016F5F7F4F0E948B
S1132AF095141C8244E060E0CE0101960E945712B6
S1132B001092D60481E007C080E005C080E003C0D5
S1132B1080E001C080E026960FB6F894DEBF0FBEB9
S1132B20CDBFDF91CF910895CF93DF9300D000D034
S1132B3000D0CDB7DEB7DA019C91992389F090E0FB
S1132B4030E2E1E0F0E0EC0FFD1FE90FF11D30830E
S1132B509F5FFD01E90FF11D20812111F2CF01C01A
S1132B6090E0FE01E90FF11D11829091D7049111BB
S1132B700CC0462F682FCE0101960E9457128091F7
S1132B80D7048F5F8093D7040DC09F5F9093D704C1
S1132B90923341F4462F682FCD010E94571288ECDE
S1132BA08093D70426960FB6F894DEBF0FBECDBF30
S1132BB0DF91CF9108952091C504213009F04AC0D6
S1132BC02091C604213079F030F02230D1F0233046
S1132BD009F040C028C00E94910581113BC081E0EA
S1132BE08093C60437C00E942B0520E041EE55E0D7
S1132BF06CE97FE088EC0E94241382E08093C60491
S1132C0029C0FC012181213029F59093C8048093C7
S1132C10C704828193819093CA048093C90483E09A
S1132C208093C60417C0E091C704F091C80486815C
S1132C30982F990F890F0E94170581110BC01092CC
S1132C40C604E091C904F091CA048091C70490912C
S1132C50C804099580E090E008950F931F93CF93E3
S1132C60DF93CDB7DEB728970FB6F894DEBF0FBE5B
S1132C70CDBF20919504309196042F5F3F4F309340
S1132C809604209395046091970470919804672B9F
S1132C9061F481E090E0909398048093970480E538
S1132CA090E090939A04809399042A30310509F0B6
S1132CB087C040919B042091990430919A04429FCB
S1132CC0C001439F900D112420E137E2281B390BEA
S1132CD03695279536952795ABE7B4E10E940720F2
S1132CE0AC01569547951C829A013695322F2227BE
S1132CF037952795241B350B3695279536952795BB
S1132D000E9407208C0116950795BE016F5F7F4FC7
S1132D10842F0E94951443E050E06AE470E0CE01F1
S1132D2001960E945C0843E050E060E670E083E1B5
S1132D3093E00E945C0820919B04243188F48091E4
S1132D409C0490919D048832910550F401969093CF
S1132D509D0480939C0410929F0410929E0426C0AC
S1132D602B3798F080919E0490919F0488329105AE
S1132D7060F42F3F51F010929D0410929C04019630
S1132D8090939F0480939E0411C010929D0410920E
S1132D909C0410929F0410929E041092A10410921D
S1132DA0A00442E066E080E00E94770990917002FE
S1132DB081E0892780937002109296041092950402
S1132DC020919C0430919D04232B31F480919E0426
S1132DD090919F04892BF1F08091A0049091A1041B
S1132DE08536910570F01092A1041092A004909180
S1132DF0A20481E089278093A20442E066E00E9455
S1132E0077098091A0049091A10401969093A10464
S1132E108093A0042091A3043091A40422303105AE
S1132E2008F457C018861F82CE0107960E94D81F47
S1132E308F819885292F221F2227221F2D831E82EE
S1132E402130D9F4937098878F831C82BE016F5F01
S1132E507F4F80919B040E94951440E050E06CE504
S1132E6070E0CE0101960E945C0840E050E060E70B
S1132E7070E087E193E00E945C0880E098E0988726
S1132E808F83CE0107960E94D81F80E090E1988737
S1132E908F83CE0107960E94D81F8F819885292F92
S1132EA0221F2227221F2D831E82213019F49370A2
S1132EB098878F831092A4041092A3048091A50490
S1132EC08F3720F48F5F8093A50403C087538093CA
S1132ED0A5040F37110538F4A80165E070E080E01F
S1132EE090E00E946F088091A3049091A40401963D
S1132EF09093A4048093A30480E090E028960FB6F6
S1132F00F894DEBF0FBECDBFDF91CF911F910F911B
S1132F1008951F93CF93DF93CDB7DEB727970FB6EE
S1132F20F894DEBF0FBECDBF8091A6049091A70494
S1132F3001969093A7048093A6048436910509F022
S1132F404DC1109294041092A7041092A6041D82FD
S1132F501E8281E08F83CE0105960E94DB119E8341
S1132F608D838E81823009F01BC1ED8185EB90E069
S1132F709093AA048093A904F0E04091AB0450918B
S1132F80AC044E175F0708F042C0CF01841B950BB9
S1132F9064E6689F9001699F300D11242C3087E00E
S1132FA0380790F4A5E8BAE50E9407200024880FAA
S1132FB0991F001C880F991F001C892F902D909336
S1132FC0AE048093AD0411C03695279536952795A8
S1132FD0A9EAB8E40E940720880F892F881F990B5B
S1132FE091959093AE048093AD048091AD0490913B
S1132FF0AE04009729F4F093AC04E093AB0448C00A
S1133000840F951F9093AC048093AB0441C0CA0114
S11330108E1B9F0B64E6689F9001699F300D1124FD
S11330202C3087E0380790F4A5E8BAE50E94072021
S11330300024880F991F001C880F991F001C892FDA
S1133040902D9093AE048093AD0411C036952795CE
S113305036952795A9EAB8E40E940720880F892F9E
S1133060881F990B91959093AE048093AD04809141
S1133070AD049091AE04009729F4F093AC04E0936E
S1133080AB0406C0481B590B5093AC044093AB04EB
S11330908091AB049091AC048093AF049093B004FE
S11330A0282F8093740680939B048091B10490919F
S11330B0B2048536910508F44FC0273090F480910E
S11330C0B30481110EC08091B4048F5F8093B40463
S11330D040E064EB74E082E00E94711181E080932F
S11330E0B30460919B046B3010F01092B3042091F0
S11330F07102233008F46BC06F3F09F468C0662383
S113310009F465C0862F90E030E0A9014D5F5F4F60
S1133110841795075CF0235031092817390734F0D8
S11331208091B50481508093B50451C08091B50459
S11331308F5F8093B50460937102843108F447C0B3
S11331401092B50483E08093710240E060E68AE166
S113315093E00E94571205C001969093B2048093A5
S1133160B10414E61093930482E395E3A5E3B0E07D
S113317089839A83AB83BC83BE016F5F7F4F8D814C
S11331800E9495141C8240E050E060E070E180E011
S113319090E00E9498021092A804109393041EC019
S11331A08091A8048F5F8093A8048A30B8F040E02F
S11331B050E062E070E180E090E00E9498028FEFBE
S11331C08093740680939B041092930407C040E09C
S11331D060E68DE193E00E945712C3CF80E090E057
S11331E027960FB6F894DEBF0FBECDBFDF91CF9107
S11331F01F9108950E94BB0280E090E00895CF9350
S1133200DF9300D01F92CDB7DEB7198281E08A83A5
S113321082E08B83CE0101960E94DB119A8389831D
S11332208A818230E9F489810E941C0C81E593E053
S11332300E94E70B8981823039F0833049F0813074
S113324051F48093B60407C082E08093B60403C0AF
S113325083E08093B6048091B7048F5F8093B704B2
S11332608091B704833010F01092B7048091B804B1
S11332709091B90401969093B9048093B804883965
S11332809A43E8F08091BA049091BB04A091BC04E5
S1133290B091BD040196A11DB11D8093BA04909311
S11332A0BB04A093BC04B093BD0440E06AEB74E09B
S11332B081E00E9471111092B9041092B8040F9029
S11332C00F900F90DF91CF910895CF93DF9300D0AB
S11332D000D0CDB7DEB78091BE048F5F8093BE046B
S11332E08091BF048111A2C08091C00482FD11C0ED
S11332F09091C10491110DC00E94960481117BC06C
S11333008091C00484608093C00481E08093C104F0
S11333107AC083FD12C08091C104813009F06BC072
S11333200E949105811167C08091C00488608093D8
S1133330C00482E08093C10466C08091C1048230DD
S113334009F059C00E942B050E94B905813009F08B
S113335052C08091C2049091C30401969093C30417
S11333608093C2048139914008F445C084E20E94EC
S11333701705811140C01092C4041092C304109226
S1133380C20482E395E3A5E3B0E089839A83AB8327
S1133390BC8380919304843631F5BE016F5F7F4F07
S11333A080919B040E94951480E293E00E94DB1FAD
S11333B082EC92E00E94DB1F84E393E00E94DB1F17
S11333C082EC92E00E94DB1F8CE393E00E94DB1FFF
S11333D082EC92E00E94DB1F83E08093C10481E0D1
S11333E08093C50408C0CE0101960E94DB1F82ECC5
S11333F092E00E94DB1F8091C104833021F480E0BD
S113340090E00E94DB150E94FC0381110FC081E053
S11334108093BF0440E050E068E270E380E090E015
S11334200E94980284E493E00E94DB1F0E941F051F
S1133430811116C08DE493E00E94DB1F1092BF043B
S11334408091C0048B7F877F8093C0041092C10455
S113345040E050E060E070E380E090E00E94980279
S11334600F900F900F900F90DF91CF91089541E04E
S113347061E080E00E94500941E062E080E00E9447
S1133480500940E060E081E00E94500980E090E053
S1133490089540E061E080E00E94500940E061E06E
S11334A081E00E94770940E060E081E00E945009D9
S11334B042E067E081E00E94500980E090E00895D6
S11334C085E593E00E94E70B0E94C1120E941C0C48
S11334D080E090E008958091CB049091CC04019613
S11334E09093CC048093CB04853F914040F08FE5CA
S11334F093E00E94DB1F1092CC041092CB0440E0B6
S113350062E080E00E94500942E066E081E00E94AF
S1133510500940E062E081E00E94770942E066E001
S113352080E00E94770980E090E008950F931F9354
S1133530CF93DF9300D0CDB7DEB72FE78AE196E0D3
S1133540215080409040E1F700C000000E94BA0B77
S113355020E040E050E06DEE72E08DE70E9424131D
S113356020E040E050E06BED71E18FEA0E9424130B
S11335708BED95E19A838983CE0101960E94F8052B
S113358040E061E08BE994E00E94E81041E064E0EF
S11335908AEB94E00E94E8100E94520788E790E0CA
S11335A00E9462070E941C0C0E94FF070E941C0CD0
S11335B00E9406080E941C0C00E014E00E94060809
S11335C001501109D9F785E693E00E94E70B6AEBF5
S11335D074E081E00E94B1118111F9CF0AEB14E08B
S11335E0F80180810E941C0CF80181810E941C0C4E
S11335F0F80182810E941C0CF80183810E941C0C3A
S11336006DEC74E084E00E94B1118111F9CF6EEC8D
S113361074E083E00E94B1118111F9CF0E94860306
S113362084E38093CF0480E38093BE0486E3809395
S1133630D00480E090E00F900F90DF91CF911F9124
S11336400F9108958091F604813011F00E94BC0519
S11336500895CF93DF9300D000D0CDB7DEB782E3D7
S113366095E3A5E3B0E089839A83AB83BC8380911F
S1133670D104813089F030F0823049F1833009F08F
S113368024C32FC080E090E00E94470B8091D104B6
S11336908F5F8093D10419C3BE016F5F7F4F809108
S11336A09B040E9495141C8242E062E4CE010196C0
S11336B00E9457128091B604813009F006C38091AC
S11336C0D1048F5F8093D1041092B604FEC281E0CE
S11336D090E00E94470B8091D1048F5F8093D104C6
S11336E0F4C28091D204833009F400C128F48130FB
S11336F011F108F045C00CC0853009F4FEC108F48E
S11337001CC1863009F420C2873009F0DEC2BCC275
S11337108091B604813009F0D8C242E060E08CEFB9
S113372092E00E9457128091D2048F5F8093D2045A
S11337301092B604CAC240EF52E062E080E00E94F8
S113374094158091B604982F9250923050F482E0F0
S11337508093D20482E090E00E94470B1092B6045A
S1133760B4C2813009F0B1C283E08093D2041092D4
S1133770B60442E060E080EF92E00E945712A5C2D6
S11337808091D304823009F43FC030F4882359F087
S1133790813009F09AC211C0833009F45CC08430CE
S11337A009F093C27FC08091B604813009F08DC2C4
S11337B01092B6048093D30488C28091B604982FE3
S11337C09250923060F442E06CE38FE693E00E9402
S11337D057121092B60484E08093D30476C28130E9
S11337E061F41092B60482E08093D30442E060E076
S11337F080EF92E00E94571268C240EF52E062E00C
S113380080E00E94941561C28091B604982F925072
S1133810923060F443E06CE38FE693E00E94571229
S11338201092B60484E08093D3044FC2813061F4D3
S11338301092B60483E08093D30443E060E08AEE00
S113384092E00E94571241C24AEE52E063E080E0E7
S11338500E9494153AC28091B604982F92509230E7
S113386060F444E06CE38FE693E00E9457121092F8
S1133870B60484E08093D30428C2813061F41092AA
S1133880B60484E08093D30444E060E08DE593E0E3
S11338900E9457121AC24DE553E064E080E00E9492
S11338A0941513C28091B604982F9250923050F41C
S11338B082E08093D1041092D2041092B604109244
S11338C0D30403C2813059F41092B6041092D30485
S11338D047E060E381E793E00E945712F6C146E7B0
S11338E053E067E080E30E949415EFC14AEE52E092
S11338F063E080E00E9494158091B604982F925062
S1133900923060F484E08093D2041092D30483E074
S113391090E00E94470B1092B604D7C1813009F0A1
S1133920D4C11092B60485E08093D20443E060E0F1
S11339308AEE92E00E945712C8C18091D30482306B
S113394009F46CC030F4882369F0813009F0BDC1FA
S113395032C0843009F49BC008F487C0853009F074
S1133960B4C1A7C08091B604813009F0AEC1BE01D4
S11339706F5F7F4F8091CD040E9495141C8242E0BA
S11339806CE4CE0101960E945712BE016F5F7F4F17
S11339908091CE040E9495141C8243E06CE4CE0115
S11339A001960E9457121092B6048091D3048F5F3F
S11339B08093D3048AC18091B604982F9250923098
S11339C0C0F442E06CE38FE693E00E94571241E0BA
S11339D064EB74E082E00E9471111092B60483E0FB
S11339E08093D30442E060E080EF92E00E9457129B
S11339F06CC1813061F41092B60482E08093D304E8
S1133A0042E060E080EF92E00E9457125EC140EF16
S1133A1052E062E080E00E94941557C18091B604A0
S1133A20982F9250923060F443E06CE38FE693E079
S1133A300E9457121092B60484E08093D30445C1C7
S1133A40813061F41092B60485E08093D30443E09E
S1133A5060E08AEE92E00E94571237C14AEE52E0CB
S1133A6063E080E00E94941530C14DEC54E062E0C4
S1133A7080E00E94BE14813009F027C18093D304F2
S1133A8040E06DEC74E084E00E9471111EC14EECC4
S1133A9054E063E080E00E94BE14813009F015C157
S1133AA082E08093D30440E06EEC74E00E947111D4
S1133AB00CC18091B604982F9250923050F482E059
S1133AC08093D1041092D2041092B6041092D304BD
S1133AD0FCC0813059F41092B6041092D30447E02C
S1133AE060E381E793E00E945712EFC046E753E09A
S1133AF067E080E30E949415E8C04DE553E064E07C
S1133B0080E00E9494158091B604982F92509230D0
S1133B1060F486E08093D2041092D30484E090E0B1
S1133B200E94470B1092B604D0C0813009F0CDC07A
S1133B301092B60487E08093D20444E060E08DE5FF
S1133B4093E00E945712C1C08091D304813091F058
S1133B5038F0823009F43FC0833009F0B6C070C039
S1133B608091B604813009F0B0C01092B6048093FD
S1133B70D304ABC08091B604982F92509230B0F425
S1133B8042E06CE38FE693E00E9457120E94000625
S1133B9020E041EE55E06CE97FE088EC0E942413BC
S1133BA01092B60483E08093D3048FC0813061F413
S1133BB01092B60482E08093D30442E060E080EF88
S1133BC092E00E94571281C040EF52E062E080E030
S1133BD00E9494157AC08091B604982F9250923026
S1133BE0D0F443E06CE38FE693E00E945712109206
S1133BF0BA041092BB041092BC041092BD0441E0BC
S1133C006AEB74E081E00E9471111092B60483E0C3
S1133C108093D3045AC0813061F41092B60483E0D7
S1133C208093D30443E060E08AEE92E00E9457124E
S1133C304CC04AEE52E063E080E00E94941545C017
S1133C408091B604982F9250923050F482E0809381
S1133C50D1041092D2041092B6041092D30435C049
S1133C60813059F41092B6041092D30447E060E313
S1133C7081E793E00E94571228C046E753E067E0CB
S1133C8080E30E94941521C046E753E067E080E397
S1133C900E9494158091B6048250823040F41092B0
S1133CA0D2041092D3041092B6041092D1048091DD
S1133CB0B604813051F41092B6041092D20447E055
S1133CC060E381E793E00E94571280E090E00F9058
S1133CD00F900F900F90DF91CF910895FC01808198
S1133CE090E0DC01AA0FBB1FAA0FBB1F8A0F9B1F0A
S1133CF0DC01A852BB4F828193818D939C932181D7
S1133D00808190E0DC01AA0FBB1FAA0FBB1F8A0FA2
S1133D109B1FDC01A852BB4F12962C93808190E02C
S1133D20DC01AA0FBB1FAA0FBB1F8A0F9B1FDC015C
S1133D30A852BB4F1496FC93EE9313970895FC017D
S1133D40808190E00197FC01EE0FFF1FEE0FFF1F33
S1133D50EE0FFF1FE81BF90BEE58FD4F81E0858342
S1133D6008957F928F929F92AF92BF92CF92DF92EB
S1133D70EF92FF920F931F93CF93DF9300D000D065
S1133D801F92CDB7DEB78091F30481114CC007E7D1
S1133D9012E00F2EFCE8EF2EF2E0FF2EF02DF801DA
S1133DA08081813029F433970190F081E02D0995C9
S1133DB0095F1F4F0E151F0591F781E08093F304EF
S1133DC032C05801F80180818F5F8083F7019081B0
S1133DD0913001F5F801329790818917D8F0F801F4
S1133DE036970190F081E02D09959D838C838D8118
S1133DF080FD0EC0798286958A838C818B8382E0D4
S1133E000E948C14FC01CE0101960995F7011082E1
S1133E10F5011082095F1F4FF7E0EF0EF11C0C153E
S1133E201D0579F611C008E712E00F2EF7E7EF2E13
S1133E30F2E0FF2EF02D0F2EFDE8CF2EF2E0DF2E64
S1133E40F02D77247394BDCF80E090E00F900F9015
S1133E500F900F900F90DF91CF911F910F91FF90D2
S1133E60EF90DF90CF90BF90AF909F908F907F9016
S1133E700895EF92FF920F931F93CF93DF93809156
S1133E80F10481113EC06FE97EE181E00E94831458
S1133E906EE67EE183E00E9483140E94F510CCE874
S1133EA0D2E004EC12E08881813031F4FE013397D2
S1133EB00190F081E02D09952796C017D10799F755
S1133EC081E08093F1048093F2040E94110619C0EA
S1133ED088818F5F8883FE0131979081913061F4EE
S1133EE0FE0132979081891738F0FE0136970190D0
S1133EF0F081E02D099518822796CE15DF0541F74C
S1133F0009C0CDE8D2E00F2EF5ECEF2EF2E0FF2E43
S1133F10F02DDECF0E94FB0C80E090E0DF91CF918A
S1133F201F910F91FF90EF9008950F931F93CF93DC
S1133F30DF93CAEDD4E003EF14E08091F404909190
S1133F40F50401969093F5048093F40428812130BC
S1133F5079F48538934060F0FE0132970190F08146
S1133F60E02D89819A8109951092F5041092F40448
S1133F702596C017D10709F780E090E0DF91CF9133
S1133F801F910F910895CF93DF93EC010E947E0E51
S1133F908091F204813019F4CE010E94221B809199
S1133FA0F604813011F48093AF02DF91CF9108952C
S1133FB00E94ED1F08950E94F01F0895CF93DF9390
S1133FC0EC01888199810E94790D99838883DF911E
S1133FD0CF9108950E94911208950E94DE1F0895C2
S1133FE00E94EA1F089597FB072E16F4009407D049
S1133FF077FD09D00E94132007FC05D03EF490956C
S113400081959F4F0895709561957F4F0895A29F64
S1134010B001B39FC001A39F01D0B29F700D811D59
S11340201124911D0895AA1BBB1B51E107C0AA1FAF
S1134030BB1FA617B70710F0A61BB70B881F991F45
S11340405A95A9F780959095BC01CD010895FB017F
S1134050DC0105900D920020E1F70895FB01DC01DD
S11340608D91019080190110D9F3990B0895F8945A
S1054070FFCF7C
S1134072000075062000C30196010000000A0084B6
S113408203A90100000064000F029601000000640D
S113409200010296010000006400ED019601000097
S11340A2006400E2019601000000640084039101AF
S11340B20000006400B7018F010000006400B00139
S11340C29601000000E80399019601000000E8034C
S11340D284037801000000E80384038801000000DF
S11340E2E803F20200F802005749464920444953C2
S11340F2434F4E4E45435400235561727423003E90
S1134102002B495044004F4B0041542B4349504328
S11341124C4F53453D300D0A00474F54204950003F
S11341224E494B48494C0041542B43495053454E48
S1134132443D0041542B43574A41503D226E696B22
S113414268696C222C223132333435363738220DE9
S11341520A0041542B43494653520D0A0041542B41
S11341624349505345525645523D312C38300D0A7D
S11341720041542B4349504D55583D310D0A0041DD
S1134182542B43574D4F44453D330D0A0001020160
S11341921D05000064FF0000FF0000FF0000FF0097
S11341A200FF0000FF000030313233343536373837
S11341B23941424344454600010203040506070807
S11341C2090A0B0C0D0E0F04030201C8000000AD16
S11341D205000015250400006426EC0500000F010B
S11341E20103020E1E0E010000210E7B0E010000CF
S11341F2850E7B0E0101002D16371A050000891762
S1134202491A010100FA18601A050100FF186B1A15
S11342120501006519961A050100291B491A0501B1
S113422200A912A912050100B11EB11E0501002C3C
S1134232000D0A0043757272656E742076616C75A6
S1134242653A0020206368616E6765642076616C5C
S113425275653A006800746573743200746573742A
S1134262310053544152540044414947230056619A
S11342726C75653A00646F6E650A00776F726B69DC
S11342826E6700272F2E00636D0043200043210038
S11342925761746572204C6576656C204D6F6E694A
S11342A2746F7200312E4C6576656C00322E446553
S11342B262756700484552454F66660A0048455292
S11342C2454F4E0A00496E206F70656E2033006FB1
S11342D270656E3400496E206F70656E2035006F14
S10F42E2004241434B004241434B20008A
S9030000FC
