:100000000C94CF010C94FE050C94EC010C94EC01C3
:100010000C94EC010C94EC010C94EC010C94EC01AC
:100020000C94EC010C94E90A0C94EC010C94EC0196
:100030000C94EC010C94EC010C94EC010C94EC018C
:100040000C941C130C94EC010C94B80B0C94EC0164
:100050000C94EC010C948E050C94EF070C94EC01BD
:100060000C94EC010C94EC01AE2000B0C8001040E0
:10007000813FA1A6A83FA4D300D5F0D922DA12DB94
:10008000208D14AF0000000000000000002F0000D1
:1000900000000700070000147F147F1400242A7F4B
:1000A0002A120062640813230036495522500000CA
:1000B0000503000000001C224100000041221C003A
:1000C0000014083E08140008083E0808000000A0BC
:1000D00060000008080808080000606000000020B8
:1000E00010080402003E5149453E0000427F400096
:1000F000004261514946002141454B31001814121C
:100100007F10002745454539003C4A4949300001E8
:100110007109050300364949493600064949291E37
:100120000000363600000000563600000008142299
:100130004100001414141414000041221408000299
:100140000151090600324959513E007C1211127CBE
:10015000007F49494936003E41414122007F4141EB
:10016000221C007F49494941007F09090901003EDD
:100170004149497A007F0808087F0000417F41001B
:10018000002040413F01007F08142241007F404091
:100190004040007F020C027F007F0408107F003E79
:1001A0004141413E007F09090906003E4151215E5F
:1001B000007F091929460046494949310001017F5C
:1001C0000101003F4040403F001F2040201F003FF2
:1001D0004038403F006314081463000708700807A4
:1001E00000615149454300007F41410000552A55B7
:1001F0002A55000041417F00000402010204004032
:100200004040404000000102040000205454547853
:10021000007F484444380038444444200038444473
:10022000487F00385454541800087E090102001811
:10023000A4A4A47C007F080404780000447D40004E
:10024000004080847D00007F102844000000417F32
:100250004000007C04180478007C0804047800380E
:100260004444443800FC242424180018242418FC96
:10027000007C0804040800485454542000043F44FF
:100280004020003C4040207C001C2040201C003CC2
:100290004030403C004428102844001CA0A0A07C12
:1002A000004464544C441414141414142300260001
:1002B0002900240027002A00250028002B00F20234
:1002C000C2026103920355034C03430333039203B9
:1002D00092039203920392033203310330032F03FC
:1002E0002A032903280327032603250324032303C2
:1002F00022038D038C037F037E037D037C037B033A
:100300007A03790378037703760375037403730321
:100310006E036D036C036B036A0369036803670371
:10032000660300000000000000004241434B000053
:1003300000000020342E53656E736F722073746159
:1003400074650020332E44656275670020322E4D9F
:100350006F746F720020312E53657474696E677309
:1003600000574946490000000000000000004D65AC
:100370006E75000000000000000000000000005446
:10038000616E6B204C6576656C203A0000574946DB
:10039000490020202020202020202020000011249F
:1003A0001FBECFEFD8E0DEBFCDBF13E0A0E0B1E0CD
:1003B000EAE0F7E302C005900D92A239B107D9F740
:1003C00026E0A2E9B3E001C01D92A737B207E1F72A
:1003D0000E9463130C94831B0C9400009B01332731
:1003E000E0919203F0E0E217F30768F4809393033F
:1003F000609392036627707F7093950360939403D4
:10040000409396030895232B59F46627707F8091BB
:100410009403909195036817790711F41092920351
:10042000089560919203662331F1209197033091F2
:10043000980388EE93E070E00E943F1B2617370771
:1004400098F09091990381E08927809399034091D6
:100450009603609193030E94A40881E090E090933A
:1004600098038093970308952F5F3F4F309398032D
:10047000209397030895409196036091930380E041
:100480000E94A40808954F925F926F927F928F927C
:100490009F92AF92BF92CF92DF92EF92FF920F9313
:1004A0001F93CF93DF931F92CDB7DEB77C0186E217
:1004B00089830F2EFCE0AF2EF1E0BF2EF02D0F2E22
:1004C000FBE0CF2EF1E0DF2EF02D08E711E0512CFC
:1004D000752C992493944AC0C901D90112974C9163
:1004E000413011F5663201F1AF016080D9011497F6
:1004F0000D90BC91A02DA60DB11DAC916A130FC03B
:10050000D9014C90641410F463946082DA014C9128
:10051000DC018C91481308C0872C792D05C0D901C6
:100520008C91681608F41082275F3F4F3996201788
:10053000310791F670939B0380929C037130B1F464
:100540008981863209F1E82DF0E0E356FC4F808383
:10055000982D9F5F90939C039C3111F08A3031F469
:1005600050929B0350929C039092BC03CE01019643
:10057000F701099581110CC0698170919B038090EE
:100580009C039501F601A8CFFCE18F12EFCFE8CFD5
:1005900080E090E00F90DF91CF911F910F91FF903D
:1005A000EF90DF90CF90BF90AF909F908F907F9013
:1005B0006F905F904F900895CF93DF93ECE0F1E060
:1005C00088E791E0EF012497A881B981ED010990B6
:1005D0000020E9F72197CA1BDB0BC0833996E81787
:1005E000F90781F781E08093640180931301809380
:1005F0006D01DF91CF9108951F93CF93DF9300D0CA
:1006000000D0CDB7DEB78091C00389831A82CE01B6
:1006100001960E94271B8FEB92E00E94271B2091DE
:10062000C1033091C203E22F49E2249F412D1124DE
:1006300042954F701CE91403C0011124820F911DD3
:100640006AE070E00E943F1B842F805D8983862FC3
:10065000805D8A83E05D419FE00D1124660F962F37
:10066000990F990F690FE61BEB831C822A30310525
:100670001CF4E9831A8206C0243631051CF48983F0
:10068000EA831B82CE0101960E94271B81EC92E037
:100690000E94271B0F900F900F900F90DF91CF912A
:1006A0001F9108959091650180916601981304C08F
:1006B0001092650180E0089582E00895813029F468
:1006C0001092BF031092BE030BC0823049F4809198
:1006D000BE039091BF0301969093BF038093BE0326
:1006E0008091BE039091BF0308951F93CF93DF9332
:1006F000182F8091BD03811126C0C12FD0E0FE01CB
:10070000EE0FFF1FEE0FFF1FEE0FFF1FEC0FFD1F81
:10071000EA5FFE4F808191810E94271B173011F400
:100720000E94FC029E01220F331F220F331F220F53
:10073000331FC20FD31FCA5FDE4F81E08C838093CB
:10074000BD030E945E03C12FD0E0FE01EE0FFF1F2C
:10075000EE0FFF1FEE0FFF1FEC0FFD1FEA5FFE4FB6
:1007600095818681981313C0163069F0FE01EE0F53
:10077000FF1FEE0FFF1FEE0FFF1FEC0FFD1FEA5FC5
:10078000FE4F148215821092BD0310E001C011E0EB
:1007900082E00E945E03FE01EE0FFF1FEE0FFF1FBF
:1007A000EE0FFF1FEC0FFD1FEA5FFE4F2781308524
:1007B0002817390760F4148215821092BF03109233
:1007C000BE031092BD0381E00E945E0312E0812F00
:1007D000DF91CF911F9108958091C303811106C0CD
:1007E00084E08093C40381E08093C3038091C403B9
:1007F0000E94750381110BC08091C4038F5F8093A9
:10080000C403863089F51092C30380E008958230D6
:1008100069F58091C503853000F12091C403223031
:1008200031F41092C5031092C30382E017C0E22F87
:10083000F0E0CF01880F991F880F991F880F991F2B
:10084000E80FF91FEA5FFE4F1482158221502093B2
:10085000C4031092C50381E001C081E09091C503FB
:100860009F5F9093C503089581E0089581E0089506
:10087000FC01E60FF11D2081222389F0241306C01C
:1008800002C0241303C0862F8F5F08956F5FFC01A1
:10089000E60FF11D20812111F4CF80E0089580E062
:1008A0000895421770F4FB0130E0DC01A40FB11D84
:1008B0005C9151933F5F4F5F421720F43430A9F7AA
:1008C00001C030E0FC01E40FF11D8081FB01E30F6A
:1008D000F11D80833093D80308958093C103109253
:1008E000C20387E00E9475030895909114018091DE
:1008F0001501981304C01092140180E0089582E05D
:1009000008950F931F93CF93DF938091BC038130A1
:1009100009F04FC09091410180914201981347C066
:1009200081E080934001109241014CE260E08DE94A
:1009300093E00E943804C82F4CE2682F8DE993E0C1
:100940000E943804082F282F4C2F69EC73E08DE9A2
:1009500093E00E945104C9ECD3E088818093C003E6
:100960004AE3602F8DE993E00E943804182F282F66
:10097000402FBE018DE993E00E945104C881C093CD
:10098000DB038091CA038093DC031093DA03C10F69
:10099000C093D9032C2F412F69EC73E08DE993E0CC
:1009A0000E945104EC2FF0E0E953FC4F10821092AA
:1009B000BC0390916E0180916F01981303C081E098
:1009C0008093FE04DF91CF911F910F910895809144
:1009D000C603811108C086E08093C70381E080933D
:1009E000C6038093C80380911D02882339F086E0F6
:1009F0000E94750380931D0281E008958091BC03DD
:100A0000813059F41092C6031092C8030E948104E9
:100A100081E080931D0280E0089581E00895809137
:100A200074010895609172017091730189EC93E0F3
:100A30000E947A1B282F392F232B21F481E08093E9
:100A4000740102C010927401609175017091760179
:100A500089EC93E00E947A1B282F392F232B19F061
:100A600010927701089581E080937701089521E243
:100A70002093BB032091E503E22FF0E0E356FC4F07
:100A80003781FC013083273121F41092E50381E0A6
:100A900008952F5F2093E50380E00895FC012081F5
:100AA0002093B90381818093BA0308950895EAE7FA
:100AB000F0E0808187608083ACE7B0E08C91806C4F
:100AC0008C938C9180628C93808188608083089560
:100AD000EAE7F0E0908190689083ACE7B0E09C9109
:100AE000987F9C939C91892B8C93808180648083D8
:100AF000089580917A008074089580917800209103
:100B00007900829586958695837030E0220F331F99
:100B1000220F331F282B822F932F08951F920F929D
:100B20000FB60F9211248F938091780080917900F5
:100B30008F910F900FBE0F901F901895FC0192811E
:100B4000892F8F5F2481821708F080E02381281786
:100B500041F0A081B181A90FB11D6C93828380E027
:100B6000089582E00895FC018381982F9F5F228180
:100B7000821771F02481921708F090E0A081B18172
:100B8000A80FB11D8C91DB018C93938380E00895B5
:100B900081E00895FC0181E023819281291380E0A6
:100BA0000895FC0193818281891720F42481820FAA
:100BB000891B0895891B089542E067E080E00E9448
:100BC000A40800C042E067E081E00E94A40800C0E1
:100BD00000C0000042E067E080E00E94A4080895A1
:100BE000813031F4E9E6F0E080818160808308950E
:100BF000E9E6F0E080818160808308951F920F9282
:100C00000FB60F9211242F933F934F935F936F93DF
:100C10007F938F939F93AF93BF93EF93FF938091B5
:100C2000E60381110AC00E94BD0A80E090E00E94A4
:100C3000F00581E08093E6030BC00E94D80A81E0B2
:100C400090E00E94F0051092E60381E08093E703B4
:100C5000FF91EF91BF91AF919F918F917F916F9194
:100C60005F914F913F912F910F900FBE0F901F906A
:100C7000189581E090E00E94F005E89A1092E60352
:100C800081E08093E7030895CF93DF93EC01809197
:100C9000E803823060F081E00E94F0050E94DC05EC
:100CA0001092E7031092E6031092E8033BC0909184
:100CB000E703913099F520911705809115059091E2
:100CC00016053FEF239F800D911D1124909316056B
:100CD00080931505209115053091160522953295C2
:100CE000307F3227207F3227AFE9B6E40E94531BC2
:100CF000929582958F7089279F708927909316050A
:100D000080931505C0911505D0911605D0681092F5
:100D1000E8031092E7030E94DC0504C0D0618F5FF6
:100D20008093E8038C2F9D2FDF91CF910895E8EBFE
:100D3000F0E08CE08083808190E00E94870B089532
:100D4000ECEBF0E080818823ECF781E00895ECEB98
:100D5000F0E0108294EA908390819923ECF79091CF
:100D6000B900987F9830A1F48093BB0084E8809309
:100D7000BC00ECEBF0E080818823ECF79091B900A7
:100D8000987F983139F081E0903429F480E008951B
:100D900081E0089580E008958093BB0084E880930B
:100DA000BC00ECEBF0E080818823ECF79091B90077
:100DB000987F81E0983209F480E0089584E9809377
:100DC000BC000895EF92FF920F931F93CF93DF9390
:100DD000F82EE62E8A0141155105D1F0C0E0D0E091
:100DE0008F2D0E94A706811115C08E2D0E94CC0662
:100DF000FE01E859FF4F84910E94CC0681110CC07E
:100E00000E94DE062196C017D10751F780E005C089
:100E100080E003C081E001C081E0DF91CF911F91AC
:100E20000F91FF90EF900895EF92FF920F931F9311
:100E3000CF93DF93F82EE62E21153105C9F0C42F8C
:100E4000D52F89010C0F1D1F8F2D0E94A706811120
:100E500011C08E2D0E94CC0689910E94CC06811172
:100E60000BC00E94DE06C017D10771F780E005C0F5
:100E700080E003C081E001C081E0DF91CF911F914C
:100E80000F91FF90EF9008954CE150E060E088E70B
:100E90000E94E206089525E030E049EE53E060E468
:100EA00088E70E94140708950F931F93CF93DF9351
:100EB000082F88E70E94A706811120C080E40E94C5
:100EC000CC060052802F90E08C01000F111F800F84
:100ED000911F8C01000F111FC0E0D0E0FE01E00F58
:100EE000F11FEC57FF4F84910E94CC06811106C080
:100EF0002196C630D10591F70E94DE06DF91CF9191
:100F00001F910F910895CF93DF93C82FD62F88E7B5
:100F10000E94A706811112C00E94CC068D2F805519
:100F20000E94CC068C2F8F700E94CC068C2F82954D
:100F30008F7080610E94CC060E94DE06DF91CF9107
:100F40000895CF93DF93EC01862F642F0E948307CF
:100F50008881882331F021960E945407899181115C
:100F6000FBCFDF91CF910895CF93DF93D42F0E94D1
:100F7000830788E70E94A706811119C080E40E94B8
:100F8000CC06D11102C0CD2F0AC0C0E08FEF0E9465
:100F9000CC06CF5FCD13FACFDF37A8F306C081E0D0
:100FA0000E94CC06CF5FCF37D0F30E94DE06DF91E0
:100FB000CF910895805290E0FC01EE0FFF1F8E0F3D
:100FC0009F1FFC01EE0FFF1FE60FF11DEC57FF4FB7
:100FD00084910895FB9882E080931E0208951F92E9
:100FE0000F920FB60F9211242F933F934F935F935D
:100FF0006F937F938F939F93AF93BF93EF93FF93E1
:1010000080911D05811127C080912005882301F161
:1010100081E080931E0280911B0590911C0592BD7A
:1010200081BD019690931C0580931B05809120053E
:1010300081508093200580912005E0911905F09161
:101040001A05E80FF11D808180BDFA9AF99A44C013
:101050000E94EA0741C020911B0530911C05809138
:101060001E0590911F058217930750F181E0809330
:101070001E0280911B0590911C0592BD81BD0196B9
:1010800090931C0580931B05F89A9091180580B5E4
:10109000E0911905F0911A05E90FF11D8083809107
:1010A0001805E0911905F0911A05E80FF11D8081EE
:1010B0000E94870B809118058150809318050CC001
:1010C0008EEF92E00E94520B0E94EA0710921805E0
:1010D00010921F0510921E05FF91EF91BF91AF91E5
:1010E0009F918F917F916F915F914F913F912F9140
:1010F0000F900FBE0F901F901895E42FF0E0EE0FA9
:10110000FF1FEE54FD4F25913491E22FF32F8130D4
:1011100069F4208181E090E0AC0102C0440F551FCA
:101120006A95E2F7BA01622B60830895208181E01D
:1011300090E0AC0102C0440F551F6A95E2F7BA0176
:101140006095622360830895E42FF0E0EE0FFF1FA7
:10115000E854FD4F25913491E22FF32F813069F44B
:10116000208181E090E0AC0102C0440F551F6A95D8
:10117000E2F7BA01622B60830895208181E090E05C
:10118000AC0102C0440F551F6A95E2F7BA016095A1
:10119000622360830895E42FF0E0EE0FFF1FE45513
:1011A000FD4F25913491E22FF32F408121E030E073
:1011B000F90102C0EE0FFF1F6A95E2F7BF01642339
:1011C000FC016083089584B18C6284B981E58CBD93
:1011D00008952CB530E2839FC0011124822B8CBD71
:1011E0000895823031F0883021F0803211F080345F
:1011F000A1F44CB5E82FF0E0E15EFD4F21E030E0D6
:10120000C901008002C0880F991F0A94E2F7842B5D
:101210008CBD8DB581608DBD0895843021F0803105
:1012200011F0803819F4ECB58E2B8CBD08958CB577
:1012300088608CBD08958EBD0DB407FEFDCF8EB5C0
:1012400008959091F403913081F028F09230D1F01C
:10125000933089F521C0ECEBF0E0108284EA8083C2
:1012600081E08093F40382E008950E94A00681301B
:1012700021F58091B900887F883009F582E080935C
:10128000F40308958093BB0084E88093BC0083E05E
:101290008093F40382E008950E94A006882389F0D9
:1012A0008091B900887F883111F0803461F4109208
:1012B000F40381E0089582E0089582E0089580E0DB
:1012C000089582E0089580E008959091F5039923B0
:1012D00019F09130E1F40AC08093BB0084E8809358
:1012E000BC0081E08093F50382E008950E94A0068F
:1012F000882379F08091B900887F883221F4109298
:10130000F50381E008951092F50380E0089582E0EE
:10131000089582E008959091F203913079F020F0E1
:10132000923009F045C03EC088E70E942109813013
:1013300009F040C08093F20382E008959091F30396
:10134000913079F028F09230B1F09330A9F51DC0BA
:1013500080E00E946509813089F58093F30382E083
:101360000895862F80550E946509813049F582E0F5
:101370008093F30308958F700E946509813011F501
:1013800083E08093F30382E0089582958F708061FB
:101390000E9465098130C1F41092F30382E08093CA
:1013A000F20308950E94DE061092F20381E0089590
:1013B00082E0089582E0089582E0089582E0089531
:1013C00082E0089582E0089582E008959091F60306
:1013D000913079F028F09230D9F09330A9F52EC0F1
:1013E00088E70E942109813089F58093F60382E025
:1013F000089580E40E946509813021F482E08093A1
:10140000F6030895811124C01092F60382E0089536
:101410006091F7030E94DA070E9465098130D1F4D8
:101420008091F7038F5F8093F7038630A9F483E000
:101430008093F6031092F70382E008950E94DE067F
:101440001092F60381E0089582E0089582E0089505
:1014500082E0089582E0089582E008958091EE038D
:10146000813071F018F0823049F520C08FEE93E0A2
:101470000E942612811122C081E08093EE0308951C
:101480008091F003811104C09091F103992351F0F0
:101490006091F1030E948B09813081F482E0809396
:1014A000EE03089582E08093EE0308958091EF03A8
:1014B0000E94E609813011F41092EE030895CF9353
:1014C000DF93CDB7DEB769970FB6F894DEBF0FBED6
:1014D000CDBF2091F803283148F5E091F903F0E001
:1014E000EE0FFF1FE254FD4F85919491E22FF0E043
:1014F000EE0FFF1FE80FF91F85919491682F792F48
:10150000CE0101960E94731B4091FA03609127025D
:10151000CE0101960E9403128091FA038F5F80939F
:10152000FA038091F8038F5F8093F8038091F803AA
:10153000883011F0803139F480912702845C8093E7
:1015400027021092FA038091FB038F5F8093FB03C5
:1015500080E069960FB6F894DEBF0FBECDBFDF9175
:10156000CF9108958093F9031092F80381E080935E
:1015700027021092FA0380E0089510921705109246
:101580001405E1EBF0E0808186608083E0E7F0E025
:101590008081816080831092B200109216051092B3
:1015A000150508951092B10081E080931405089507
:1015B000CF93DF93C2EBD0E0888190E09093160543
:1015C000809315050E94D20A18828881DF91CF91FD
:1015D00008951F920F920FB60F9211248F9380914E
:1015E00017058F5F809317058F910F900FBE0F9097
:1015F0001F9018959093070580930605089520E0A5
:1016000048E05BE064EF7EE088EC0E94D012089531
:101610000F931F93CF93DF931F92CDB7DEB78C014B
:10162000BE016F5F7F4F88E292E00E94B305811197
:1016300005C08981F801808380E001C081E00F90BE
:10164000DF91CF911F910F9108951092080588E9BD
:101650008093C1008EE08093C2001092C50088E0A4
:101660008093C40010920705109206056AEF7AE095
:1016700080E00E94FE13089520E030E000000000AA
:10168000000000000000000000000000000000005A
:1016900000000000000000002F5F3F4F82179307FB
:1016A00068F70895EF92FF920F931F93CF93DF9304
:1016B000FC0120812223C1F08C010F5F1F4F0F2EF0
:1016C000F6ECEF2EF12CF02DC0ECD0E0F7012083EA
:1016D000888186FFFDCF88EE93E00E943C0BF801E5
:1016E00021918F012111F2CFDF91CF911F910F91A5
:1016F000FF90EF9008958093C600E0ECF0E08081C9
:1017000086FFFDCF88EE93E00E943C0B08950F9377
:101710001F93CF93DF93C82F19E2819F112D1124BE
:1017200012951F700CE9010390011124C9018C0F5F
:10173000911D6AE070E00E943F1BD62F812F805DD3
:101740000E947B0B8D2F805D0E947B0BC05D8C2FD8
:10175000109F800D1124DD0F9D2F990F990FD90F28
:101760008D1B0E947B0BDF91CF911F910F910895EC
:101770001F920F920FB60F9211242F933F934F9306
:101780005F936F937F938F939F93AF93BF93EF93E9
:10179000FF93CF93DF931F92CDB7DEB78091C60042
:1017A000809304056091040588E292E00E949E0502
:1017B00080910405843611F410920805E091080523
:1017C000F0E080910405E150FB4F80838091080593
:1017D0008F5F8093080580910805853031F58091F1
:1017E000FF04843601F5809100058536E1F480918F
:1017F00001058236C1F4809102058537A1F48091FC
:101800000305873681F403C089810E947B0BBE01EA
:101810006F5F7F4F88E292E00E94B3058823A1F3B7
:1018200081E08093FC031092080560910605709199
:1018300007056115710559F08091FC03811107C0FE
:1018400020E048E05BE088EC0E94D01220C080914C
:10185000FC03823081F464E188E292E00E94D105C9
:101860008431A8F020E048E05BE06FEF7AE088EC9C
:101870000E94D0120CC0813051F482E08093FC03AE
:10188000BE016F5F7F4F88E292E00E94B3050F9028
:10189000DF91CF91FF91EF91BF91AF919F918F9188
:1018A0007F916F915F914F913F912F910F900FBE5C
:1018B0000F901F9018958091C00085FB882780F9B4
:1018C00091E0892708958093C6000895CF93DF9310
:1018D00080911204811137C020911304822F90E06F
:1018E000FC01EE0FFF1FE80FF91FE35DFD4F328192
:1018F000313029F5FC01EE0FFF1FE80FF91FE35D02
:10190000FD4F318131111BC0FC01EE0FFF1F8E0F07
:101910009F1FFC01E35DFD4F80810E94680580915F
:10192000130490E0FC01EE0FFF1F8E0F9F1FFC01C0
:10193000E35DFD4F81E08183809312043AC02F5F05
:101940002093130436C00E947905811132C0809122
:10195000130490E0FC01EE0FFF1FE80FF91FE35D99
:10196000FD4F2181213029F5FC01EE0FFF1F8E0F65
:101970009F1FFC01E35DFD4FC081D0E00E947D050B
:10198000CC0FDD1FC350DC4F998388832091130453
:10199000822F90E0FC01EE0FFF1F8E0F9F1FFC01B6
:1019A000E35DFD4F82E081832F5F2093130410924B
:1019B000120480911304863011F41092130480E015
:1019C00090E0DF91CF910895CF93DF9300D0CDB712
:1019D000DEB79A8389838A818695869586958770F6
:1019E000809311043091110480912D02381741F039
:1019F000E0E3F2E081E090E02081321313C002C006
:101A000080E090E0DC01AA0FBB1FA80FB91FA35D07
:101A1000BD4F11962C9180931404223099F120E04F
:101A200030E048C0019633968630910529F745C0CD
:101A300010922F0211C0822F90E0FC01EE0FFF1FC9
:101A40008E0F9F1FFC01E35DFD4F8281882321F0F3
:101A500081E08093160439C080911604811135C04D
:101A6000822F90E030911104FC01EE0FFF1FE80F70
:101A7000F91FE35DFD4F308381E082832F5F209368
:101A8000150423C0E32FF0E0EE0FFF1FE350FC4FDF
:101A9000208131813068992740911104FC01EE0FBB
:101AA000FF1F8E0F9F1FFC01E35DFD4F40831182DE
:101AB00081E08283822F932F0BC010921404209117
:101AC0001504263009F0B7CFB3CF20E030E0F2CFD5
:101AD0000F900F90DF91CF910895CF93DF9300D0B7
:101AE000CDB7DEB780E090E00E9444069A838983F8
:101AF0008A81803811F0811117C0809117048823E2
:101B000024F491E09093180404C09091180491304B
:101B100021F482508093170403C08E5F80931704D2
:101B2000809117049A8102C0898191E00F900F90F3
:101B3000DF91CF91089580E090E00895CF93DF93F7
:101B400000D01F92CDB7DEB740E062E0CE01019633
:101B50000E94CB08898190911904891308C0909143
:101B60001A049F5F90931A048093190404C0109282
:101B70001A048093190480911A048A3028F089810C
:101B800080931B0410921A0480911C048F5F809331
:101B90001C04893C28F082E08B8310921C0402C054
:101BA00083E08B8380911B049B810F900F900F909B
:101BB000DF91CF91089580E090E0089580E090E07B
:101BC0000E942E0A8FEF9FEF089510921D0480E06F
:101BD00090E00E945F0A8FEF9FEF0895982F905337
:101BE0009A3030F4E82FF0E0E15EFD4F80810895F7
:101BF000982F9154963030F4E82FF0E0E85EFD4FD6
:101C00008081089580E00895DF92EF92FF920F9314
:101C10001F93CF93DF937C018AE00E944F12D7017C
:101C20001C968C91882369F1D12CF701ED0DF11DE3
:101C3000B581DB2F80E0C82F84818E01082BD8016D
:101C4000EC91E295EF70F0E0E15CFD4F80810E9445
:101C50004F12D801EC91EF70F0E0E15CFD4F808114
:101C60000E944F1280E20E944F12D394D3942D2DE4
:101C700030E0F701848590E0880F991F2817390715
:101C8000A4F280E090E0DF91CF911F910F91FF903F
:101C9000EF90DF900895DF92EF92FF920F931F93E2
:101CA000CF93DF938C01FC01F581DF2F80E0C82FFB
:101CB000F8018481C82B8AE00E944F12F8018485C4
:101CC000882339F1D12C0F2EF6E8EF2EF5E0FF2E08
:101CD000F02DE881E295EF70F0E0E15CFD4F80814E
:101CE0000E944F12E881EF70F0E0E15CFD4F8081CF
:101CF0000E944F1280E20E944F12F801ED0DF11D7B
:101D000086818993F7011082D394F8018485D816CF
:101D100000F320E030E045E855E061E070E084E366
:101D200090E00E94D01280E090E0DF91CF911F916F
:101D30000F91FF90EF90DF900895EF92FF920F9335
:101D40001F93CF93DF938C01FC01F580E12C8481FC
:101D5000E82AE7018AE00E944F1245E063E08AE04A
:101D600093E00E940312F80186818823A1F1E881A3
:101D7000E295EF70F0E0E15CFD4F80810E944F1230
:101D8000E881EF70F0E0E15CFD4F80810E944F122E
:101D9000E881E295EF70F0E0E15CFD4F40E060E04B
:101DA00080810E941D12E991EF70F0E0E15CFD4F2F
:101DB00040E060E080810E941D1240E060E080E22F
:101DC0000E941D1280E20E944F129C2F9E19F80162
:101DD0008681981760F280E090E0DF91CF911F91AB
:101DE0000F91FF90EF900895CF92DF92EF92FF92C4
:101DF0000F931F93CF93DF9300D01F92CDB7DEB721
:101E00008C018DE99EE09B838A83D12CF12CE12CFF
:101E100031C029E02F1538F1D1100EC089810E9400
:101E2000EE0DEF2DF0E0E25EFB4F20E1829FC0015E
:101E300011248083D3941EC081E0D8120DC0CF2C12
:101E4000D12C89810E94EE0DF601E25EFB4F8F706E
:101E50009081892B808304C0D394E2E0DE120AC013
:101E6000F394DE2C07C0EF2DF0E0E25EFB4F89819A
:101E70008083F394CE010196F8010995882349F2F5
:101E800080911E048B3A71F58091210481111AC052
:101E90001092850581E0809386058A81809387056D
:101EA0008B8180938805809120048093890580919F
:101EB0001F0480938A058091220480938B05809370
:101EC00091059BC0813009F098C01092860520E0F2
:101ED00030E045E855E061E070E084E390E00E9486
:101EE000D0128BC08C3A99F58BE49EE09B838A8359
:101EF0001092850591E090938605809387058B81EC
:101F000080938805809120048093890580911F0427
:101F100080938A058091210480938B05809122040F
:101F200080938C058091230480938D0580912404F7
:101F300080938E058091250480938F0580912604DF
:101F400080939005809127048093910556C08D3F22
:101F500099F584E09EE09B838A831092850591E049
:101F600090938605809387058B8180938805809167
:101F700020048093890580911F0480938A058091B5
:101F8000220480938B058091210480938C0580919D
:101F9000240480938D058091230480938E05809185
:101FA000260480938F05809125048093900580916D
:101FB00027048093910521C08D3BF9F4109285058B
:101FC00081E0809386058A81809387058B81809349
:101FD0008805E0911F04F0E0EE0FFF1FEE0FFF1FDA
:101FE000E556FA4F808180938905818180938A0527
:101FF000838180938B05809391058981813289F457
:102000006091290470912A0470939A056093990550
:1020100020E030E045E855E089EC90E00E94D012E5
:102020000AC020E030E045E855E061E070E084E37C
:1020300090E00E94D01280E090E00F900F900F90FF
:10204000DF91CF911F910F91FF90EF90DF90CF9094
:102050000895E42FF0E0EE0FFF1FEE0FFF1FE5568F
:10206000FA4F9183808342836383089510920D0514
:1020700081E080930E0580930F0594E09093100506
:1020800095E090931105809312050895CF93DF9307
:10209000D82FC62F40E061E080E00E94A4088D2F79
:1020A0000E941B098C2F0E941B0940E061E081E027
:1020B0000E94A408DF91CF91089540E061E080E0A4
:1020C0000E94A4080E94E30880E00E94E90880E0E2
:1020D0000E94F10882E00E94170940E061E080E080
:1020E0000E94A40889E00E941B098FEF0E941B092F
:1020F00040E061E081E00E94A40840E061E080E00F
:102100000E94A4088BE00E941B0981E00E941B0929
:1021100040E061E081E00E94A40840E061E080E0EE
:102120000E94A4088CE00E941B0981E00E941B0908
:1021300040E061E081E00E94A40840E061E080E0CE
:102140000E94A4088AE00E941B0983E00E941B09E8
:1021500040E061E081E00E94A40840E061E080E0AE
:102160000E94A40887E00E941B0983E00E941B09CB
:1021700040E061E081E00E94A40840E061E080E08E
:102180000E94A4080895CF93C82F40E061E080E04A
:102190000E94A4088BE00E941B098C2F0E941B093F
:1021A00040E061E081E00E94A408CF910895FF9291
:1021B0000F931F93CF93DF93EC016FE085E00E94B4
:1021C00046106FE084E00E9446106FE083E00E94BA
:1021D00046106FE082E00E944610209719F1F12C22
:1021E000F3949E01ADECBCEC0E94531B8C01169540
:1021F00007951695079516950795A801440F551F45
:102200009801220F331F220F331F220F331F240F79
:10221000351FBE01621B730B8F2D0E944610E80113
:102220002097F1F6DF91CF911F910F91FF900895C4
:10223000CF93DF93D82FC62F90912A049F5F90935E
:102240002A04953608F45DC090912B04943008F070
:1022500054C0933081F4682F88E00E94461065E0F6
:1022600087E00E94461068E086E00E9446106FE01A
:1022700085E00E94461080912B04811110C06D2FC3
:1022800087E00E94461065E086E00E94461068E004
:1022900085E00E9446106FE088E00E944610809121
:1022A0002B04813081F46D2F86E00E94461065E09A
:1022B00085E00E94461068E088E00E9446106FE0CA
:1022C00087E00E94461080912B04823081F46D2FAC
:1022D00085E00E94461065E088E00E94461068E0B4
:1022E00087E00E9446106FE086E00E9446108091D1
:1022F0002B048F5F80932B0402C010922B0410924A
:102300002A048C2F0E94C310DF91CF910895CF93A0
:10231000DF93EC012881211121C0898190E0FC012B
:10232000EE0FFF1FE45DFB4F2181223021F440813D
:10233000322F118225C02A8140E050E067E871E128
:1023400082E30E94D012E981F0E0EE0FFF1FE45D0E
:10235000FB4F4081318181E0818312C0213081F4C3
:102360008A81E981F0E0EE0FFF1FE45DFB4F80837F
:10237000E981F0E0EE0FFF1FE45DFB4F82E0818317
:10238000842F932FDF91CF910895FC018281282F14
:102390002F5F9481291708F020E09381921781F034
:1023A00090E0DC01AA0FBB1F8A0F9B1FA081B181A7
:1023B000A80FB91F4D935D936C93228380E008951D
:1023C00082E00895FC018381582F5F5F9281891715
:1023D000C1F09481591708F050E090E0DC01AA0F99
:1023E000BB1F8A0F9B1FA081B181A80FB91F2D9120
:1023F0003D914C91DB012D933D934C93538380E0B1
:10240000089581E008951F93CF93DF93562F642F93
:10241000FC014081442361F0EC01219610E08FE53E
:1024200092E00E94C511512F612F49914111F7CFC0
:1024300081E0DF91CF911F910895562F642F482F8F
:102440008FE592E00E94C51181E00895BC018FE5FF
:1024500092E00E94E21108950E945B0C81110CC071
:1024600069E672E084E692E00E94B305811104C03F
:10247000809169020E94630C0895CF93DF93FC0161
:102480006081662349F0EC01219684E692E00E9487
:102490009E0569916111F9CFDF91CF910895682F61
:1024A00084E692E00E949E05089584E692E00E94F0
:1024B000CA05811108C020E040E050E06CE272E102
:1024C00083E00E94D012089510929B0410929A0407
:1024D00010929D0410929C04089580919E0408958A
:1024E000CF93DF9300D000D000D0CDB7DEB72983E3
:1024F0003A834B835C836D837E83FC012281422F70
:102500004F5F3481431708F040E0FC0133813417FA
:10251000B9F030E0D901AA0FBB1F2A0F3B1F220FD1
:10252000331FA081B181A20FB31F26E0FE013196B7
:1025300001900D922A95E1F7FC01428380E001C0F1
:1025400082E026960FB6F894DEBF0FBECDBFDF91B6
:10255000CF910895CF93DF93EC018B81282F2F5FCC
:102560009A818917C9F09C81291708F020E090E032
:10257000FC01EE0FFF1F8E0F9F1F880F991FE88130
:10258000F981E80FF91F86E0DB0101900D928A9531
:10259000E1F72B8380E001C081E0DF91CF910895C6
:1025A000CF93DF9300D000D000D0CDB7DEB7922F0D
:1025B000F894262F69837A838C83642F4D835E83FE
:1025C0009B83372F492F582F7E818AE692E00E9405
:1025D0007012789426960FB6F894DEBF0FBECDBF6A
:1025E000DF91CF9108950F931F93CF93DF9300D086
:1025F00000D000D0CDB7DEB78C01BE016F5F7F4F3A
:102600008AE692E00E94AA1281110AC086E0FE01C9
:102610003196D80101900D928A95E1F780E001C0D2
:1026200081E026960FB6F894DEBF0FBECDBFDF91D6
:10263000CF911F910F9108951F920F920FB60F9295
:1026400011248F939F93AF93BF938091A004909197
:10265000A104A091A204B091A3040197A105B10522
:1026600069F480919F048F5F80939F041092A0046F
:102670001092A1041092A2041092A30416BC80919F
:10268000A0049091A104A091A204B091A30401968A
:10269000A11DB11D8093A0049093A104A093A20456
:1026A000B093A304BF91AF919F918F910F900FBEF4
:1026B0000F901F901895019729F4EEE6F0E08081C5
:1026C0008160808308950E94390617B88BEF8AB91C
:1026D0005A9A5B9A7894EEE6F0E08081816080837C
:1026E00086E486BD83E085BD0E94250B0E945705C8
:1026F0000E94641281E193E00E94520B81E090E01D
:102700000E945B1381E080935F0685E89AE19093D5
:102710005D0680935C06CFE5D6E000E616E080918A
:102720009F048130B9F480916F028F5F80936F02B4
:1027300020E040E050E065E87AE181E00E94D012BC
:1027400020E040E050E061EE7AE182E00E94D012A9
:1027500010929F048CE596E00E94F31281113FC015
:1027600060915C0670915D0661157105C1F19881FB
:10277000892F8D578B3480F49F3A48F40E940714B8
:10278000FC0180915C0690915D06099528C0892F17
:102790008D5A0E94FE1323C0983C30F0D8018D91D1
:1027A0009C91FB0109951BC0892F82538B3498F4AF
:1027B0008F5F0E940714FC018EE596E009958881E1
:1027C000843369F483E00E940714FC01D8018D91E1
:1027D0009C91099504C080E090E0FB0109950E945E
:1027E0006D1280910905813021F0809109058111D8
:1027F00096CF89E095E00E940F1B91CFE82FF0E083
:10280000EE0FFF1FEE59F94F718360830895E82F93
:10281000F0E0EE0FFF1FEE59F94F8081918108958E
:102820001F93CF93C82FFB0149E2849F412D1124B0
:1028300042954F701CE9140390011124C9018C0FBB
:10284000911D6AE070E00E943F1B842F805D8083B1
:10285000862F805D8183C05D419FC00D1124660F6E
:10286000862F880F880F680FC61BC283CF911F91D8
:1028700008952091D404213009F04AC02091D50454
:10288000213079F030F02230D1F0233009F040C00F
:1028900028C00E94E70481113BC081E08093D504E9
:1028A00037C00E94810420E047E355E064EF7EE0FA
:1028B00088EC0E94D01282E08093D50429C0FC01EC
:1028C0002181213029F59093D7048093D604828109
:1028D00093819093D9048093D80483E08093D504A6
:1028E00017C0E091D604F091D7048681982F990FF4
:1028F000890F0E946D0481110BC01092D504E091E4
:10290000D804F091D9048091D6049091D704099508
:1029100080E090E008950F931F93CF93DF93CDB79E
:10292000DEB728970FB6F894DEBF0FBECDBF8091FB
:10293000A6049091A70401969093A7048093A604FF
:102940002091A8043091A904232B71F40E945D10FA
:1029500081E090E09093A9048093A80480E590E042
:102960009093AB048093AA0467E08DE090E00E940E
:1029700018112091A6043091A7042A30310509F0DE
:102980008AC04091AC042091AA043091AB04429FCC
:10299000C001439F900D112420E137E2281B390B21
:1029A0003695279536952795ABE7B4E10E94531BE2
:1029B000AC01569547951C829A013695322F2227F5
:1029C00037952795241B350B3695279536952795F2
:1029D0000E94531B8C0116950795BE016F5F7F4FB8
:1029E000842F0E94101443E050E06AE470E0CE01AE
:1029F00001960E94A10743E050E060E670E089E1A3
:102A000093E00E94A1072091AC04243188F48091C6
:102A1000AD049091AE048832910550F401969093E4
:102A2000AE048093AD041092B0041092AF0426C09F
:102A30002B3798F08091AF049091B00488329105C3
:102A400060F42F3F51F01092AE041092AD04019645
:102A50009093B0048093AF0411C01092AE04109212
:102A6000AD041092B0041092AF041092B204109210
:102A7000B10442E066E080E00E94A408C8010E9420
:102A8000D7109091700281E0892780937002109294
:102A9000A7041092A6042091AD043091AE04232B1C
:102AA00031F48091AF049091B004892BF1F08091C2
:102AB000B1049091B2048536910570F01092B20481
:102AC0001092B1049091B30481E089278093B304FC
:102AD00042E066E00E94A4088091B1049091B204A3
:102AE00001969093B2048093B1042091B404309184
:102AF000B5042230310508F457C018861F82CE0174
:102B000007960E94241B8F819885292F221F222738
:102B1000221F2D831E822130D9F4937098878F83D2
:102B20001C82BE016F5F7F4F8091AC040E94101425
:102B300040E050E06CE570E0CE0101960E94A107F4
:102B400040E050E060E770E08DE193E00E94A10773
:102B500080E098E098878F83CE0107960E94241B1F
:102B600080E090E198878F83CE0107960E94241B16
:102B70008F819885292F221F2227221F2D831E82B5
:102B8000213019F4937098878F831092B5041092B6
:102B9000B4048091B6048F3720F48F5F8093B6041D
:102BA00003C087538093B6040F37110538F4A8018A
:102BB00065E070E080E090E00E94B4078091B4048A
:102BC0009091B50401969093B5048093B40480E08D
:102BD00090E028960FB6F894DEBF0FBECDBFDF9110
:102BE000CF911F910F9108951F93CF93DF93CDB78E
:102BF000DEB727970FB6F894DEBF0FBECDBF80912A
:102C0000B7049091B80401969093B8048093B704E8
:102C10008436910509F0E8C01092A5041092B8041A
:102C20001092B7041D821E8281E08F83CE0105962B
:102C30000E9487119E838D838E81823009F0BEC0F1
:102C4000ED8185EB90E09093BB048093BA04F0E0B3
:102C50004091BC045091BD044E175F0708F042C07C
:102C6000CF01841B950B64E6689F9001699F300D2E
:102C700011242C3087E0380790F4A5E8BAE50E94CB
:102C8000531B0024880F991F001C880F991F001CDC
:102C9000892F902D9093BF048093BE0411C0369568
:102CA000279536952795A9EAB8E40E94531B880F0B
:102CB000892F881F990B91959093BF048093BE0430
:102CC0008091BE049091BF04009729F4F093BD0455
:102CD000E093BC0448C0840F951F9093BD0480937B
:102CE000BC0441C0CA018E1B9F0B64E6689F900123
:102CF000699F300D11242C3087E0380790F4A5E847
:102D0000BAE50E94531B0024880F991F001C880FEE
:102D1000991F001C892F902D9093BF048093BE04AF
:102D200011C03695279536952795A9EAB8E40E94F3
:102D3000531B880F892F881F990B91959093BF047F
:102D40008093BE048091BE049091BF04009729F443
:102D5000F093BD04E093BC0406C0481B590B50938C
:102D6000BD044093BC048091BC049091BD04809349
:102D7000C0049093C104809376068093AC0414E65B
:102D80001093A40482E395E3A5E3B0E089839A83DA
:102D9000AB83BC83BE016F5F7F4F8D810E94101497
:102DA0001C8240E050E060E070E180E090E00E9432
:102DB000EE011092B9041093A40416C08091B904D6
:102DC0008F5F8093B9048A3078F040E050E062E091
:102DD00070E180E090E00E94EE018FEF8093760634
:102DE0008093AC041092A40480E090E027960FB684
:102DF000F894DEBF0FBECDBFDF91CF911F91089534
:102E00000E9411028091C2048F5F8093C20460917E
:102E1000AC042091C404233030F16F3F21F1862FA0
:102E200090E030E0A9014D5F5F4F841795076CF08B
:102E3000235031092817390744F06093C404809166
:102E4000C50481508093C5040EC08091C5048F5F76
:102E5000843118F48093C50406C01092C50480E242
:102E600093E00E94271B8091C2048430A0F08091DF
:102E7000C3048F5F8093C3049091AC04981748F407
:102E800080917102882319F08A5080937102109208
:102E9000C3041092C20480E090E00895CF93DF93C2
:102EA00000D01F92CDB7DEB7198281E08A8382E01D
:102EB0008B83CE0101960E948711882329F080918F
:102EC000C6048F5F8093C6048091C604893C10F0CD
:102ED0001092C6048091C7049091C8040196909303
:102EE000C8048093C70484369105B8F08091C90462
:102EF0009091CA04A091CB04B091CC040196A11D7D
:102F0000B11D8093C9049093CA04A093CB04B093DD
:102F1000CC041092C8041092C7040F900F900F9029
:102F2000DF91CF910895CF93DF9300D000D0CDB73C
:102F3000DEB78091CD048F5F8093CD04893C99F4F6
:102F40008091C9049091CA04A091CB04B091CC04A3
:102F50000196A11DB11D8093C9049093CA04A0934A
:102F6000CB04B093CC048091CE048111A2C0809197
:102F7000CF0482FD11C09091D00491110DC00E9428
:102F8000EC0381117BC08091CF0484608093CF04D7
:102F900081E08093D0047AC083FD12C08091D00478
:102FA000813009F06BC00E94E704811167C08091F5
:102FB000CF0488608093CF0482E08093D00466C001
:102FC0008091D004823009F059C00E9481040E948F
:102FD0000F05813009F052C08091D1049091D20444
:102FE00001969093D2048093D1048139914008F4E2
:102FF00045C084E20E946D04811140C01092D30448
:103000001092D2041092D10482E395E3A5E3B0E0DC
:1030100089839A83AB83BC838091A404843631F581
:10302000BE016F5F7F4F8091AC040E94101482E359
:1030300093E00E94271B82EC92E00E94271B86E40B
:1030400093E00E94271B82EC92E00E94271B8EE4F3
:1030500093E00E94271B82EC92E00E94271B83E0F2
:103060008093D00481E08093D40408C0CE010196FF
:103070000E94271B82EC92E00E94271B8091D004C3
:10308000833021F480E090E00E9439140E945203C2
:1030900081110FC081E08093CE0440E050E068E2EF
:1030A00070E380E090E00E94EE0186E593E00E94EC
:1030B000271B0E947504811116C08FE593E00E94C2
:1030C000271B1092CE048091CF048B7F877F809343
:1030D000CF041092D00440E050E060E070E380E064
:1030E00090E00E94EE010F900F900F900F90DF91F3
:1030F000CF91089541E061E080E00E947D0841E0C9
:1031000062E080E00E947D0840E060E081E00E9493
:103110007D0880E090E0089540E061E081E00E9459
:103120007D0840E060E081E00E947D0842E067E0C9
:1031300081E00E947D0880E090E0089587E693E0BA
:103140000E94520B0E946D120E94870B80E090E05B
:1031500008958091DA049091DB0401969093DB044A
:103160008093DA04853F914040F081E793E00E942C
:10317000271B1092DB041092DA0440E062E080E04A
:103180000E947D0842E066E081E00E947D0840E008
:1031900062E081E00E94A40842E066E080E00E94D4
:1031A000A40880E090E008950F931F93CF93DF93DE
:1031B00000D0CDB7DEB72FE78AE196E021508040FE
:1031C0009040E1F700C000000E94250B20E040E0A5
:1031D00050E063E472E08DE70E94D01220E040E00E
:1031E00050E067E871E18FEA0E94D01289E394E130
:1031F0009A838983CE0101960E944E0540E061E0EA
:103200008CEA94E00E9429100E94970688E790E0DB
:103210000E94A7060E94870B0E9444070E94870B0A
:103220000E944B070E94870B00E014E00E944B07AE
:1032300001501109D9F740E050E060E070E087E705
:1032400093E00E94A10741E050E064E470E083E86D
:1032500093E00E94A1072FEF88E09DE3215080407A
:103260009040E1F700C0000000E014E00E944B072E
:1032700001501109D9F70E94DC0284E38093DC0439
:1032800080E38093CD0486E38093DD0480E090E0CA
:103290000F900F90DF91CF911F910F910895809122
:1032A000FE04813011F00E9412050895CF93DF9340
:1032B00000D000D0CDB7DEB782E395E3A5E3B0E060
:1032C00089839A83AB83BC838091DE04813089F04B
:1032D00030F0823069F1833009F045C037C080E0BA
:1032E00090E00E94B20A8091DE048F5F8093DE043A
:1032F0003AC08091DF048F5F8093DF04BE016F5F6F
:103300007F4F8091AC040E9410141C8242E062E462
:10331000CE0101960E9403128091DF048B3F18F1C9
:103320001092DF048091DE048F5F8093DE041BC067
:1033300081E090E00E94B20A8EE893E00E94520B76
:103340008091DE048F5F8093DE040DC08091DF04E6
:103350008F5F833318F48093DF0405C01092DF047D
:1033600084E08093DE040F900F900F900F90DF9118
:10337000CF910895FC01808190E0DC01AA0FBB1F72
:10338000AA0FBB1F8A0F9B1FDC01A052BB4F82817B
:1033900093818D939C932181808190E0DC01AA0F21
:1033A000BB1FAA0FBB1F8A0F9B1FDC01A052BB4F84
:1033B00012962C93808190E0DC01AA0FBB1FAA0F0C
:1033C000BB1F8A0F9B1FDC01A052BB4F1496FC93BE
:1033D000EE9313970895FC01808190E00197FC0122
:1033E000EE0FFF1FEE0FFF1FEE0FFF1FE81BF90B85
:1033F000EE58FD4F81E0858308957F928F929F92D2
:10340000AF92BF92CF92DF92EF92FF920F931F93F2
:10341000CF93DF9300D000D01F92CDB7DEB780915D
:10342000FB0481114CC007E712E00F2EFCE8EF2EE1
:10343000F2E0FF2EF02DF8018081813029F43397DE
:103440000190F081E02D0995095F1F4F0E151F05B2
:1034500091F781E08093FB0432C05801F80180812C
:103460008F5F8083F7019081913001F5F8013297E9
:1034700090818917D8F0F80136970190F081E02DFE
:1034800009959D838C838D8180FD0EC07982869500
:103490008A838C818B8382E00E940714FC01CE0119
:1034A00001960995F7011082F5011082095F1F4FFF
:1034B000F7E0EF0EF11C0C151D0579F611C008E7B9
:1034C00012E00F2EF7E7EF2EF2E0FF2EF02D0F2E79
:1034D000FDE8CF2EF2E0DF2EF02D77247394BDCFE0
:1034E00080E090E00F900F900F900F900F90DF9181
:1034F000CF911F910F91FF90EF90DF90CF90BF90F1
:10350000AF909F908F907F900895EF92FF920F93CE
:103510001F93CF93DF938091F90481113EC06BEE2E
:1035200079E181E00E94FE136AEB79E183E00E9479
:10353000FE130E943610CCE8D2E004EC12E0888141
:10354000813031F4FE0133970190F081E02D09952F
:103550002796C017D10799F781E08093F9048093EB
:10356000FA040E94560519C088818F5F8883FE0186
:1035700031979081913061F4FE01329790818917E3
:1035800038F0FE0136970190F081E02D0995188200
:103590002796CE15DF0541F709C0CDE8D2E00F2E02
:1035A000F5ECEF2EF2E0FF2EF02DDECF0E94660C40
:1035B00080E090E0DF91CF911F910F91FF90EF900D
:1035C00008950F931F93CF93DF93C2EED4E00BEFD8
:1035D00014E08091FC049091FD0401969093FD0409
:1035E0008093FC042881213079F48538934060F081
:1035F000FE0132970190F081E02D89819A81099531
:103600001092FD041092FC042596C017D10709F70B
:1036100080E090E0DF91CF911F910F910895CF93BB
:10362000DF93EC010E94DE0D8091FA04813019F4E1
:10363000CE010E944F198091FE04813011F48093D5
:10364000AF02DF91CF9108950E94391B08950E9427
:103650003C1B0895CF93DF93EC01888199810E94F0
:10366000E40C99838883DF91CF9108950E943D12E5
:1036700008950E942A1B08950E94361B089597FB07
:10368000072E16F4009407D077FD09D00E945F1B27
:1036900007FC05D03EF4909581959F4F0895709555
:1036A00061957F4F0895A29FB001B39FC001A39F72
:1036B00001D0B29F700D811D1124911D0895AA1B88
:1036C000BB1B51E107C0AA1FBB1FA617B70710F00D
:1036D000A61BB70B881F991F5A95A9F7809590953F
:1036E000BC01CD010895FB01DC0105900D92002085
:1036F000E1F70895FB01DC018D9101908019011023
:0A370000D9F3990B0895F894FFCF58
:10370A00000077062000C30196010000000A009A13
:10371A0003A90100000064000F0296010000006482
:10372A0000010296010000006400ED01960100000C
:10373A00006400E201960100000064009A0391010E
:10374A000000006400B7018F010000006400B001AE
:10375A009601000000E80399019601000000E803C1
:10376A009A037801000000E8039A03880100000028
:10377A00E803F20200F80200574946492044495337
:10378A00434F4E4E45435400235561727423003E05
:10379A00002B495044004F4B0041542B434950439E
:1037AA004C4F53453D300D0A00474F5420495000B5
:1037BA004E494B48494C0041542B43495053454EBE
:1037CA00443D0041542B43574A41503D226E696B98
:1037DA0068696C222C223132333435363738220D5F
:1037EA000A0041542B43494653520D0A0041542BB7
:1037FA004349505345525645523D312C38300D0AF3
:10380A000041542B4349504D55583D310D0A004152
:10381A00542B43574D4F44453D330D0A00010200D6
:10382A0001020300010203012105000064FF0000F8
:10383A00FF0000FF0000FF0000FF0000FF00003053
:10384A0031323334353637383941424344454600FC
:10385A000102030405060708090A0B0C0D0E0FAF37
:10386A0005000015360400006426EE0500000F016D
:10387A00016E6D0D9B0D0100009E0DDB0D01000018
:10388A00E50DDB0D0101008B147A18050000F41513
:10389A008C1801010000179E180501004E17A9187F
:1038AA000501009317D41805010056198C18050153
:1038BA000055125512050000FD19FD190501002CCD
:1038CA00000D0A0043757272656E742076616C751C
:1038DA00653A0020206368616E6765642076616CD2
:1038EA0075653A00680074657374320074657374A0
:1038FA0031005354415254004441494723007377DD
:10390A006974636820726561640056616C75653A12
:10391A0000776F726B696E6700272F2E00636D0048
:10392A0053656E736F722063616C6962726174654C
:10393A0064005761746572204C6576656C204D6F22
:10394A006E69746F7200312E4C6576656C00322E8A
:10395A00446562756700484552454F66660A0048E5
:10396A004552454F4E0A00496E206F70656E2033EE
:10397A00006F70656E34005761746572204C65760D
:10398A00656C00436F6E74726F6C6C65720068725E
:02399A006500C6
:00000001FF
