:100000000C943D000C9465040C945A000C945A0016
:100010000C945A000C945A000C945A000C945A00F8
:100020000C945A000C941B070C945A000C945A0020
:100030000C945A000C945A000C945A000C945A00D8
:100040000C94A40E0C945A000C94E6070C945A00DD
:100050000C945A000C94F5030C94BD050C945A00B2
:100060000C945A000C945A00230026002900240006
:1000700027002A00250028002B0011241FBECFEFE7
:10008000D8E0DEBFCDBF13E0A0E0B1E0EAECFBE2D8
:1000900002C005900D92A635B107D9F725E0A6E577
:1000A000B3E001C01D92AA3DB207E1F70E94EB0E3A
:1000B0000C94E3150C9400009B013327E091560348
:1000C000F0E0E217F30768F4809357036093560358
:1000D0006627707F709359036093580340935A03C7
:1000E0000895232B59F46627707F809158039091CF
:1000F00059036817790711F4109256030895609117
:100100005603662331F120915B0330915C0388EE46
:1001100093E070E00E94A6152617370798F090919B
:100120005D0381E0892780935D0340915A036091CC
:1001300057030E94720681E090E090935C038093E5
:100140005B0308952F5F3F4F30935C0320935B0365
:10015000089540915A036091570380E00E9472060F
:1001600008954F925F926F927F928F929F92AF927B
:10017000BF92CF92DF92EF92FF920F931F93CF9394
:10018000DF931F92CDB7DEB77C0186E289830F2E05
:10019000FCE0AF2EF1E0BF2EF02D0F2EFBE0CF2EB6
:1001A000F1E0DF2EF02D08E711E0512C752C992499
:1001B00093944AC0C901D90112974C91413011F56D
:1001C000663201F1AF016080D90114970D90BC91A6
:1001D000A02DA60DB11DAC916A130FC0D9014C9092
:1001E000641410F463946082DA014C91DC018C9108
:1001F000481308C0872C792D05C0D9018C91681649
:1002000008F41082275F3F4F39962017310791F687
:1002100070935F03809260037130B1F489818632FC
:1002200009F1E82DF0E0EF59FC4F8083982D9F5F96
:10023000909360039C3111F08A3031F450925F0347
:100240005092600390928003CE010196F7010995C8
:1002500081110CC0698170915F03809060039501EA
:10026000F601A8CFFCE18F12EFCFE8CF80E090E05D
:100270000F90DF91CF911F910F91FF90EF90DF9042
:10028000CF90BF90AF909F908F907F906F905F9036
:100290004F900895CF93DF93ECE0F1E088E791E091
:1002A000EF012497A881B981ED0109900020E9F7B9
:1002B0002197CA1BDB0BC0833996E817F90781F732
:1002C00081E0809364018093130180936D01DF913D
:1002D000CF9108951F93CF93DF9300D000D0CDB777
:1002E000DEB78091840389831A82CE0101960E9431
:1002F0008E158AEA92E00E948E1520918503309136
:100300008603E22F49E2249F412D112442954F702C
:100310001CE91403C0011124820F911D6AE070E0F2
:100320000E94A615842F805D8983862F805D8A8335
:10033000E05D419FE00D1124660F962F990F990FF4
:10034000690FE61BEB831C822A3031051CF4E9831C
:100350001A8206C0243631051CF48983EA831B8285
:10036000CE0101960E948E158CEA92E00E948E15B5
:100370000F900F900F900F90DF91CF911F910895E4
:100380009091650180916601981304C010926501F7
:1003900080E0089582E00895813029F4109283036B
:1003A000109282030BC0823049F4809182039091B5
:1003B0008303019690938303809382038091820349
:1003C0009091830308950F931F93CF93DF93C82FCA
:1003D00080918103811127C00C2F10E0F801EE0FEE
:1003E000FF1FEE0FFF1FEE0FFF1FE00FF11FEA5F71
:1003F000FE4F808191810E948E15C73011F40E94BA
:100400006A01F801EE0FFF1FEE0FFF1FEE0FFF1F37
:100410000E0F1F1FF801EA5FFE4F81E08483809377
:1004200081030E94CC01D0E0FE01EE0FFF1FEE0F12
:10043000FF1FEE0FFF1FEC0FFD1FEA5FFE4F9581C0
:100440008681981311C0FE01EE0FFF1FEE0FFF1FF4
:10045000EE0FFF1FEC0FFD1FEA5FFE4F14821582A7
:100460001092810310E001C011E082E00E94CC01F3
:10047000FE01EE0FFF1FEE0FFF1FEE0FFF1FEC0F31
:10048000FD1FEA5FFE4F278130852817390760F48A
:1004900014821582109283031092820310928103BA
:1004A00081E00E94CC0112E0812FDF91CF911F915A
:1004B0000F91089580918703811106C084E0809395
:1004C000880381E080938703809188030E94E30181
:1004D00081110BC0809188038F5F809388038630E1
:1004E00089F51092870380E00895823069F5809144
:1004F0008903853000F120918803223031F4109275
:1005000089031092870382E017C0E22FF0E0CF0149
:10051000880F991F880F991F880F991FE80FF91FDF
:10052000EA5FFE4F148215822150209388031092B7
:10053000890381E001C081E0909189039F5F9093DE
:100540008903089581E0089581E00895FC01E60F94
:10055000F11D2081222389F0241306C002C0241338
:1005600003C0862F8F5F08956F5FFC01E60FF11DBA
:1005700020812111F4CF80E0089580E00895421792
:1005800070F4FB0130E0DC01A40FB11D5C915193CC
:100590003F5F4F5F421720F43430A9F701C030E0CD
:1005A000FC01E40FF11D8081FB01E30FF11D80834D
:1005B00030939C030895809385031092860387E00F
:1005C0000E94E30108959091140180911501981300
:1005D00004C01092140180E0089582E008950F9302
:1005E0001F93CF93DF9380918003813009F048C03F
:1005F00080934001109241014CE260E081E693E07B
:100600000E94A602C82F4CE2682F81E693E00E9468
:10061000A602082F282F4C2F6DE873E081E693E0A7
:100620000E94BF02CDE8D3E08881809384034AE32F
:10063000602F81E693E00E94A602182F282F402FFA
:10064000BE0181E693E00E94BF02C881C0939F0370
:1006500080918E038093A00310939E03C10FC093DB
:100660009D032C2F412F6DE873E081E693E00E94FB
:10067000BF02EC2FF0E0E557FC4F10821092800390
:1006800090916E0180916F01981303C081E0809377
:10069000A004DF91CF911F910F91089580918A035B
:1006A000811108C086E080938B0381E080938A03E8
:1006B00080938C0380911D02882339F086E00E948C
:1006C000E30180931D0281E00895809180038130D1
:1006D00059F410928A0310928C030E94EF0281E079
:1006E00080931D0280E0089581E008958091740157
:1006F000089560917201709173018DE893E00E94FA
:10070000DA15282F392F232B21F481E080937401EF
:1007100002C01092740160917501709176018DE8AC
:1007200093E00E94DA15282F392F232B19F010920D
:100730007701089581E080937701089521E2209365
:100740007F032091A903E22FF0E0EF59FC4F37819E
:10075000FC013083273121F41092A90381E0089530
:100760002F5F2093A90380E00895FC01208120934E
:100770007D03818180937E0308950895EAE7F0E088
:10078000808187608083ACE7B0E08C91806C8C9333
:100790008C9180628C938081886080830895EAE7E1
:1007A000F0E0908190689083ACE7B0E09C91987FF6
:1007B0009C939C91892B8C93808180648083089585
:1007C00080917A008074089580917800209179005A
:1007D000829586958695837030E0220F331F220F15
:1007E000331F282B822F932F08951F920F920FB63D
:1007F0000F9211248F9380917800809179008F91CE
:100800000F900FBE0F901F901895FC019281892FB9
:100810008F5F2481821708F080E02381281741F040
:10082000A081B181A90FB11D6C93828380E00895EE
:1008300082E00895FC018381982F9F5F22818217B7
:1008400071F02481921708F090E0A081B181A80F87
:10085000B11D8C91DB018C93938380E0089581E03E
:100860000895FC0181E023819281291380E008959D
:10087000FC0193818281891720F42481820F891BD6
:100880000895891B089542E067E080E00E947206A7
:1008900000C042E067E081E00E94720600C000C034
:1008A000000042E067E080E00E9472060895813017
:1008B00031F4E9E6F0E08081816080830895E9E623
:1008C000F0E080818160808308951F920F920FB6BF
:1008D0000F9211242F933F934F935F936F937F93C6
:1008E0008F939F93AF93BF93EF93FF938091AA034E
:1008F00081110AC00E94EF0680E090E00E94570438
:1009000081E08093AA030BC00E940A0781E090E077
:100910000E9457041092AA0381E08093AB03FF91D9
:10092000EF91BF91AF919F918F917F916F915F9167
:100930004F913F912F910F900FBE0F901F901895E0
:1009400081E090E00E945704E89A1092AA0381E0A7
:100950008093AB030895CF93DF93EC018091AC03B8
:10096000823060F081E00E9457040E94430410929C
:10097000AB031092AA031092AC033BC09091AB035F
:10098000913099F52091B9048091B7049091B80401
:100990003FEF239F800D911D11249093B804809305
:1009A000B7042091B7043091B80422953295307F76
:1009B0003227207F3227AFE9B6E40E94BA1592951C
:1009C00082958F7089279F7089279093B8048093B0
:1009D000B704C091B704D091B804D0681092AC03AA
:1009E0001092AB030E94430404C0D0618F5F8093D8
:1009F000AC038C2F9D2FDF91CF910895ECEBF0E0AD
:100A0000108294EA908390819923ECF79091B90039
:100A1000987F9830A1F48093BB0084E88093BC0059
:100A2000ECEBF0E080818823ECF79091B900987F9F
:100A3000983139F081E0903429F480E0089581E024
:100A4000089580E008958093BB0084E88093BC0003
:100A5000ECEBF0E080818823ECF79091B900987F6F
:100A600081E0983209F480E0089584E98093BC0025
:100A700008951F93CF93DF93C82F88E70E94FE0449
:100A800081111BC080E40E942305C0528C2F90E08E
:100A9000EC01CC0FDD1F8C0F9D1FEC01CC0FDD1F77
:100AA000C751DD4F10E089910E942305811105C0D7
:100AB0001F5F1630C1F70E943505DF91CF911F915E
:100AC0000895CF93DF93C82FD62F88E70E94FE04A6
:100AD000811112C00E9423058D2F80550E9423058D
:100AE0008C2F8F700E9423058C2F82958F708061D0
:100AF0000E9423050E943505DF91CF910895CF9381
:100B0000DF93EC01862F642F0E9461058881882382
:100B100031F021960E94390589918111FBCFDF9137
:100B2000CF910895CF93DF93D42F0E94610588E77A
:100B30000E94FE04811119C080E40E942305D11196
:100B400002C0CD2F0AC0C0E08FEF0E942305CF5F07
:100B5000CD13FACFDF37A8F306C081E00E9423054A
:100B6000CF5FCF37D0F30E943505DF91CF91089545
:100B7000FB9882E080931E0208951F920F920FB699
:100B80000F9211242F933F934F935F936F937F9313
:100B90008F939F93AF93BF93EF93FF938091BF0485
:100BA000811127C08091C204882301F181E08093E4
:100BB0001E028091BD049091BE0492BD81BD01963C
:100BC0009093BE048093BD048091C20481508093B1
:100BD000C2048091C204E091BB04F091BC04E80F10
:100BE000F11D808180BDFA9AF99A44C00E94B8052F
:100BF00041C02091BD043091BE048091C004909109
:100C0000C1048217930750F181E080931E02809106
:100C1000BD049091BE0492BD81BD01969093BE0427
:100C20008093BD04F89A9091BA0480B5E091BB041A
:100C3000F091BC04E90FF11D80838091BA04E0912A
:100C4000BB04F091BC04E80FF11D80810E94900765
:100C50008091BA0481508093BA040CC08FEE92E068
:100C60000E94BD070E94B8051092BA041092C104F8
:100C70001092C004FF91EF91BF91AF919F918F911E
:100C80007F916F915F914F913F912F910F900FBE88
:100C90000F901F901895E42FF0E0EE0FFF1FE25920
:100CA000FF4F25913491E22FF32F813069F4208199
:100CB00081E090E0AC0102C0440F551F6A95E2F755
:100CC000BA01622B60830895208181E090E0AC013D
:100CD00002C0440F551F6A95E2F7BA01609562237E
:100CE00060830895E42FF0E0EE0FFF1FEC58FF4FF4
:100CF00025913491E22FF32F813069F4208181E036
:100D000090E0AC0102C0440F551F6A95E2F7BA01AA
:100D1000622B60830895208181E090E0AC0102C0E5
:100D2000440F551F6A95E2F7BA016095622360830C
:100D30000895E42FF0E0EE0FFF1FE859FF4F2591D3
:100D40003491E22FF32F408121E030E0F90102C01D
:100D5000EE0FFF1F6A95E2F7BF016423FC01608379
:100D6000089584B18C6284B981E58CBD08952CB559
:100D700030E2839FC0011124822B8CBD0895823004
:100D800031F0883021F0803211F08034A1F44CB57C
:100D9000E82FF0E0E15EFD4F21E030E0C901008086
:100DA00002C0880F991F0A94E2F7842B8CBD8DB581
:100DB00081608DBD0895843021F0803111F080383C
:100DC00019F4ECB58E2B8CBD08958CB588608CBD64
:100DD00008958EBD0DB407FEFDCF8EB50895109217
:100DE000B9041092B604E1EBF0E080818660808364
:100DF000E0E7F0E08081816080831092B200109281
:100E0000B8041092B70408951092B10081E0809365
:100E1000B6040895CF93DF93C2EBD0E0888190E0D1
:100E20009093B8048093B7040E94040718828881C5
:100E3000DF91CF9108951F920F920FB60F92112458
:100E40008F938091B9048F5F8093B9048F910F9035
:100E50000FBE0F901F9018959093A9048093A8043B
:100E600008950F931F93CF93DF931F92CDB7DEB7F3
:100E70008C01BE016F5F7F4F87E292E00E941A04EF
:100E8000811105C08981F801808380E001C081E083
:100E90000F90DF91CF911F910F91089520E041E3D2
:100EA00057E063EE7AE088EC0E94580E08951092A5
:100EB000AA0488E98093C1008EE08093C20010925A
:100EC000C50088E08093C4001092A9041092A80481
:100ED0006CE277E080E00E94860F089520E030E029
:100EE0000000000000000000000000000000000002
:100EF0000000000000000000000000002F5F3F4FD6
:100F00008217930768F708958093C600E0ECF0E03D
:100F1000808186FFFDCF88EE93E00E946E070895E2
:100F2000CF93DF93282F39E2839F312D11243295FF
:100F30003F704CE94303C0011124820F911D6AE008
:100F400070E00E94A615D62F205DC22F349FC00DE1
:100F5000112480E3830F0E94840780E38D0F0E9499
:100F60008407DD0F8D2F880F880FD80F8C2F8D1BD6
:100F70000E948407DF91CF910895EF92FF920F9323
:100F80001F93CF93DF93FC0190819923C1F08F01D0
:100F90000F5F1F4F0F2EF6ECEF2EF12CF02DC0EC53
:100FA000D0E0F7019083888186FFFDCF88EE93E043
:100FB0000E946E07F80191918F019111F2CFDF919C
:100FC000CF911F910F91FF90EF9008951F920F9274
:100FD0000FB60F9211242F933F934F935F936F930C
:100FE0007F938F939F93AF93BF93EF93FF93CF9391
:100FF000DF931F92CDB7DEB78091C6008093A60421
:101000006091A60487E292E00E9405048091A60404
:10101000843611F41092AA04E091AA04F0E08091C1
:10102000A604EF55FB4F80838091AA048F5F8093C5
:10103000AA048091AA04853031F58091A1048436F8
:1010400001F58091A2048536E1F48091A3048236F3
:10105000C1F48091A4048537A1F48091A50487365A
:1010600081F403C089810E948407BE016F5F7F4FB6
:1010700087E292E00E941A048823A1F381E0809322
:10108000AD031092AA046091A8047091A90461159F
:10109000710559F08091AD03811107C020E041E353
:1010A00057E088EC0E94580E20C08091AD0382303A
:1010B00081F464E187E292E00E9438048431A8F070
:1010C00020E041E357E06EE477E088EC0E94580EA0
:1010D0000CC0813051F482E08093AD03BE016F5F9C
:1010E0007F4F87E292E00E941A040F90DF91CF9128
:1010F000FF91EF91BF91AF919F918F917F916F91F0
:101100005F914F913F912F910F900FBE0F901F90C5
:1011100018958091C00085FB882780F991E0892788
:1011200008958093C6000895CF93DF938091C30301
:10113000811137C02091C403822F90E0FC01EE0F93
:10114000FF1FE80FF91FE45DFD4F3281313029F5B3
:10115000FC01EE0FFF1FE80FF91FE45DFD4F318129
:1011600031111BC0FC01EE0FFF1F8E0F9F1FFC01F2
:10117000E45DFD4F80810E94CF038091C40390E025
:10118000FC01EE0FFF1F8E0F9F1FFC01E45DFD4F62
:1011900081E081838093C3033AC02F5F2093C4030F
:1011A00036C00E94E003811132C08091C40390E0F8
:1011B000FC01EE0FFF1FE80FF91FE45DFD4F2181D9
:1011C000213029F5FC01EE0FFF1F8E0F9F1FFC0140
:1011D000E45DFD4FC081D0E00E94E403CC0FDD1F31
:1011E000C255DC4F998388832091C403822F90E0FD
:1011F000FC01EE0FFF1F8E0F9F1FFC01E45DFD4FF2
:1012000082E081832F5F2093C4031092C3038091F7
:10121000C403863011F41092C40380E090E0DF91A3
:10122000CF910895CF93DF9300D0CDB7DEB79A83E7
:1012300089838A8186958695869587708093C20377
:101240003091C20380912C02381741F0EFE2F2E0B6
:1012500081E090E02081321313C002C080E090E072
:10126000DC01AA0FBB1FA80FB91FA45DBD4F1196CB
:101270002C918093C503223099F120E030E048C0E2
:10128000019633968630910529F745C010922E02BB
:1012900011C0822F90E0FC01EE0FFF1F8E0F9F1FE9
:1012A000FC01E45DFD4F8281882321F081E0809381
:1012B000C70339C08091C703811135C0822F90E0E8
:1012C0003091C203FC01EE0FFF1FE80FF91FE45D30
:1012D000FD4F308381E082832F5F2093C60323C0BC
:1012E000E32FF0E0EE0FFF1FE255FC4F208131812C
:1012F000306899274091C203FC01EE0FFF1F8E0F4B
:101300009F1FFC01E45DFD4F4083118281E08283D9
:10131000822F932F0BC01092C5032091C603263055
:1013200009F0B7CFB3CF20E030E0F2CF0F900F90AD
:10133000DF91CF910895CF93DF9300D0CDB7DEB783
:1013400080E090E00E94AB049A8389838A81803890
:1013500011F0811108C08091C803982F9F5F90936E
:10136000C8039A8102C0898191E00F900F90DF91AC
:10137000CF91089580E090E00895CF93DF9300D05F
:101380001F92CDB7DEB740E062E0CE0101960E9429
:10139000990689819091C903891308C09091CA0365
:1013A0009F5F9093CA038093C90304C01092CA033D
:1013B0008093C9038091CA038A3028F08981809381
:1013C000CB031092CA038091CC038F5F8093CC0330
:1013D000893C28F082E08B831092CC0302C083E02A
:1013E0008B838091CB039B810F900F900F90DF91A7
:1013F000CF91089580E090E00895982F90539A300F
:1014000030F4E82FF0E0E25EFD4F80810895982FE0
:101410009154963030F4E82FF0E0E95EFD4F808182
:10142000089580E00895DF92EF92FF920F931F934B
:10143000CF93DF937C018AE00E94D70DD7011C96E1
:101440008C91882369F1D12CF701ED0DF11DB58147
:10145000DB2F80E0C82F84818E01082BD801EC910E
:10146000E295EF70F0E0E25CFD4F80810E94D70DC5
:10147000D801EC91EF70F0E0E25CFD4F80810E94BA
:10148000D70D80E20E94D70DD394D3942D2D30E058
:10149000F701848590E0880F991F28173907A4F277
:1014A00080E090E0DF91CF911F910F91FF90EF903E
:1014B000DF900895EF92FF920F931F93CF93DF93E6
:1014C0008C01FC01F580E12C8481E82AE7018AE0A7
:1014D0000E94D70DF80186818823D1F0E881E2953A
:1014E000EF70F0E0E25CFD4F80810E94D70DE99142
:1014F000EF70F0E0E25CFD4F80810E94D70D80E24A
:101500000E94D70D9C2F9E19F8018681981730F301
:1015100080E090E0DF91CF911F910F91FF90EF90CD
:101520000895DF92EF92FF920F931F93CF93DF9373
:101530008C01FC01F581DF2F80E0C82FF801848148
:10154000C82B8AE00E94D70DF8018485882339F1E1
:10155000D12C0F2EF8E2EF2EF5E0FF2EF02DE881D2
:10156000E295EF70F0E0E25CFD4F80810E94D70DC4
:10157000E881EF70F0E0E25CFD4F80810E94D70DC2
:1015800080E20E94D70DF801ED0DF11D868189934F
:10159000F7011082D394F8018485D81600F320E077
:1015A00030E047E255E061E070E084E390E00E94C3
:1015B000580E80E090E0DF91CF911F910F91FF9046
:1015C000EF90DF900895CF92DF92EF92FF920F930A
:1015D0001F93CF93DF9300D01F92CDB7DEB78C015E
:1015E0008AE59AE09B838A83D12CF12CE12C31C0CF
:1015F00029E02F1538F1D1100EC089810E94FD0914
:10160000EF2DF0E0E353FC4F20E1829FC001112455
:101610008083D3941EC081E0D8120DC0CF2CD12C72
:1016200089810E94FD09F601E353FC4F8F70908180
:10163000892B808304C0D394E2E0DE120AC0F394C5
:10164000DE2C07C0EF2DF0E0E353FC4F898180834F
:10165000F394CE010196F8010995882349F280910F
:10166000CD038B3A71F58091D00381111AC010928D
:10167000270581E0809328058A81809329058B8145
:1016800080932A058091CF0380932B058091CE0310
:1016900080932C058091D10380932D058093330591
:1016A0009BC0813009F098C01092280520E030E0FE
:1016B00047E255E061E070E084E390E00E94580E5C
:1016C0008BC08C3A99F581E99AE09B838A831092CA
:1016D000270591E090932805809329058B818093BD
:1016E0002A058091CF0380932B058091CE038093B0
:1016F0002C058091D00380932D058091D103809398
:101700002E058091D20380932F058091D30380937F
:1017100030058091D403809331058091D503809367
:1017200032058091D6038093330556C08D3F99F5DD
:1017300083E19AE09B838A831092270591E090933E
:101740002805809329058B8180932A058091CF03FA
:1017500080932B058091CE0380932C058091D1033B
:1017600080932D058091D00380932E058091D30323
:1017700080932F058091D203809330058091D5030B
:10178000809331058091D403809332058091D603F4
:101790008093330521C08D3BF9F41092270581E039
:1017A000809328058A81809329058B8180932A055F
:1017B000E091CE03F0E0EE0FFF1FEE0FFF1FE35CA2
:1017C000FA4F808180932B05818180932C05838142
:1017D00080932D05809333058981813289F460914E
:1017E000D8037091D90370933C0560933B0520E0CA
:1017F00030E047E255E089EC90E00E94580E0AC0C4
:1018000020E030E047E255E061E070E084E390E002
:101810000E94580E80E090E00F900F900F90DF91A3
:10182000CF911F910F91FF90EF90DF90CF9008958F
:10183000E42FF0E0EE0FFF1FEE0FFF1FE35CFA4F07
:10184000918380834283638308951092AF0481E083
:101850008093B0048093B10494E09093B20495E037
:101860009093B3048093B4040895CF93DF93D82F5B
:10187000C62F40E061E080E00E9472068D2F0E943A
:10188000E9068C2F0E94E90640E061E081E00E94B9
:101890007206DF91CF91089540E061E080E00E9400
:1018A00072060E94B10680E00E94B70680E00E94A6
:1018B000BF0682E00E94E50640E061E080E00E9411
:1018C000720689E00E94E9068FEF0E94E90640E077
:1018D00061E081E00E94720640E061E080E00E94E9
:1018E00072068BE00E94E90681E00E94E90640E072
:1018F00061E081E00E94720640E061E080E00E94C9
:1019000072068CE00E94E90681E00E94E90640E050
:1019100061E081E00E94720640E061E080E00E94A8
:1019200072068AE00E94E90683E00E94E90640E030
:1019300061E081E00E94720640E061E080E00E9488
:10194000720687E00E94E90683E00E94E90640E013
:1019500061E081E00E94720640E061E080E00E9468
:1019600072060895CF93C82F40E061E080E00E94A6
:1019700072068BE00E94E9068C2F0E94E90640E087
:1019800061E081E00E947206CF910895FF920F936B
:101990001F93CF93DF93EC016FE085E00E94350C3D
:1019A0006FE084E00E94350C6FE083E00E94350C0C
:1019B0006FE082E00E94350C209719F1F12CF3942E
:1019C0009E01ADECBCEC0E94BA158C0116950795F2
:1019D0001695079516950795A801440F551F980170
:1019E000220F331F220F331F220F331F240F351FE7
:1019F000BE01621B730B8F2D0E94350CE8012097EE
:101A0000F1F6DF91CF911F910F91FF900895CF9341
:101A1000DF93D82FC62F9091D9039F5F9093D9035E
:101A2000953608F45DC09091DA03943008F054C004
:101A3000933081F4682F88E00E94350C65E087E0E0
:101A40000E94350C68E086E00E94350C6FE085E06E
:101A50000E94350C8091DA03811110C06D2F87E050
:101A60000E94350C65E086E00E94350C68E085E058
:101A70000E94350C6FE088E00E94350C8091DA03FB
:101A8000813081F46D2F86E00E94350C65E085E0A1
:101A90000E94350C68E088E00E94350C6FE087E01A
:101AA0000E94350C8091DA03823081F46D2F85E03D
:101AB0000E94350C65E088E00E94350C68E087E004
:101AC0000E94350C6FE086E00E94350C8091DA03AD
:101AD0008F5F8093DA0302C01092DA031092D90369
:101AE0008C2F0E94B20CDF91CF910895CF93DF939A
:101AF000EC012881211121C0898190E0FC01EE0FC9
:101B0000FF1FE552FC4F2181223021F44081322F0A
:101B1000118225C02A8140E050E066E77DE082E343
:101B20000E94580EE981F0E0EE0FFF1FE552FC4FD6
:101B30004081318181E0818312C0213081F48A812A
:101B4000E981F0E0EE0FFF1FE552FC4F8083E98151
:101B5000F0E0EE0FFF1FE552FC4F82E08183842FFF
:101B6000932FDF91CF9108950E94890881110CC0B5
:101B70006EE572E08FE592E00E941A04811104C0C4
:101B800080915E020E9491080895CF93DF93FC013B
:101B90006081662349F0EC0121968FE592E00E9476
:101BA000050469916111F9CFDF91CF910895682FF4
:101BB0008FE592E00E94050408958FE592E00E946F
:101BC0003104811108C020E040E050E064EB7DE08A
:101BD00083E00E94580E089510924A04109249041E
:101BE00010924C0410924B04089580914D04089576
:101BF000CF93DF9300D000D000D0CDB7DEB72983DC
:101C00003A834B835C836D837E83FC012281422F68
:101C10004F5F3481431708F040E0FC0133813417F3
:101C2000B9F030E0D901AA0FBB1F2A0F3B1F220FCA
:101C3000331FA081B181A20FB31F26E0FE013196B0
:101C400001900D922A95E1F7FC01428380E001C0EA
:101C500082E026960FB6F894DEBF0FBECDBFDF91AF
:101C6000CF910895CF93DF93EC018B81282F2F5FC5
:101C70009A818917C9F09C81291708F020E090E02B
:101C8000FC01EE0FFF1F8E0F9F1F880F991FE88129
:101C9000F981E80FF91F86E0DB0101900D928A952A
:101CA000E1F72B8380E001C081E0DF91CF910895BF
:101CB000CF93DF9300D000D000D0CDB7DEB7922F06
:101CC000F894262F69837A838C83642F4D835E83F7
:101CD0009B83372F492F582F7E8184E692E00E9404
:101CE000F80D789426960FB6F894DEBF0FBECDBFE0
:101CF000DF91CF9108950F931F93CF93DF9300D07F
:101D000000D000D0CDB7DEB78C01BE016F5F7F4F32
:101D100084E692E00E94320E81110AC086E0FE0144
:101D20003196D80101900D928A95E1F780E001C0CB
:101D300081E026960FB6F894DEBF0FBECDBFDF91CF
:101D4000CF911F910F9108951F920F920FB60F928E
:101D500011248F939F93AF93BF9380914F049091E1
:101D60005004A0915104B09152040197A105B1050E
:101D700069F480914E048F5F80934E0410924F045B
:101D800010925004109251041092520416BC80918B
:101D90004F0490915004A0915104B09152040196C7
:101DA000A11DB11D80934F0490935004A093510442
:101DB000B0935204BF91AF919F918F910F900FBE3E
:101DC0000F901F901895019729F4EEE6F0E08081BE
:101DD0008160808308950E94A00417B88BEF8AB9B0
:101DE0005A9A5B9A7894EEE6F0E080818160808375
:101DF00086E486BD83E085BD0E9457070E94BE032E
:101E00000E94EC0D8BEF92E00E94BD0781E090E014
:101E10000E94E30E81E08093C20584EF94E19093E9
:101E2000C0058093BF05C2ECD5E003EC15E08091BE
:101E30004E048130B9F4809169028F5F809369020A
:101E400020E040E050E064EF74E181E00E94580E31
:101E500020E040E050E060E575E182E00E94580E2D
:101E600010924E048FEB95E00E947B0E81113FC0D3
:101E70006091BF057091C00561157105C1F1988130
:101E8000892F8D578B3480F49F3A48F40E948F0F2E
:101E9000FC018091BF059091C005099528C0892F4C
:101EA0008D5A0E94860F23C0983C30F0D8018D9146
:101EB0009C91FB0109951BC0892F82538B3498F4A8
:101EC0008F5F0E948F0FFC0181EC95E0099588815E
:101ED000843369F483E00E948F0FFC01D8018D9157
:101EE0009C91099504C080E090E0FB0109950E9457
:101EF000F50D8091AB04813021F08091AB0481110C
:101F000096CF8BEA94E00E947E1591CFE82FF0E007
:101F1000EE0FFF1FEB53FA4F718360830895E82F94
:101F2000F0E0EE0FFF1FEB53FA4F8081918108958F
:101F3000282FFB0139E2839F312D112432953F7008
:101F40004CE94303C0011124820F911D6AE070E047
:101F50000E94A61580E3830F808380E3860F818330
:101F6000205D349F200D1124660F862F880F880F67
:101F7000680F261B228308959C019091760491306E
:101F800009F04AC0F90180915904813071F028F0BC
:101F90008230C9F0833041F13FC00E944E0381116D
:101FA0003BC081E08093590437C00E94EF0220E0DB
:101FB0004EE953E063EE7AE088EC0E94580E82E02E
:101FC0008093590429C08181813031F530935804C0
:101FD00020935704828193819093560480935504F3
:101FE00083E08093590418C0E0915704F09158049D
:101FF0008681982F990F890F0E94DB0281110CC0F6
:1020000081E080935904E0915504F0915604809149
:10201000570490915804099580E090E008950F933B
:102020001F93CF93DF93CDB7DEB728970FB6F89401
:10203000DEBF0FBECDBF80917404909175040196F0
:10204000909375048093740480917204909173044A
:10205000892B71F40E944C0C81E090E09093730402
:102060008093720480E590E09093780480937704E5
:1020700067E08DE090E00E94070D809174049091DC
:1020800075040A9709F08CC0409180042091770470
:1020900030917804429FC001439F900D112420E1AC
:1020A00037E2281B390B3695279536952795ABE7F0
:1020B000B4E10E94BA15AC01569547951C829A016D
:1020C0003695322F222737952795241B350B3695C9
:1020D0002795369527950E94BA158C011695079578
:1020E000BE016F5F7F4F842F0E94980F43E050E046
:1020F0006AE470E0CE0101960E947F0543E050E063
:1021000060E670E083E093E00E947F0580918004A8
:10211000843190F42091700430917104283231059B
:1021200058F42F5F3F4F3093710420937004109246
:102130006F0410926E0427C08B37A0F020916E04BC
:1021400030916F042832310568F48F3F59F01092B6
:102150007104109270042F5F3F4F30936F042093EF
:102160006E0411C0109271041092700410926F04EA
:1021700010926E0410926D0410926C0442E066E0BE
:1021800080E00E947206C8010E94C60C90916A020B
:1021900081E0892780936A0210927504109274047A
:1021A0008091700490917104892B31F480916E04B8
:1021B00090916F04892BF1F080916C0490916D04E3
:1021C0008536910570F010926D0410926C04909118
:1021D0006B0481E0892780936B0442E066E00E94F3
:1021E000720680916C0490916D04019690936D0439
:1021F00080936C048091690490916A04029708F4BA
:1022000057C018861F82CE0107960E948B152F811A
:102210003885832F881F8827881F8D831E828130F1
:10222000D9F4337038872F831C82BE016F5F7F4FD4
:10223000809180040E94980F40E050E06CE570E0CF
:10224000CE0101960E947F0540E050E060E770E01B
:1022500087E093E00E947F0580E098E098878F8375
:10226000CE0107960E948B1580E090E198878F83BE
:10227000CE0107960E948B152F813885832F881FEA
:102280008827881F8D831E82813019F43370388728
:102290002F8310926A0410926904809168048F372A
:1022A00020F48F5F8093680403C087538093680491
:1022B0000F37110538F4A80165E070E080E090E088
:1022C0000E9492058091690490916A04019690930E
:1022D0006A04809369048AE093E00E94BD0780E06D
:1022E00090E028960FB6F894DEBF0FBECDBFDF9109
:1022F000CF911F910F9108951F93CF93DF9300D03B
:102300001F92CDB7DEB78091660490916704019665
:102310009093670480936604843F914009F0CDC098
:1023200010927F04109267041092660419821A8238
:1023300081E08B83CE0101960E94760D9A8389837A
:102340008A81823009F0A3C0498150E0E0916304A2
:10235000F0916404E417F50708F042C0CA018E1B2F
:102360009F0B64E6689F9001699F300D11242C300B
:1023700087E0380790F4A5E8BAE50E94BA15002472
:10238000880F991F001C880F991F001C892F902D02
:10239000909362048093610411C036952795369519
:1023A0002795A9EAB8E40E94BA15880F892F881FDB
:1023B000990B9195909362048093610480916104DC
:1023C00090916204009729F450936404409363044D
:1023D00048C0E80FF91FF0936404E093630441C020
:1023E000CF01841B950B64E6689F9001699F300DB7
:1023F00011242C3087E0380790F4A5E8BAE50E9454
:10240000BA150024880F991F001C880F991F001C03
:10241000892F902D909362048093610411C03695AA
:10242000279536952795A9EAB8E40E94BA15880F32
:10243000892F881F990B9195909362048093610472
:102440008091610490916204009729F45093640490
:102450004093630406C0E81BF90BF0936404E09317
:102460006304809163048093D9058093800414E60B
:1024700010937E0440E050E060E070E180E090E086
:102480000E945C001092650410937E0416C0809137
:1024900065048F5F809365048A3078F040E050E0F7
:1024A00062E070E180E090E00E945C008FEF80933A
:1024B000D9058093800410927E0480E090E00F9014
:1024C0000F900F90DF91CF911F9108950E947F0090
:1024D00080E090E00895CF93DF9300D01F92CDB7B6
:1024E000DEB7198281E08A8382E08B83CE01019678
:1024F0000E94760D882329F0809160048F5F80937D
:10250000600480916004893C10F010926004809116
:102510005E0490915F04019690935F0480935E0443
:1025200084369105B8F08091790490917A04A09155
:102530007B04B0917C040196A11DB11D80937904A8
:1025400090937A04A0937B04B0937C0410925F0470
:1025500010925E040F900F900F90DF91CF9108952D
:10256000CF93DF9300D000D0CDB7DEB780917D044C
:102570008F5F80937D04893C99F4809179049091D8
:102580007A04A0917B04B0917C040196A11DB11D39
:102590008093790490937A04A0937B04B0937C0495
:1025A00080915D0481119DC08091810482FD11C0E4
:1025B00090915C0491110DC00E945A02811176C065
:1025C0008091810484608093810481E080935C0425
:1025D00075C083FD12C080915C04813009F066C033
:1025E0000E944E03811162C08091810488608093B3
:1025F000810482E080935C0461C080915C0482303D
:1026000009F054C00E94EF020E947603813009F065
:102610004DC080915A0490915B04019690935B04A5
:1026200080935A048139914008F440C083E20E94AB
:10263000DB0281113BC010925B0410925A0482E3CA
:1026400095E39A83898385E390E09C838B831C8246
:1026500080917E04843611F5BE016F5F7F4F8091BB
:1026600080040E94980F80E193E00E948E158DEA0D
:1026700092E00E948E1584E293E00E948E158CE217
:1026800093E00E948E158DEA92E00E948E1583E001
:1026900080935C0481E08093760408C0CE010196AB
:1026A0000E948E158DEA92E00E948E1580915C0446
:1026B000833021F480E090E00E94BC0F0E94C001B2
:1026C00081110FC081E080935D0440E050E068E23A
:1026D00070E380E090E00E945C0084E393E00E945D
:1026E0008E150E94E302811116C08DE393E00E94D3
:1026F0008E1510925D04809181048B7F877F80937B
:10270000810410925C0440E050E060E070E380E0FF
:1027100090E00E945C000F900F900F900F90DF915F
:10272000CF91089541E061E080E00E944B0641E0D6
:1027300062E080E00E944B0640E060E081E00E94A1
:102740004B0680E090E0089540E061E081E00E9467
:102750004B0640E060E081E00E944B0642E067E00B
:1027600081E00E944B0680E090E0089585E493E0CC
:102770000E94BD070E94F50D0E94900780E090E046
:1027800008958091530490915404019690935404B9
:1027900080935304853F914040F08FE493E00E9482
:1027A0008E15109254041092530440E062E080E0D1
:1027B0000E944B0642E066E081E00E944B0640E04A
:1027C00062E081E00E94720642E066E080E00E94E2
:1027D000720680E090E00895CF93DF9300D0CDB7EC
:1027E000DEB72FE78AE196E0215080409040E1F784
:1027F00000C000000E94570720E040E050E061EB7D
:1028000070E08DE70E94580E20E040E050E066E75F
:102810007DE08FEA0E94580E8CEB9FE09A838983BB
:10282000CE0101960E94B50340E061E080E894E0AB
:102830000E94180C0E944A0180E380937D0480E08E
:1028400090E00F900F90DF91CF9108958091A004B8
:10285000813011F00E9479030895FC01808190E09D
:10286000DC01AA0FBB1FAA0FBB1F8A0F9B1FDC0135
:10287000AE57BB4F828193818D939C932181808140
:1028800090E0DC01AA0FBB1FAA0FBB1F8A0F9B1F82
:10289000DC01AE57BB4F12962C93808190E0DC0197
:1028A000AA0FBB1FAA0FBB1F8A0F9B1FDC01AE57CD
:1028B000BB4F1496FC93EE9313970895FC0180810F
:1028C00090E00197FC01EE0FFF1FEE0FFF1FEE0FD0
:1028D000FF1FE81BF90BE559FD4F81E08583089543
:1028E0007F928F929F92AF92BF92CF92DF92EF92A0
:1028F000FF920F931F93CF93DF9300D000D01F92CE
:10290000CDB7DEB780919D04811148C080917002DF
:10291000813029F4E0916D02F0916E020995809169
:102920007702813029F4E0917402F09175020995E3
:1029300081E080939D0432C05801F80180818F5F4F
:102940008083F7019081913001F5F80132979081F1
:102950008917D8F0F80136970190F081E02D09959C
:102960009D838C838D8180FD0EC0798286958A83BC
:102970008C818B8382E00E948F0FFC01CE01019637
:102980000995F7011082F5011082095F1F4FF7E0EA
:10299000EF0EF11C0C151D0579F611C001E712E0D0
:1029A0000F2EF0E7EF2EF2E0FF2EF02D0F2EFFE7B7
:1029B000CF2EF2E0DF2EF02D77247394BDCF80E090
:1029C00090E00F900F900F900F900F90DF91CF91AC
:1029D0001F910F91FF90EF90DF90CF90BF90AF903D
:1029E0009F908F907F900895EF92FF920F931F9387
:1029F000CF93DF9380919B0481113EC06EE574E11B
:102A000081E00E94860F6DE274E183E00E94860FF0
:102A10000E94250CCEE7D2E00FEA12E088818130D7
:102A200031F4FE0133970190F081E02D099527964E
:102A3000C017D10799F781E080939B0480939C0491
:102A40000E94BD0319C088818F5F8883FE01319782
:102A50009081913061F4FE0132979081891738F0AE
:102A6000FE0136970190F081E02D09951882279696
:102A7000CE15DF0541F709C0CFE7D2E00F2EF0EB0E
:102A8000EF2EF2E0FF2EF02DDECF0E94940880E0C2
:102A900090E0DF91CF911F910F91FF90EF900895FB
:102AA0000F931F93CF93DF93C4E8D4E00DE914E0B4
:102AB00080919E0490919F04019690939F0480932F
:102AC0009E042881213079F48538934060F0FE011E
:102AD00032970190F081E02D89819A8109951092B9
:102AE0009F0410929E042596C017D10709F780E035
:102AF00090E0DF91CF911F910F91089520919C0458
:102B0000213011F40E9426148091A004813011F428
:102B10008093A10208950E94A01508950E94A31514
:102B20000895CF93DF93EC01888199810E94120967
:102B300099838883DF91CF9108950E94C50D0895F0
:102B40000E94911508950E949D15089597FB072EE8
:102B500016F4009407D077FD09D00E94C61507FC33
:102B600005D03EF4909581959F4F0895709561959D
:102B70007F4F0895A29FB001B39FC001A39F01D0D2
:102B8000B29F700D811D1124911D0895AA1BBB1BBE
:102B900051E107C0AA1FBB1FA617B70710F0A61B5D
:102BA000B70B881F991F5A95A9F780959095BC017E
:102BB000CD010895FB01DC018D9101908019011078
:0A2BC000D9F3990B0895F894FFCFA4
:102BCA000000DA052000C30196010000000A005E39
:102BDA0003A90100000064000F02960100000064CE
:102BEA0000010296010000006400ED019601000058
:102BFA00006400E201960100000064005E03910196
:102C0A000000006400B7018F010000006400B001F9
:102C1A009601000000E80399019601000000E8030C
:102C2A005E037801000000E8035E038801000000EB
:102C3A00E803DD0200E302005749464920444953AC
:102C4A00434F4E4E45435400235561727423003E50
:102C5A00002B495044004F4B0041542B43495043E9
:102C6A004C4F53453D300D0A00474F542049500000
:102C7A004E494B48494C0041542B43495053454E09
:102C8A00443D0041542B43574A41503D226E696BE3
:102C9A0068696C222C223132333435363738220DAA
:102CAA000A0041542B43494653520D0A0041542B02
:102CBA004349505345525645523D312C38300D0A3E
:102CCA000041542B4349504D55583D310D0A00419E
:102CDA00542B43574D4F44453D330D0A0001020022
:102CEA0001020300010203C304000064FF0000FFA5
:102CFA000000FF0000FF0000FF0000FF000030316D
:102D0A003233343536373839414243444546000177
:102D1A0002030405060708090A0B0C0D0E0F26E527
:102D2A0003000064510500000F01019B09BA090163
:102D3A000000BD09FA090100000F109213050000F6
:102D4A007C11A4130101006612B6130501006B126F
:102D5A00C113050100B012EC13050100DD0DDD0DF4
:102D6A00050100701470140501002C000D0A0043BF
:102D7A00757272656E742076616C75653A002020F2
:102D8A006368616E6765642076616C75653A006890
:102D9A00007465737432007465737431005354415E
:102DAA0052540044414947230000000000000073C8
:102DBA007769746368207265616400776F726B6902
:102DCA006E6700272F2E00636D006E696E650A001C
:102DDA005761746572204C6576656C204D6F6E691B
:102DEA00746F7200312E4C6576656C00322E446524
:102DFA0062756700484552454F66660A0048455263
:102E0A00454F4E0A00496E206F70656E2033006F81
:062E1A0070656E3400003B
:00000001FF
