:100000000C943D000C946C040C945A000C945A000F
:100010000C945A000C945A000C945A000C945A00F8
:100020000C945A000C9422070C945A000C945A0019
:100030000C945A000C945A000C945A000C945A00D8
:100040000C94AF0E0C945A000C94F1070C945A00C7
:100050000C945A000C94FC030C94C4050C945A00A4
:100060000C945A000C945A00230026002900240006
:1000700027002A00250028002B0011241FBECFEFE7
:10008000D8E0DEBFCDBF13E0A0E0B1E0E0E1FCE2EC
:1000900002C005900D92A635B107D9F725E0A6E577
:1000A000B3E001C01D92A13EB207E1F70E94F60E37
:1000B0000C9406160C9400009B013327E091560324
:1000C000F0E0E217F30768F4809357036093560358
:1000D0006627707F709359036093580340935A03C7
:1000E0000895232B59F46627707F809158039091CF
:1000F00059036817790711F4109256030895609117
:100100005603662331F120915B0330915C0388EE46
:1001100093E070E00E94C9152617370798F0909178
:100120005D0381E0892780935D0340915A036091CC
:1001300057030E94790681E090E090935C038093DE
:100140005B0308952F5F3F4F30935C0320935B0365
:10015000089540915A036091570380E00E94790608
:1001600008954F925F926F927F928F929F92AF927B
:10017000BF92CF92DF92EF92FF920F931F93CF9394
:10018000DF931F92CDB7DEB77C0186E289830F2E05
:10019000FCE0AF2EF1E0BF2EF02D0F2EFBE0CF2EB6
:1001A000F1E0DF2EF02D08E711E0512C752C992499
:1001B00093944AC0C901D90112974C91413011F56D
:1001C000663201F1AF016080D90114970D90BC91A6
:1001D000A02DA60DB11DAC916A130FC0D9014C9092
:1001E000641410F463946082DA014C91DC018C9108
:1001F000481308C0872C792D05C0D9018C91681649
:1002000008F41082275F3F4F39962017310791F687
:1002100070935F03809260037130B1F489818632FC
:1002200009F1E82DF0E0EF59FC4F8083982D9F5F96
:10023000909360039C3111F08A3031F450925F0347
:100240005092600390928003CE010196F7010995C8
:1002500081110CC0698170915F03809060039501EA
:10026000F601A8CFFCE18F12EFCFE8CF80E090E05D
:100270000F90DF91CF911F910F91FF90EF90DF9042
:10028000CF90BF90AF909F908F907F906F905F9036
:100290004F900895CF93DF93ECE0F1E088E791E091
:1002A000EF012497A881B981ED0109900020E9F7B9
:1002B0002197CA1BDB0BC0833996E817F90781F732
:1002C00081E0809364018093130180936D01DF913D
:1002D000CF9108951F93CF93DF9300D000D0CDB777
:1002E000DEB78091840389831A82CE0101960E9431
:1002F000B1158AEA92E00E94B115209185033091F0
:100300008603E22F49E2249F412D112442954F702C
:100310001CE91403C0011124820F911D6AE070E0F2
:100320000E94C915842F805D8983862F805D8A8312
:10033000E05D419FE00D1124660F962F990F990FF4
:10034000690FE61BEB831C822A3031051CF4E9831C
:100350001A8206C0243631051CF48983EA831B8285
:10036000CE0101960E94B1158CEA92E00E94B1156F
:100370000F900F900F900F90DF91CF911F910895E4
:100380009091650180916601981304C010926501F7
:1003900080E0089582E00895813029F4109283036B
:1003A000109282030BC0823049F4809182039091B5
:1003B0008303019690938303809382038091820349
:1003C0009091830308951F93CF93DF93182F80910B
:1003D0008103811126C0C12FD0E0FE01EE0FFF1F67
:1003E000EE0FFF1FEE0FFF1FEC0FFD1FEA5FFE4F2A
:1003F000808191810E94B115173011F40E946A0129
:100400009E01220F331F220F331F220F331FC20FF3
:10041000D31FCA5FDE4F81E08C83809381030E94EB
:10042000CC01C12FD0E0FE01EE0FFF1FEE0FFF1F2A
:10043000EE0FFF1FEC0FFD1FEA5FFE4F95818681D7
:10044000981313C0163069F0FE01EE0FFF1FEE0F78
:10045000FF1FEE0FFF1FEC0FFD1FEA5FFE4F148220
:1004600015821092810310E001C011E082E00E9429
:10047000CC01FE01EE0FFF1FEE0FFF1FEE0FFF1F5F
:10048000EC0FFD1FEA5FFE4F2781308528173907E3
:1004900060F41482158210928303109282031092EA
:1004A000810381E00E94CC0112E0812FDF91CF9186
:1004B0001F91089580918703811106C084E0809385
:1004C000880381E080938703809188030E94E30181
:1004D00081110BC0809188038F5F809388038630E1
:1004E00089F51092870380E00895823069F5809144
:1004F0008903853000F120918803223031F4109275
:1005000089031092870382E017C0E22FF0E0CF0149
:10051000880F991F880F991F880F991FE80FF91FDF
:10052000EA5FFE4F148215822150209388031092B7
:10053000890381E001C081E0909189039F5F9093DE
:100540008903089581E0089581E00895FC01E60F94
:10055000F11D2081222389F0241306C002C0241338
:1005600003C0862F8F5F08956F5FFC01E60FF11DBA
:1005700020812111F4CF80E0089580E00895421792
:1005800070F4FB0130E0DC01A40FB11D5C915193CC
:100590003F5F4F5F421720F43430A9F701C030E0CD
:1005A000FC01E40FF11D8081FB01E30FF11D80834D
:1005B00030939C030895809385031092860387E00F
:1005C0000E94E30108959091140180911501981300
:1005D00004C01092140180E0089582E008950F9302
:1005E0001F93CF93DF9380918003813009F04FC038
:1005F0009091410180914201981347C081E080931E
:100600004001109241014CE260E081E693E00E94DB
:10061000A602C82F4CE2682F81E693E00E94A60252
:10062000082F282F4C2F6DE873E081E693E00E949D
:10063000BF02CDE8D3E08881809384034AE3602F32
:1006400081E693E00E94A602182F282F402FBE01BA
:1006500081E693E00E94BF02C881C0939F0380910E
:100660008E038093A00310939E03C10FC0939D033C
:100670002C2F412F6DE873E081E693E00E94BF02CA
:10068000EC2FF0E0E557FC4F108210928003909120
:100690006E0180916F01981303C081E08093A704DD
:1006A000DF91CF911F910F91089580918A0381115D
:1006B00008C086E080938B0381E080938A03809357
:1006C0008C0380911D02882339F086E00E94E301AB
:1006D00080931D0281E0089580918003813059F458
:1006E00010928A0310928C030E94EF0281E08093A3
:1006F0001D0280E0089581E00895809174010895BD
:1007000060917201709173018DE893E00E94FD1574
:10071000282F392F232B21F481E08093740102C00C
:100720001092740160917501709176018DE893E0EB
:100730000E94FD15282F392F232B19F010927701D5
:10074000089581E080937701089521E220937F034B
:100750002091A903E22FF0E0EF59FC4F3781FC0113
:100760003083273121F41092A90381E008952F5F8F
:100770002093A90380E00895FC01208120937D034C
:10078000818180937E0308950895EAE7F0E08081F7
:1007900087608083ACE7B0E08C91806C8C938C9107
:1007A00080628C938081886080830895EAE7F0E01E
:1007B000908190689083ACE7B0E09C91987F9C9387
:1007C0009C91892B8C938081806480830895809193
:1007D0007A00807408958091780020917900829544
:1007E00086958695837030E0220F331F220F331FCA
:1007F000282B822F932F08951F920F920FB60F92DE
:1008000011248F9380917800809179008F910F90BF
:100810000FBE0F901F901895FC019281892F8F5F5A
:100820002481821708F080E02381281741F0A081FD
:10083000B181A90FB11D6C93828380E0089582E09D
:100840000895FC018381982F9F5F2281821771F0A8
:100850002481921708F090E0A081B181A80FB11D0A
:100860008C91DB018C93938380E0089581E008955F
:10087000FC0181E023819281291380E00895FC012D
:1008800093818281891720F42481820F891B089526
:10089000891B089542E067E080E00E94790600C06D
:1008A00042E067E081E00E94790600C000C00000DD
:1008B00042E067E080E00E9479060895813031F4DB
:1008C000E9E6F0E08081816080830895E9E6F0E068
:1008D00080818160808308951F920F920FB60F92DE
:1008E00011242F933F934F935F936F937F938F9335
:1008F0009F93AF93BF93EF93FF938091AA038111CE
:100900000AC00E94F60680E090E00E945E0481E04A
:100910008093AA030BC00E94110781E090E00E941F
:100920005E041092AA0381E08093AB03FF91EF91E4
:10093000BF91AF919F918F917F916F915F914F91F7
:100940003F912F910F900FBE0F901F90189581E04F
:1009500090E00E945E04E89A1092AA0381E08093DE
:10096000AB030895CF93DF93EC018091AC03823009
:1009700060F081E00E945E040E944A041092AB0382
:100980001092AA031092AC033BC09091AB0391303C
:1009900099F52091C0048091BE049091BF043FEF6F
:1009A000239F800D911D11249093BF048093BE045A
:1009B0002091BE043091BF0422953295307F3227BA
:1009C000207F3227AFE9B6E40E94DD15929582952B
:1009D0008F7089279F7089279093BF048093BE04EE
:1009E000C091BE04D091BF04D0681092AC031092A5
:1009F000AB030E944A0404C0D0618F5F8093AC03B4
:100A00008C2F9D2FDF91CF910895ECEBF0E01082B9
:100A100094EA908390819923ECF79091B900987FA4
:100A20009830A1F48093BB0084E88093BC00ECEB89
:100A3000F0E080818823ECF79091B900987F98319D
:100A400039F081E0903429F480E0089581E0089540
:100A500080E008958093BB0084E88093BC00ECEBB9
:100A6000F0E080818823ECF79091B900987F81E0D5
:100A7000983209F480E0089584E98093BC000895D9
:100A80001F93CF93DF93C82F88E70E94050581113C
:100A90001BC080E40E942A05C0528C2F90E0EC011C
:100AA000CC0FDD1F8C0F9D1FEC01CC0FDD1FC7513C
:100AB000DD4F10E089910E942A05811105C01F5F5A
:100AC0001630C1F70E943C05DF91CF911F91089528
:100AD000CF93DF93C82FD62F88E70E940505811199
:100AE00012C00E942A058D2F80550E942A058C2F46
:100AF0008F700E942A058C2F82958F7080610E94D2
:100B00002A050E943C05DF91CF910895CF93DF9392
:100B1000EC01862F642F0E9468058881882331F0BC
:100B200021960E94400589918111FBCFDF91CF91E1
:100B30000895CF93DF93D42F0E94680588E70E9421
:100B40000505811119C080E40E942A05D11102C057
:100B5000CD2F0AC0C0E08FEF0E942A05CF5FCD13D2
:100B6000FACFDF37A8F306C081E00E942A05CF5FE5
:100B7000CF37D0F30E943C05DF91CF910895FB98C9
:100B800082E080931E0208951F920F920FB60F927B
:100B900011242F933F934F935F936F937F938F9382
:100BA0009F93AF93BF93EF93FF938091C6048111FE
:100BB00027C08091C904882301F181E080931E023F
:100BC0008091C4049091C50492BD81BD019690931B
:100BD000C5048093C4048091C90481508093C904E2
:100BE0008091C904E091C204F091C304E80FF11DA3
:100BF000808180BDFA9AF99A44C00E94BF0541C025
:100C00002091C4043091C5048091C7049091C80418
:100C10008217930750F181E080931E028091C404F3
:100C20009091C50492BD81BD01969093C5048093B7
:100C3000C404F89A9091C10480B5E091C204F09187
:100C4000C304E90FF11D80838091C104E091C204C7
:100C5000F091C304E80FF11D80810E94C0078091CC
:100C6000C10481508093C1040CC08FEE92E00E94B9
:100C70008B070E94BF051092C1041092C804109205
:100C8000C704FF91EF91BF91AF919F918F917F9199
:100C90006F915F914F913F912F910F900FBE0F90E9
:100CA0001F901895E42FF0E0EE0FFF1FE259FF4F61
:100CB00025913491E22FF32F813069F4208181E076
:100CC00090E0AC0102C0440F551F6A95E2F7BA01EB
:100CD000622B60830895208181E090E0AC0102C026
:100CE000440F551F6A95E2F7BA016095622360834D
:100CF0000895E42FF0E0EE0FFF1FEC58FF4F259111
:100D00003491E22FF32F813069F4208181E090E06B
:100D1000AC0102C0440F551F6A95E2F7BA01622B7D
:100D200060830895208181E090E0AC0102C0440F0F
:100D3000551F6A95E2F7BA016095622360830895B2
:100D4000E42FF0E0EE0FFF1FE859FF4F259134919B
:100D5000E22FF32F408121E030E0F90102C0EE0FD5
:100D6000FF1F6A95E2F7BF016423FC0160830895C9
:100D700084B18C6284B981E58CBD08952CB530E2D4
:100D8000839FC0011124822B8CBD0895823031F0E5
:100D9000883021F0803211F08034A1F44CB5E82F76
:100DA000F0E0E15EFD4F21E030E0C901008002C0CB
:100DB000880F991F0A94E2F7842B8CBD8DB5816052
:100DC0008DBD0895843021F0803111F0803819F400
:100DD000ECB58E2B8CBD08958CB588608CBD0895C4
:100DE0008EBD0DB407FEFDCF8EB508951092C004E0
:100DF0001092BD04E1EBF0E0808186608083E0E743
:100E0000F0E08081816080831092B2001092BF0474
:100E10001092BE0408951092B10081E08093BD0449
:100E20000895CF93DF93C2EBD0E0888190E0909358
:100E3000BF048093BE040E940B0718828881DF9153
:100E4000CF9108951F920F920FB60F9211248F9396
:100E50008091C0048F5F8093C0048F910F900FBE6C
:100E60000F901F9018959093B0048093AF0408954D
:100E700020E041E457E06EEE7AE088EC0E94630ED9
:100E800008950F931F93CF93DF931F92CDB7DEB7D3
:100E90008C01BE016F5F7F4F87E292E00E942104C8
:100EA000811105C08981F801808380E001C081E063
:100EB0000F90DF91CF911F910F9108951092B1047F
:100EC00088E98093C1008EE08093C2001092C50033
:100ED00088E08093C4001092B0041092AF0463E3E2
:100EE00077E080E00E94910F089520E030E000005C
:100EF00000000000000000000000000000000000F2
:100F0000000000000000000000002F5F3F4F82172C
:100F1000930768F70895EF92FF920F931F93CF9373
:100F2000DF93FC0120812223C1F08C010F5F1F4F52
:100F30000F2EF6ECEF2EF12CF02DC0ECD0E0F701E7
:100F40002083888186FFFDCF88EE93E00E9475079D
:100F5000F80121918F012111F2CFDF91CF911F91E3
:100F60000F91FF90EF9008958093C600E0ECF0E0C1
:100F7000808186FFFDCF88EE93E00E94750708957B
:100F80000F931F93CF93DF93C82F19E2819F112DE9
:100F9000112412951F700CE9010390011124C9015D
:100FA0008C0F911D6AE070E00E94C915D62F812F29
:100FB000805D0E94B4078D2F805D0E94B407C05DE4
:100FC0008C2F109F800D1124DD0F9D2F990F990FED
:100FD000D90F8D1B0E94B407DF91CF911F910F9104
:100FE00008951F920F920FB60F9211242F933F93E3
:100FF0004F935F936F937F938F939F93AF93BF9321
:10100000EF93FF93CF93DF931F92CDB7DEB780911D
:10101000C6008093AD046091AD0487E292E00E9427
:101020000C048091AD04843611F41092B104E09167
:10103000B104F0E08091AD04E855FB4F80838091CE
:10104000B1048F5F8093B1048091B104853031F594
:101050008091A804843601F58091A9048536E1F4D5
:101060008091AA048236C1F48091AB048537A1F443
:101070008091AC04873681F403C089810E94B40753
:10108000BE016F5F7F4F87E292E00E9421048823B8
:10109000A1F381E08093AD031092B1046091AF049D
:1010A0007091B0046115710559F08091AD03811103
:1010B00007C020E041E457E088EC0E94630E20C0A6
:1010C0008091AD03823081F464E187E292E00E9476
:1010D0003F048431A8F020E041E457E068E377E082
:1010E00088EC0E94630E0CC0813051F482E0809342
:1010F000AD03BE016F5F7F4F87E292E00E94210443
:101100000F90DF91CF91FF91EF91BF91AF919F91A0
:101110008F917F916F915F914F913F912F910F90A0
:101120000FBE0F901F9018958091C00085FB8827F7
:1011300080F991E0892708958093C6000895CF93A0
:10114000DF938091C303811137C02091C403822FA4
:1011500090E0FC01EE0FFF1FE80FF91FE45DFD4F6B
:101160003281313029F5FC01EE0FFF1FE80FF91F26
:10117000E45DFD4F318131111BC0FC01EE0FFF1FFB
:101180008E0F9F1FFC01E45DFD4F80810E94D603FE
:101190008091C40390E0FC01EE0FFF1F8E0F9F1F94
:1011A000FC01E45DFD4F81E081838093C3033AC07D
:1011B0002F5F2093C40336C00E94E703811132C021
:1011C0008091C40390E0FC01EE0FFF1FE80FF91FB0
:1011D000E45DFD4F2181213029F5FC01EE0FFF1F59
:1011E0008E0F9F1FFC01E45DFD4FC081D0E00E9487
:1011F000EB03CC0FDD1FC255DC4F99838883209110
:10120000C403822F90E0FC01EE0FFF1F8E0F9F1F83
:10121000FC01E45DFD4F82E081832F5F2093C403D6
:101220001092C3038091C403863011F41092C4035A
:1012300080E090E0DF91CF910895CF93DF9300D0CD
:10124000CDB7DEB79A8389838A8186958695869500
:1012500087708093C2033091C20380912C023817AB
:1012600041F0EFE2F2E081E090E02081321313C020
:1012700002C080E090E0DC01AA0FBB1FA80FB91FDD
:10128000A45DBD4F11962C918093C503223099F136
:1012900020E030E048C0019633968630910529F76A
:1012A00045C010922E0211C0822F90E0FC01EE0F7B
:1012B000FF1F8E0F9F1FFC01E45DFD4F828188237D
:1012C00021F081E08093C70339C08091C703811169
:1012D00035C0822F90E03091C203FC01EE0FFF1F5A
:1012E000E80FF91FE45DFD4F308381E082832F5FBB
:1012F0002093C60323C0E32FF0E0EE0FFF1FE2555B
:10130000FC4F20813181306899274091C203FC0154
:10131000EE0FFF1F8E0F9F1FFC01E45DFD4F40830A
:10132000118281E08283822F932F0BC01092C5031C
:101330002091C603263009F0B7CFB3CF20E030E0CC
:10134000F2CF0F900F90DF91CF910895CF93DF935D
:1013500000D0CDB7DEB780E090E00E94B2049A835F
:1013600089838A81803811F0811108C08091C80377
:10137000982F9F5F9093C8039A8102C0898191E062
:101380000F900F90DF91CF91089580E090E0089545
:10139000CF93DF9300D01F92CDB7DEB740E062E07D
:1013A000CE0101960E94A00689819091C9038913FC
:1013B00008C09091CA039F5F9093CA038093C903AA
:1013C00004C01092CA038093C9038091CA038A3073
:1013D00028F089818093CB031092CA038091CC03BB
:1013E0008F5F8093CC03893C28F082E08B8310923E
:1013F000CC0302C083E08B838091CB039B810F9051
:101400000F900F90DF91CF91089580E090E00895C4
:10141000982F90539A3030F4E82FF0E0E25EFD4FC1
:1014200080810895982F9154963030F4E82FF0E0A1
:10143000E95EFD4F8081089580E00895DF92EF928C
:10144000FF920F931F93CF93DF937C018AE00E945A
:10145000E20DD7011C968C91882369F1D12CF701FC
:10146000ED0DF11DB581DB2F80E0C82F84818E0149
:10147000082BD801EC91E295EF70F0E0E25CFD4FB3
:1014800080810E94E20DD801EC91EF70F0E0E25C07
:10149000FD4F80810E94E20D80E20E94E20DD39414
:1014A000D3942D2D30E0F701848590E0880F991FAB
:1014B00028173907A4F280E090E0DF91CF911F91C7
:1014C0000F91FF90EF90DF900895EF92FF920F93AE
:1014D0001F93CF93DF938C01FC01F580E12C848175
:1014E000E82AE7018AE00E94E20DF801868188235C
:1014F000D1F0E881E295EF70F0E0E25CFD4F808191
:101500000E94E20DE991EF70F0E0E25CFD4F808116
:101510000E94E20D80E20E94E20D9C2F9E19F801CC
:101520008681981730F380E090E0DF91CF911F9192
:101530000F91FF90EF900895DF92EF92FF920F933B
:101540001F93CF93DF938C01FC01F581DF2F80E0A7
:10155000C82FF8018481C82B8AE00E94E20DF801AF
:101560008485882339F1D12C0F2EFFE2EF2EF5E090
:10157000FF2EF02DE881E295EF70F0E0E25CFD4F88
:1015800080810E94E20DE881EF70F0E0E25CFD4FA7
:1015900080810E94E20D80E20E94E20DF801ED0DD3
:1015A000F11D86818993F7011082D394F801848517
:1015B000D81600F320E030E04EE255E061E070E044
:1015C00084E390E00E94630E80E090E0DF91CF9191
:1015D0001F910F91FF90EF90DF900895CF92DF92CF
:1015E000EF92FF920F931F93CF93DF9300D01F9240
:1015F000CDB7DEB78C0185E69AE09B838A83D12C38
:10160000F12CE12C31C029E02F1538F1D1100EC09A
:1016100089810E94080AEF2DF0E0E353FC4F20E19E
:10162000829FC00111248083D3941EC081E0D81210
:101630000DC0CF2CD12C89810E94080AF601E353FA
:10164000FC4F8F709081892B808304C0D394E2E09B
:10165000DE120AC0F394DE2C07C0EF2DF0E0E35356
:10166000FC4F89818083F394CE010196F80109959E
:10167000882349F28091CD038B3A71F58091D00394
:1016800081111AC010922E0581E080932F058A8166
:10169000809330058B81809331058091CF038093B7
:1016A00032058091CE03809333058091D1038093DE
:1016B000340580933A059BC0813009F098C01092A0
:1016C0002F0520E030E04EE255E061E070E084E379
:1016D00090E00E94630E8BC08C3A99F58CE99AE0F9
:1016E0009B838A8310922E0591E090932F0580931F
:1016F00030058B81809331058091CF038093320533
:101700008091CE03809333058091D003809334057C
:101710008091D103809335058091D2038093360563
:101720008091D303809337058091D403809338054B
:101730008091D503809339058091D60380933A0533
:1017400056C08D3F99F58EE19AE09B838A83109273
:101750002E0591E090932F05809330058B81809327
:1017600031058091CF03809332058091CE03809321
:1017700033058091D103809334058091D003809309
:1017800035058091D303809336058091D2038093F1
:1017900037058091D503809338058091D4038093D9
:1017A00039058091D60380933A0521C08D3BF9F429
:1017B00010922E0581E080932F058A818093300559
:1017C0008B8180933105E091CE03F0E0EE0FFF1F97
:1017D000EE0FFF1FEC5BFA4F808180933205818111
:1017E0008093330583818093340580933A05898102
:1017F000813289F46091D8037091D90370934305C5
:101800006093420520E030E04EE255E089EC90E044
:101810000E94630E0AC020E030E04EE255E061E035
:1018200070E084E390E00E94630E80E090E00F900F
:101830000F900F90DF91CF911F910F91FF90EF903C
:10184000DF90CF900895E42FF0E0EE0FFF1FEE0F32
:10185000FF1FEC5BFA4F918380834283638308957B
:101860001092B60481E08093B7048093B80494E0AA
:101870009093B90495E09093BA048093BB040895C3
:10188000CF93DF93D82FC62F40E061E080E00E9425
:1018900079068D2F0E94F0068C2F0E94F00640E002
:1018A00061E081E00E947906DF91CF91089540E0E8
:1018B00061E080E00E9479060E94B80680E00E9404
:1018C000BE0680E00E94C60682E00E94EC0640E070
:1018D00061E080E00E94790689E00E94F0068FEFC7
:1018E0000E94F00640E061E081E00E94790640E05D
:1018F00061E080E00E9479068BE00E94F00681E0C2
:101900000E94F00640E061E081E00E94790640E03C
:1019100061E080E00E9479068CE00E94F00681E0A0
:101920000E94F00640E061E081E00E94790640E01C
:1019300061E080E00E9479068AE00E94F00683E080
:101940000E94F00640E061E081E00E94790640E0FC
:1019500061E080E00E94790687E00E94F00683E063
:101960000E94F00640E061E081E00E94790640E0DC
:1019700061E080E00E9479060895CF93C82F40E08F
:1019800061E080E00E9479068BE00E94F0068C2FD7
:101990000E94F00640E061E081E00E947906CF916C
:1019A0000895FF920F931F93CF93DF93EC016FE0A5
:1019B00085E00E94400C6FE084E00E94400C6FE0E4
:1019C00083E00E94400C6FE082E00E94400C209770
:1019D00019F1F12CF3949E01ADECBCEC0E94DD15E5
:1019E0008C01169507951695079516950795A801EC
:1019F000440F551F9801220F331F220F331F220F50
:101A0000331F240F351FBE01621B730B8F2D0E94E5
:101A1000400CE8012097F1F6DF91CF911F910F91D3
:101A2000FF900895CF93DF93D82FC62F9091D903BD
:101A30009F5F9093D903953608F45DC09091DA03C7
:101A4000943008F054C0933081F4682F88E00E94ED
:101A5000400C65E087E00E94400C68E086E00E9450
:101A6000400C6FE085E00E94400C8091DA03811108
:101A700010C06D2F87E00E94400C65E086E00E9458
:101A8000400C68E085E00E94400C6FE088E00E9416
:101A9000400C8091DA03813081F46D2F86E00E9442
:101AA000400C65E085E00E94400C68E088E00E9400
:101AB000400C6FE087E00E94400C8091DA03823096
:101AC00081F46D2F85E00E94400C65E088E00E9463
:101AD000400C68E087E00E94400C6FE086E00E94C6
:101AE000400C8091DA038F5F8093DA0302C010927A
:101AF000DA031092D9038C2F0E94BD0CDF91CF9195
:101B00000895CF93DF93EC012881211121C08981B1
:101B100090E0FC01EE0FFF1FE552FC4F21812230C7
:101B200021F44081322F118225C02A8140E050E00B
:101B300061E87DE082E30E94630EE981F0E0EE0F50
:101B4000FF1FE552FC4F4081318181E0818312C04B
:101B5000213081F48A81E981F0E0EE0FFF1FE55228
:101B6000FC4F8083E981F0E0EE0FFF1FE552FC4F50
:101B700082E08183842F932FDF91CF9108950E947B
:101B8000940881110CC063E672E08EE592E00E9439
:101B90002104811104C0809163020E949C08089571
:101BA000CF93DF93FC016081662349F0EC0121961D
:101BB0008EE592E00E940C0469916111F9CFDF91EA
:101BC000CF910895682F8EE592E00E940C0408954D
:101BD0008EE592E00E943804811108C020E040E0C8
:101BE00050E06FEB7DE083E00E94630E0895109259
:101BF0004A041092490410924C0410924B04089528
:101C000080914D040895CF93DF9300D000D000D091
:101C1000CDB7DEB729833A834B835C836D837E83A4
:101C2000FC012281422F4F5F3481431708F040E0CE
:101C3000FC0133813417B9F030E0D901AA0FBB1F82
:101C40002A0F3B1F220F331FA081B181A20FB31FA8
:101C500026E0FE01319601900D922A95E1F7FC01F4
:101C6000428380E001C082E026960FB6F894DEBF82
:101C70000FBECDBFDF91CF910895CF93DF93EC01DD
:101C80008B81282F2F5F9A818917C9F09C81291792
:101C900008F020E090E0FC01EE0FFF1F8E0F9F1F69
:101CA000880F991FE881F981E80FF91F86E0DB01B1
:101CB00001900D928A95E1F72B8380E001C081E0CD
:101CC000DF91CF910895CF93DF9300D000D000D063
:101CD000CDB7DEB7922FF894262F69837A838C8351
:101CE000642F4D835E839B83372F492F582F7E812E
:101CF00084E692E00E94030E789426960FB6F8943C
:101D0000DEBF0FBECDBFDF91CF9108950F931F931C
:101D1000CF93DF9300D000D000D0CDB7DEB78C01D9
:101D2000BE016F5F7F4F84E692E00E943D0E8111FD
:101D30000AC086E0FE013196D80101900D928A9585
:101D4000E1F780E001C081E026960FB6F894DEBF8F
:101D50000FBECDBFDF91CF911F910F9108951F92BC
:101D60000F920FB60F9211248F939F93AF93BF934F
:101D700080914F0490915004A0915104B09152046D
:101D80000197A105B10569F480914E048F5F80939E
:101D90004E0410924F04109250041092510410926D
:101DA000520416BC80914F0490915004A0915104AC
:101DB000B09152040196A11DB11D80934F049093E0
:101DC0005004A0935104B0935204BF91AF919F91DE
:101DD0008F910F900FBE0F901F901895019729F4C7
:101DE000EEE6F0E080818160808308950E94A70480
:101DF00017B88BEF8AB95A9A5B9A7894EEE6F0E0BE
:101E000080818160808386E486BD83E085BD0E94F9
:101E10005E070E94C5030E94F70D8BEF92E00E94BF
:101E20008B0781E090E00E94EE0E81E08093C9056F
:101E300087E195E19093C7058093C605C9ECD5E08D
:101E40000AEC15E080914E048130B9F4809169026A
:101E50008F5F8093690220E040E050E067E175E128
:101E600081E00E94630E20E040E050E063E775E10E
:101E700082E00E94630E10924E0486EC95E00E9470
:101E8000860E81113FC06091C6057091C70561152E
:101E90007105C1F19881892F8D578B3480F49F3A59
:101EA00048F40E949A0FFC018091C6059091C705E5
:101EB000099528C0892F8D5A0E94910F23C0983C04
:101EC00030F0D8018D919C91FB0109951BC0892FA1
:101ED00082538B3498F48F5F0E949A0FFC0188EC38
:101EE00095E009958881843369F483E00E949A0F14
:101EF000FC01D8018D919C91099504C080E090E08F
:101F0000FB0109950E94000E8091B204813021F0FE
:101F10008091B204811196CF82EB94E00E94A115CA
:101F200091CFE82FF0E0EE0FFF1FE453FA4F7183DB
:101F300060830895E82FF0E0EE0FFF1FE453FA4F9F
:101F40008081918108951F93CF93C82FFB0149E2AF
:101F5000849F412D112442954F701CE91403900178
:101F60001124C9018C0F911D6AE070E00E94C9150F
:101F7000842F805D8083862F805D8183C05D419F3B
:101F8000C00D1124660F862F880F880F680FC61B9F
:101F9000C283CF911F91089520917F04213009F0D1
:101FA0004BC020918004213079F030F02230D1F004
:101FB000233009F041C028C00E94550381113CC064
:101FC00081E08093800438C00E94EF0220E045EA5F
:101FD00053E06EEE7AE088EC0E94630E82E080931C
:101FE00080042AC0FC012181213031F590938204C4
:101FF00080938104828193819093840480938304ED
:1020000083E08093800418C0E0918104F091820401
:102010008681982F990F890F0E94DB0281110CC0D5
:1020200081E080938004E0918304F09184048091A6
:10203000810490918204099580E090E008950F93C7
:102040001F93CF93DF93CDB7DEB728970FB6F894E1
:10205000DEBF0FBECDBF809155049091560401960E
:10206000909356048093550420915704309158045E
:10207000232B71F40E94570C81E090E09093580458
:102080008093570480E590E090935A04809359041C
:1020900067E08DE090E00E94120D20915504309190
:1020A00056042A30310509F08AC040915B04209122
:1020B000590430915A04429FC001439F900D11244E
:1020C00020E137E2281B390B369527953695279561
:1020D000ABE7B4E10E94DD15AC01569547951C8233
:1020E0009A013695322F222737952795241B350BD9
:1020F00036952795369527950E94DD158C01169506
:102100000795BE016F5F7F4F842F0E94A30F43E0AE
:1021100050E06AE470E0CE0101960E94860543E03B
:1021200050E060E670E083E093E00E948605209135
:102130005B04243188F480915C0490915D048832C2
:10214000910550F4019690935D0480935C04109285
:102150005F0410925E0426C02B3798F080915E04D5
:1021600090915F048832910560F42F3F51F01092F6
:102170005D0410925C04019690935F0480935E046A
:1021800011C010925D0410925C0410925F041092D2
:102190005E04109261041092600442E066E080E008
:1021A0000E947906C8010E94D10C90916A0281E0D8
:1021B000892780936A021092560410925504209148
:1021C0005C0430915D04232B31F480915E04909186
:1021D0005F04892BF1F08091600490916104853651
:1021E000910570F010926104109260049091620465
:1021F00081E089278093620442E066E00E947906CC
:1022000080916004909161040196909361048093A1
:10221000600420916304309164042230310508F495
:1022200057C018861F82CE0107960E94AE158F8177
:102230009885292F221F2227221F2D831E822130BD
:10224000D9F4937098878F831C82BE016F5F7F4F94
:1022500080915B040E94A30F40E050E06CE570E0C9
:10226000CE0101960E94860540E050E060E770E0F4
:1022700087E093E00E94860580E098E098878F834E
:10228000CE0107960E94AE1580E090E198878F837B
:10229000CE0107960E94AE158F819885292F221FA7
:1022A0002227221F2D831E82213019F493709887D4
:1022B0008F831092640410926304809165048F37B9
:1022C00020F48F5F8093650403C087538093650477
:1022D0000F37110538F4A80165E070E080E090E068
:1022E0000E949905809163049091640401969093F3
:1022F0006404809363048AE093E00E948B0780E08B
:1023000090E028960FB6F894DEBF0FBECDBFDF91E8
:10231000CF911F910F9108951F93CF93DF9300D01A
:102320001F92CDB7DEB78091660490916704019645
:102330009093670480936604843F914009F0D9C06C
:1023400010925404109267041092660419821A8243
:1023500081E08B83CE0101960E94810D9A8389834F
:102360008A81823009F0AFC0E98185EB90E09093DB
:102370006A0480936904F0E040916B0450916C040E
:102380004E175F0708F042C0CF01841B950B64E62F
:10239000689F9001699F300D11242C3087E0380729
:1023A00090F4A5E8BAE50E94DD150024880F991F76
:1023B000001C880F991F001C892F902D90936E048C
:1023C00080936D0411C03695279536952795A9EA17
:1023D000B8E40E94DD15880F892F881F990B91950D
:1023E00090936E0480936D0480916D0490916E04BF
:1023F000009729F4F0936C04E0936B0448C0840FB9
:10240000951F90936C0480936B0441C0CA018E1B8E
:102410009F0B64E6689F9001699F300D11242C305A
:1024200087E0380790F4A5E8BAE50E94DD1500249E
:10243000880F991F001C880F991F001C892F902D51
:1024400090936E0480936D0411C036952795369550
:102450002795A9EAB8E40E94DD15880F892F881F07
:10246000990B919590936E0480936D0480916D0407
:1024700090916E04009729F4F0936C04E0936B0440
:1024800006C0481B590B50936C0440936B04809119
:102490006B0490916C0480936F049093700480930C
:1024A000E00580935B0414E61093530440E050E091
:1024B00060E070E180E090E00E945C0010926804AF
:1024C0001093530416C0809168048F5F8093680452
:1024D0008A3078F040E050E062E070E180E090E027
:1024E0000E945C008FEF8093E00580935B04109264
:1024F000530480E090E00F900F900F90DF91CF9108
:102500001F9108950E947F0080E090E00895CF938E
:10251000DF9300D01F92CDB7DEB7198281E08A83A6
:1025200082E08B83CE0101960E94810D882329F0E1
:10253000809171048F5F8093710480917104893C54
:1025400010F01092710480917204909173040196BE
:10255000909373048093720484369105B8F080914F
:10256000740490917504A0917604B091770401965B
:10257000A11DB11D8093740490937504A0937604FB
:10258000B093770410927304109272040F900F901E
:102590000F90DF91CF910895CF93DF9300D000D0BB
:1025A000CDB7DEB7809178048F5F80937804893C43
:1025B00099F48091740490917504A0917604B0917F
:1025C00077040196A11DB11D809374049093750446
:1025D000A0937604B09377048091790481119EC012
:1025E00080917A0482FD11C090917B0491110DC0FD
:1025F0000E945A02811177C080917A04846080938E
:102600007A0481E080937B0476C083FD12C08091C0
:102610007B04813009F067C00E945503811163C0BB
:1026200080917A04886080937A0482E080937B04AE
:1026300062C080917B04823009F055C00E94EF0295
:102640000E947D03813009F04EC080917C049091FE
:102650007D04019690937D0480937C0481399140A0
:1026600008F441C083E20E94DB0281113CC0109259
:102670007E0410927D0410927C0482E395E3A5E32E
:10268000B0E089839A83AB83BC8380915304843602
:1026900011F5BE016F5F7F4F80915B040E94A30F15
:1026A00080E193E00E94B1158DEA92E00E94B1159D
:1026B00084E293E00E94B1158CE293E00E94B11590
:1026C0008DEA92E00E94B11583E080937B0481E063
:1026D00080937F0408C0CE0101960E94B1158DEA57
:1026E00092E00E94B11580917B04833021F480E058
:1026F00090E00E94CC0F0E94C00181110FC081E0C8
:102700008093790440E050E068E270E380E090E07C
:102710000E945C0084E393E00E94B1150E94E302F2
:10272000811116C08DE393E00E94B11510927904D7
:1027300080917A048B7F877F80937A0410927B0448
:1027400040E050E060E070E380E090E00E945C00D8
:102750000F900F900F900F90DF91CF91089541E06F
:1027600061E080E00E94520641E062E080E00E9469
:10277000520640E060E081E00E94520680E090E076
:10278000089540E061E081E00E94520640E060E090
:1027900081E00E94520642E067E081E00E9452061A
:1027A00080E090E0089585E493E00E948B070E940A
:1027B000000E0E94C00780E090E00895809185049B
:1027C0009091860401969093860480938504853FBA
:1027D000914040F08FE493E00E94B115109286047E
:1027E0001092850440E062E080E00E94520642E0E0
:1027F00066E081E00E94520640E062E081E00E94D3
:10280000790642E066E080E00E94790680E090E090
:102810000895CF93DF9300D0CDB7DEB72FE78AE1DD
:1028200096E0215080409040E1F700C000000E94F7
:102830005E0720E040E050E061EB70E08DE70E9431
:10284000630E20E040E050E061E87DE08FEA0E9406
:10285000630E8CEC9FE09A838983CE0101960E94DF
:10286000BC0340E061E08BE594E00E94230C0E94F1
:102870004A0184E38093870480E38093780486E3AD
:102880008093880480E090E00F900F90DF91CF91CB
:1028900008958091A704813011F00E94800308956B
:1028A000FC01808190E0DC01AA0FBB1FAA0FBB1FB7
:1028B0008A0F9B1FDC01A757BB4F828193818D93A9
:1028C0009C932181808190E0DC01AA0FBB1FAA0F9D
:1028D000BB1F8A0F9B1FDC01A757BB4F12962C937F
:1028E000808190E0DC01AA0FBB1FAA0FBB1F8A0FDB
:1028F0009B1FDC01A757BB4F1496FC93EE931397D5
:102900000895FC01808190E00197FC01EE0FFF1F0C
:10291000EE0FFF1FEE0FFF1FE81BF90BE559FD4FF0
:1029200081E0858308957F928F929F92AF92BF92AC
:10293000CF92DF92EF92FF920F931F93CF93DF938B
:1029400000D000D01F92CDB7DEB78091A4048111D2
:1029500048C080917002813029F4E0916D02F091BD
:102960006E02099580917702813029F4E09174021A
:10297000F0917502099581E08093A40432C058015A
:10298000F80180818F5F8083F7019081913001F59C
:10299000F801329790818917D8F0F80136970190A5
:1029A000F081E02D09959D838C838D8180FD0EC083
:1029B000798286958A838C818B8382E00E949A0F2C
:1029C000FC01CE0101960995F7011082F5011082F4
:1029D000095F1F4FF7E0EF0EF11C0C151D0579F68E
:1029E00011C001E712E00F2EF0E7EF2EF2E0FF2E0C
:1029F000F02D0F2EFFE7CF2EF2E0DF2EF02D772403
:102A00007394BDCF80E090E00F900F900F900F90E7
:102A10000F90DF91CF911F910F91FF90EF90DF907A
:102A2000CF90BF90AF909F908F907F900895EF923E
:102A3000FF920F931F93CF93DF938091A204811194
:102A40003EC061E874E181E00E94910F60E574E1AD
:102A500083E00E94910F0E94300CCEE7D2E00FEA93
:102A600012E08881813031F4FE0133970190F081CA
:102A7000E02D09952796C017D10799F781E080933B
:102A8000A2048093A3040E94C40319C088818F5FAD
:102A90008883FE0131979081913061F4FE01329775
:102AA0009081891738F0FE0136970190F081E02D72
:102AB000099518822796CE15DF0541F709C0CFE7A3
:102AC000D2E00F2EF0EBEF2EF2E0FF2EF02DDECF56
:102AD0000E949F0880E090E0DF91CF911F910F91BD
:102AE000FF90EF9008950F931F93CF93DF93CBE860
:102AF000D4E004EA14E08091A5049091A604019624
:102B00009093A6048093A5042881213079F4853818
:102B1000934060F0FE0132970190F081E02D8981B1
:102B20009A8109951092A6041092A5042596C017C3
:102B3000D10709F780E090E0DF91CF911F910F91CD
:102B400008952091A304213011F40E94491480912A
:102B5000A704813011F48093A10208950E94C31547
:102B600008950E94C6150895CF93DF93EC018881E4
:102B700099810E941D0999838883DF91CF910895DF
:102B80000E94D00D08950E94B41508950E94C015AA
:102B9000089597FB072E16F4009407D077FD09D00F
:102BA0000E94E91507FC05D03EF4909581959F4F52
:102BB0000895709561957F4F0895A29FB001B39FCE
:102BC000C001A39F01D0B29F700D811D1124911DE2
:102BD0000895AA1BBB1B51E107C0AA1FBB1FA61764
:102BE000B70710F0A61BB70B881F991F5A95A9F7B6
:102BF00080959095BC01CD010895FB01DC018D917C
:102C0000019080190110D9F3990B0895F894FFCF22
:102C10000000E1052000C30196010000000A005EEB
:102C200003A90100000064000F0296010000006487
:102C300000010296010000006400ED019601000011
:102C4000006400E201960100000064005E0391014F
:102C50000000006400B7018F010000006400B001B3
:102C60009601000000E80399019601000000E803C6
:102C70005E037801000000E8035E038801000000A5
:102C8000E803DD0200E30200574946492044495366
:102C9000434F4E4E45435400235561727423003E0A
:102CA000002B495044004F4B0041542B43495043A3
:102CB0004C4F53453D300D0A00474F5420495000BA
:102CC0004E494B48494C0041542B43495053454EC3
:102CD000443D0041542B43574A41503D226E696B9D
:102CE00068696C222C223132333435363738220D64
:102CF0000A0041542B43494653520D0A0041542BBC
:102D00004349505345525645523D312C38300D0AF7
:102D10000041542B4349504D55583D310D0A004157
:102D2000542B43574D4F44453D330D0A00010200DB
:102D300001020300010203CA04000064FF0000FF57
:102D40000000FF0000FF0000FF0000FF0000303126
:102D50003233343536373839414243444546000131
:102D600002030405060708090A0B0C0D0E0FE50304
:102D700000006426580500000F0101A609C50901DD
:102D80000000C809050A0100001F10AF130500006C
:102D90008C11C1130101008212D3130501008712A7
:102DA000DE13050100CC120914050100E80DE80D41
:102DB000050100931493140501002C000D0A004333
:102DC000757272656E742076616C75653A002020AC
:102DD0006368616E6765642076616C75653A00684A
:102DE0000074657374320074657374310053544118
:102DF0005254004441494723000000000000007382
:102E00007769746368207265616400776F726B69BB
:102E10006E6700272F2E00636D006E696E650A00D5
:102E20005761746572204C6576656C204D6F6E69D4
:102E3000746F7200312E4C6576656C00322E4465DD
:102E400062756700484552454F66660A004845521C
:102E5000454F4E0A00496E206F70656E2033006F3B
:062E600070656E340000F5
:00000001FF
