S01D000077617465725F6C6576656C5F696E64696361746F722E7372656351
S11300000C943D000C9465040C945A000C945A0012
S11300100C945A000C945A000C945A000C945A00F4
S11300200C945A000C941B070C945A000C945A001C
S11300300C945A000C945A000C945A000C945A00D4
S11300400C94A40E0C945A000C94E6070C945A00D9
S11300500C945A000C94F5030C94BD050C945A00AE
S11300600C945A000C945A00230026002900240002
S113007027002A00250028002B0011241FBECFEFE3
S1130080D8E0DEBFCDBF13E0A0E0B1E0E0EDFBE2DD
S113009002C005900D92A035B107D9F725E0A0E57F
S11300A0B3E001C01D92A43DB207E1F70E94EB0E3C
S11300B00C94E6150C9400009B013327E091500347
S11300C0F0E0E217F30768F4809351036093500360
S11300D06627707F709353036093520340935403D5
S11300E00895232B59F46627707F809152039091D1
S11300F053036817790711F410925003089560911F
S11301005003662331F1209155033091560388EE54
S113011093E070E00E94A6152617370798F0909197
S1130120570381E0892780935703409154036091DA
S113013051030E94720681E090E0909356038093ED
S1130140550308952F5F3F4F309356032093550373
S11301500895409154036091510380E00E94720617
S113016008954F925F926F927F928F929F92AF9277
S1130170BF92CF92DF92EF92FF920F931F93CF9390
S1130180DF931F92CDB7DEB77C0186E289830F2E01
S1130190F6E0AF2EF1E0BF2EF02D0F2EF5E0CF2EBE
S11301A0F1E0DF2EF02D02E711E0512C752C99249B
S11301B093944AC0C901D90112974C91413011F569
S11301C0663201F1AF016080D90114970D90BC91A2
S11301D0A02DA60DB11DAC916A130FC0D9014C908E
S11301E0641410F463946082DA014C91DC018C9104
S11301F0481308C0872C792D05C0D9018C91681645
S113020008F41082275F3F4F39962017310791F683
S11302107093590380925A037130B1F48981863204
S113022009F1E82DF0E0E55AFC4F8083982D9F5F9B
S113023090935A039C3111F08A3031F4509259034F
S113024050925A0390927A03CE010196F7010995D0
S113025081110CC069817091590380905A039501F2
S1130260F601A8CFFCE18F12EFCFE8CF80E090E059
S11302700F90DF91CF911F910F91FF90EF90DF903E
S1130280CF90BF90AF909F908F907F906F905F9032
S11302904F900895CF93DF93E6E0F1E082E791E099
S11302A0EF012497A881B981ED0109900020E9F7B5
S11302B02197CA1BDB0BC0833996E817F90781F72E
S11302C081E080935E0180930D0180936701DF914B
S11302D0CF9108951F93CF93DF9300D000D0CDB773
S11302E0DEB780917E0389831A82CE0101960E9433
S11302F08E1584EA92E00E948E1520917F0330913E
S11303008003E22F49E2249F412D112442954F702E
S11303101CE91403C0011124820F911D6AE070E0EE
S11303200E94A615842F805D8983862F805D8A8331
S1130330E05D419FE00D1124660F962F990F990FF0
S1130340690FE61BEB831C822A3031051CF4E98318
S11303501A8206C0243631051CF48983EA831B8281
S1130360CE0101960E948E1586EA92E00E948E15B7
S11303700F900F900F900F90DF91CF911F910895E0
S113038090915F0180916001981304C010925F0105
S113039080E0089582E00895813029F410927D036D
S11303A010927C030BC0823049F480917C039091BD
S11303B07D03019690937D0380937C0380917C035D
S11303C090917D0308950F931F93CF93DF93C82FCC
S11303D080917B03811127C00C2F10E0F801EE0FF0
S11303E0FF1FEE0FFF1FEE0FFF1FE00FF11FE05086
S11303F0FF4F808191810E948E15C73011F40E94B5
S11304006A01F801EE0FFF1FEE0FFF1FEE0FFF1F33
S11304100E0F1F1FF801E050FF4F81E0848380938B
S11304207B030E94CC01D0E0FE01EE0FFF1FEE0F14
S1130430FF1FEE0FFF1FEC0FFD1FE050FF4F9581D4
S11304408681981311C0FE01EE0FFF1FEE0FFF1FF0
S1130450EE0FFF1FEC0FFD1FE050FF4F14821582BB
S113046010927B0310E001C011E082E00E94CC01F5
S1130470FE01EE0FFF1FEE0FFF1FEE0FFF1FEC0F2D
S1130480FD1FE050FF4F278130852817390760F49E
S11304901482158210927D0310927C0310927B03C8
S11304A081E00E94CC0112E0812FDF91CF911F9156
S11304B00F91089580918103811106C084E0809397
S11304C0820381E080938103809182030E94E3018F
S11304D081110BC0809182038F5F809382038630E9
S11304E089F51092810380E00895823069F5809146
S11304F08303853000F120918203223031F410927D
S113050083031092810382E017C0E22FF0E0CF0151
S1130510880F991F880F991F880F991FE80FF91FDB
S1130520E050FF4F148215822150209382031092D1
S1130530830381E001C081E0909183039F5F9093E6
S11305408303089581E0089581E00895FC01E60F96
S1130550F11D2081222389F0241306C002C0241334
S113056003C0862F8F5F08956F5FFC01E60FF11DB6
S113057020812111F4CF80E0089580E0089542178E
S113058070F4FB0130E0DC01A40FB11D5C915193C8
S11305903F5F4F5F421720F43430A9F701C030E0C9
S11305A0FC01E40FF11D8081FB01E30FF11D808349
S11305B030939603089580937F031092800387E01D
S11305C00E94E301089590910E0180910F01981308
S11305D004C010920E0180E0089582E008950F9304
S11305E01F93CF93DF9380917A03813009F048C041
S11305F080933A0110923B014CE260E08BE593E07A
S11306000E94A602C82F4CE2682F8BE593E00E945B
S1130610A602082F282F4C2F67E873E08BE593E0A0
S11306200E94BF02C7E8D3E0888180937E034AE337
S1130630602F8BE593E00E94A602182F282F402FED
S1130640BE018BE593E00E94BF02C881C093990369
S11306508091880380939A0310939803C10FC093E9
S113066097032C2F412F67E873E08BE593E00E94FA
S1130670BF02EC2FF0E0EB57FC4F108210927A038C
S11306809091680180916901981303C081E080937F
S11306909A04DF91CF911F910F9108958091840363
S11306A0811108C086E08093850381E080938403F0
S11306B08093860380911702882339F086E00E9494
S11306C0E3018093170281E0089580917A038130D9
S11306D059F410928403109286030E94EF0281E081
S11306E08093170280E0089581E0089580916E015F
S11306F0089560916C0170916D0187E893E00E9408
S1130700DD15282F392F232B21F481E080936E01EE
S113071002C010926E0160916F017091700187E8C0
S113072093E00E94DD15282F392F232B19F0109206
S11307307101089581E080937101089521E220936D
S113074079032091A303E22FF0E0E55AFC4F3781AF
S1130750FC013083273121F41092A30381E0089532
S11307602F5F2093A30380E00895FC012081209350
S1130770770381818093780308950895EAE7F0E090
S1130780808187608083ACE7B0E08C91806C8C932F
S11307908C9180628C938081886080830895EAE7DD
S11307A0F0E0908190689083ACE7B0E09C91987FF2
S11307B09C939C91892B8C93808180648083089581
S11307C080917A0080740895809178002091790056
S11307D0829586958695837030E0220F331F220F11
S11307E0331F282B822F932F08951F920F920FB639
S11307F00F9211248F9380917800809179008F91CA
S11308000F900FBE0F901F901895FC019281892FB5
S11308108F5F2481821708F080E02381281741F03C
S1130820A081B181A90FB11D6C93828380E00895EA
S113083082E00895FC018381982F9F5F22818217B3
S113084071F02481921708F090E0A081B181A80F83
S1130850B11D8C91DB018C93938380E0089581E03A
S11308600895FC0181E023819281291380E0089599
S1130870FC0193818281891720F42481820F891BD2
S11308800895891B089542E067E080E00E947206A3
S113089000C042E067E081E00E94720600C000C030
S11308A0000042E067E080E00E9472060895813013
S11308B031F4E9E6F0E08081816080830895E9E61F
S11308C0F0E080818160808308951F920F920FB6BB
S11308D00F9211242F933F934F935F936F937F93C2
S11308E08F939F93AF93BF93EF93FF938091A40350
S11308F081110AC00E94EF0680E090E00E94570434
S113090081E08093A4030BC00E940A0781E090E079
S11309100E9457041092A40381E08093A503FF91E1
S1130920EF91BF91AF919F918F917F916F915F9163
S11309304F913F912F910F900FBE0F901F901895DC
S113094081E090E00E945704E89A1092A40381E0A9
S11309508093A5030895CF93DF93EC018091A603C0
S1130960823060F081E00E9457040E944304109298
S1130970A5031092A4031092A6033BC09091A50373
S1130980913099F52091B3048091B1049091B2040F
S11309903FEF239F800D911D11249093B204809307
S11309A0B1042091B1043091B20422953295307F84
S11309B03227207F3227AFE9B6E40E94BA15929518
S11309C082958F7089279F7089279093B2048093B2
S11309D0B104C091B104D091B204D0681092A603BE
S11309E01092A5030E94430404C0D0618F5F8093DA
S11309F0A6038C2F9D2FDF91CF910895ECEBF0E0AF
S1130A00108294EA908390819923ECF79091B90035
S1130A10987F9830A1F48093BB0084E88093BC0055
S1130A20ECEBF0E080818823ECF79091B900987F9B
S1130A30983139F081E0903429F480E0089581E020
S1130A40089580E008958093BB0084E88093BC00FF
S1130A50ECEBF0E080818823ECF79091B900987F6B
S1130A6081E0983209F480E0089584E98093BC0021
S1130A7008951F93CF93DF93C82F88E70E94FE0445
S1130A8081111BC080E40E942305C0528C2F90E08A
S1130A90EC01CC0FDD1F8C0F9D1FEC01CC0FDD1F73
S1130AA0CD51DD4F10E089910E942305811105C0CD
S1130AB01F5F1630C1F70E943505DF91CF911F915A
S1130AC00895CF93DF93C82FD62F88E70E94FE04A2
S1130AD0811112C00E9423058D2F80550E94230589
S1130AE08C2F8F700E9423058C2F82958F708061CC
S1130AF00E9423050E943505DF91CF910895CF937D
S1130B00DF93EC01862F642F0E946105888188237E
S1130B1031F021960E94390589918111FBCFDF9133
S1130B20CF910895CF93DF93D42F0E94610588E776
S1130B300E94FE04811119C080E40E942305D11192
S1130B4002C0CD2F0AC0C0E08FEF0E942305CF5F03
S1130B50CD13FACFDF37A8F306C081E00E94230546
S1130B60CF5FCF37D0F30E943505DF91CF91089541
S1130B70FB9882E08093180208951F920F920FB69B
S1130B800F9211242F933F934F935F936F937F930F
S1130B908F939F93AF93BF93EF93FF938091B90487
S1130BA0811127C08091BC04882301F181E08093E6
S1130BB018028091B7049091B80492BD81BD01964A
S1130BC09093B8048093B7048091BC0481508093BF
S1130BD0BC048091BC04E091B504F091B604E80F24
S1130BE0F11D808180BDFA9AF99A44C00E94B8052B
S1130BF041C02091B7043091B8048091BA04909117
S1130C00BB048217930750F181E08093180280910E
S1130C10B7049091B80492BD81BD01969093B80435
S1130C208093B704F89A9091B40480B5E091B50428
S1130C30F091B604E90FF11D80838091B404E09132
S1130C40B504F091B604E80FF11D80810E9490076D
S1130C508091B40481508093B4040CC089EE92E076
S1130C600E94BD070E94B8051092B4041092BB0400
S1130C701092BA04FF91EF91BF91AF919F918F9120
S1130C807F916F915F914F913F912F910F900FBE84
S1130C900F901F901895E42FF0E0EE0FFF1FE2591C
S1130CA0FF4F25913491E22FF32F813069F4208195
S1130CB081E090E0AC0102C0440F551F6A95E2F751
S1130CC0BA01622B60830895208181E090E0AC0139
S1130CD002C0440F551F6A95E2F7BA01609562237A
S1130CE060830895E42FF0E0EE0FFF1FEC58FF4FF0
S1130CF025913491E22FF32F813069F4208181E032
S1130D0090E0AC0102C0440F551F6A95E2F7BA01A6
S1130D10622B60830895208181E090E0AC0102C0E1
S1130D20440F551F6A95E2F7BA0160956223608308
S1130D300895E42FF0E0EE0FFF1FE859FF4F2591CF
S1130D403491E22FF32F408121E030E0F90102C019
S1130D50EE0FFF1F6A95E2F7BF016423FC01608375
S1130D60089584B18C6284B981E58CBD08952CB555
S1130D7030E2839FC0011124822B8CBD0895823000
S1130D8031F0883021F0803211F08034A1F44CB578
S1130D90E82FF0E0E75EFD4F21E030E0C90100807C
S1130DA002C0880F991F0A94E2F7842B8CBD8DB57D
S1130DB081608DBD0895843021F0803111F0803838
S1130DC019F4ECB58E2B8CBD08958CB588608CBD60
S1130DD008958EBD0DB407FEFDCF8EB50895109213
S1130DE0B3041092B004E1EBF0E08081866080836C
S1130DF0E0E7F0E08081816080831092B20010927D
S1130E00B2041092B10408951092B10081E080936D
S1130E10B0040895CF93DF93C2EBD0E0888190E0D3
S1130E209093B2048093B1040E94040718828881CD
S1130E30DF91CF9108951F920F920FB60F92112454
S1130E408F938091B3048F5F8093B3048F910F903D
S1130E500FBE0F901F9018959093A3048093A20443
S1130E6008950F931F93CF93DF931F92CDB7DEB7EF
S1130E708C01BE016F5F7F4F81E292E00E941A04F1
S1130E80811105C08981F801808380E001C081E07F
S1130E900F90DF91CF911F910F91089520E041E3CE
S1130EA057E063EE7AE088EC0E94580E08951092A1
S1130EB0A40488E98093C1008EE08093C20010925C
S1130EC0C50088E08093C4001092A3041092A20489
S1130ED06CE277E080E00E94860F089520E030E025
S1130EE000000000000000000000000000000000FE
S1130EF00000000000000000000000002F5F3F4FD2
S1130F008217930768F708958093C600E0ECF0E039
S1130F10808186FFFDCF88EE93E00E946E070895DE
S1130F20CF93DF93282F39E2839F312D11243295FB
S1130F303F704CE94303C0011124820F911D6AE004
S1130F4070E00E94A615D62F205DC22F349FC00DDD
S1130F50112480E3830F0E94840780E38D0F0E9495
S1130F608407DD0F8D2F880F880FD80F8C2F8D1BD2
S1130F700E948407DF91CF910895EF92FF920F931F
S1130F801F93CF93DF93FC0190819923C1F08F01CC
S1130F900F5F1F4F0F2EF6ECEF2EF12CF02DC0EC4F
S1130FA0D0E0F7019083888186FFFDCF88EE93E03F
S1130FB00E946E07F80191918F019111F2CFDF9198
S1130FC0CF911F910F91FF90EF9008951F920F9270
S1130FD00FB60F9211242F933F934F935F936F9308
S1130FE07F938F939F93AF93BF93EF93FF93CF938D
S1130FF0DF931F92CDB7DEB78091C6008093A00423
S11310006091A00481E292E00E9405048091A00412
S1131010843611F41092A404E091A404F0E08091C9
S1131020A004E556FB4F80838091A4048F5F8093D6
S1131030A4048091A404853031F580919B04843606
S113104001F580919C048536E1F480919D048236FB
S1131050C1F480919E048537A1F480919F04873662
S113106081F403C089810E948407BE016F5F7F4FB2
S113107081E292E00E941A048823A1F381E0809324
S1131080A7031092A4046091A2047091A3046115B3
S1131090710559F08091A703811107C020E041E355
S11310A057E088EC0E94580E20C08091A70382303C
S11310B081F464E181E292E00E9438048431A8F072
S11310C020E041E357E06EE477E088EC0E94580E9C
S11310D00CC0813051F482E08093A703BE016F5F9E
S11310E07F4F81E292E00E941A040F90DF91CF912A
S11310F0FF91EF91BF91AF919F918F917F916F91EC
S11311005F914F913F912F910F900FBE0F901F90C1
S113111018958091C00085FB882780F991E0892784
S113112008958093C6000895CF93DF938091BD0303
S1131130811137C02091BE03822F90E0FC01EE0F95
S1131140FF1FE80FF91FEA5DFD4F3281313029F5A9
S1131150FC01EE0FFF1FE80FF91FEA5DFD4F31811F
S113116031111BC0FC01EE0FFF1F8E0F9F1FFC01EE
S1131170EA5DFD4F80810E94CF038091BE0390E021
S1131180FC01EE0FFF1F8E0F9F1FFC01EA5DFD4F58
S113119081E081838093BD033AC02F5F2093BE0317
S11311A036C00E94E003811132C08091BE0390E0FA
S11311B0FC01EE0FFF1FE80FF91FEA5DFD4F2181CF
S11311C0213029F5FC01EE0FFF1F8E0F9F1FFC013C
S11311D0EA5DFD4FC081D0E00E94E403CC0FDD1F27
S11311E0C855DC4F998388832091BE03822F90E0F9
S11311F0FC01EE0FFF1F8E0F9F1FFC01EA5DFD4FE8
S113120082E081832F5F2093BE031092BD038091FF
S1131210BE03863011F41092BE0380E090E0DF91AB
S1131220CF910895CF93DF9300D0CDB7DEB79A83E3
S113123089838A8186958695869587708093BC0379
S11312403091BC0380912602381741F0E9E2F2E0C4
S113125081E090E02081321313C002C080E090E06E
S1131260DC01AA0FBB1FA80FB91FAA5DBD4F1196C1
S11312702C918093BF03223099F120E030E048C0E4
S1131280019633968630910529F745C010922802BD
S113129011C0822F90E0FC01EE0FFF1F8E0F9F1FE5
S11312A0FC01EA5DFD4F8281882321F081E0809377
S11312B0C10339C08091C103811135C0822F90E0F0
S11312C03091BC03FC01EE0FFF1FE80FF91FEA5D2C
S11312D0FD4F308381E082832F5F2093C00323C0BE
S11312E0E32FF0E0EE0FFF1FE855FC4F2081318122
S11312F0306899274091BC03FC01EE0FFF1F8E0F4D
S11313009F1FFC01EA5DFD4F4083118281E08283CF
S1131310822F932F0BC01092BF032091C00326305D
S113132009F0B7CFB3CF20E030E0F2CF0F900F90A9
S1131330DF91CF910895CF93DF9300D0CDB7DEB77F
S113134080E090E00E94AB049A8389838A8180388C
S113135011F0811108C08091C203982F9F5F909370
S1131360C2039A8102C0898191E00F900F90DF91AE
S1131370CF91089580E090E00895CF93DF9300D05B
S11313801F92CDB7DEB740E062E0CE0101960E9425
S1131390990689819091C303891308C09091C4036D
S11313A09F5F9093C4038093C30304C01092C4034B
S11313B08093C3038091C4038A3028F08981809389
S11313C0C5031092C4038091C6038F5F8093C60344
S11313D0893C28F082E08B831092C60302C083E02C
S11313E08B838091C5039B810F900F900F90DF91A9
S11313F0CF91089580E090E00895982F90539A300B
S113140030F4E82FF0E0E85EFD4F80810895982FD6
S11314109154963030F4E82FF0E0EF5EFD4F808178
S1131420089580E00895DF92EF92FF920F931F9347
S1131430CF93DF937C018AE00E94D70DD7011C96DD
S11314408C91882369F1D12CF701ED0DF11DB58143
S1131450DB2F80E0C82F84818E01082BD801EC910A
S1131460E295EF70F0E0E85CFD4F80810E94D70DBB
S1131470D801EC91EF70F0E0E85CFD4F80810E94B0
S1131480D70D80E20E94D70DD394D3942D2D30E054
S1131490F701848590E0880F991F28173907A4F273
S11314A080E090E0DF91CF911F910F91FF90EF903A
S11314B0DF900895EF92FF920F931F93CF93DF93E2
S11314C08C01FC01F580E12C8481E82AE7018AE0A3
S11314D00E94D70DF80186818823D1F0E881E29536
S11314E0EF70F0E0E85CFD4F80810E94D70DE99138
S11314F0EF70F0E0E85CFD4F80810E94D70D80E240
S11315000E94D70D9C2F9E19F8018681981730F3FD
S113151080E090E0DF91CF911F910F91FF90EF90C9
S11315200895DF92EF92FF920F931F93CF93DF936F
S11315308C01FC01F581DF2F80E0C82FF801848144
S1131540C82B8AE00E94D70DF8018485882339F1DD
S1131550D12C0F2EF2E2EF2EF5E0FF2EF02DE881D4
S1131560E295EF70F0E0E85CFD4F80810E94D70DBA
S1131570E881EF70F0E0E85CFD4F80810E94D70DB8
S113158080E20E94D70DF801ED0DF11D868189934B
S1131590F7011082D394F8018485D81600F320E073
S11315A030E041E255E061E070E084E390E00E94C5
S11315B0580E80E090E0DF91CF911F910F91FF9042
S11315C0EF90DF900895CF92DF92EF92FF920F9306
S11315D01F93CF93DF9300D01F92CDB7DEB78C015A
S11315E08AE59AE09B838A83D12CF12CE12C31C0CB
S11315F029E02F1538F1D1100EC089810E94FD0910
S1131600EF2DF0E0E953FC4F20E1829FC00111244B
S11316108083D3941EC081E0D8120DC0CF2CD12C6E
S113162089810E94FD09F601E953FC4F8F70908176
S1131630892B808304C0D394E2E0DE120AC0F394C1
S1131640DE2C07C0EF2DF0E0E953FC4F8981808345
S1131650F394CE010196F8010995882349F280910B
S1131660C7038B3A71F58091CA0381111AC0109295
S1131670210581E0809322058A81809323058B8153
S1131680809324058091C903809325058091C80324
S1131690809326058091CB038093270580932D05A5
S11316A09BC0813009F098C01092220520E030E000
S11316B041E255E061E070E084E390E00E94580E5E
S11316C08BC08C3A99F581E99AE09B838A831092C6
S11316D0210591E090932205809323058B818093CB
S11316E024058091C903809325058091C8038093C4
S11316F026058091CA03809327058091CB038093AC
S113170028058091CC03809329058091CD03809393
S11317102A058091CE0380932B058091CF0380937B
S11317202C058091D00380932D0556C08D3F99F5EB
S113173083E19AE09B838A831092210591E0909340
S11317402205809323058B81809324058091C9030E
S1131750809325058091C803809326058091CB034F
S1131760809327058091CA03809328058091CD0337
S1131770809329058091CC0380932A058091CF031F
S113178080932B058091CE0380932C058091D00308
S113179080932D0521C08D3BF9F41092210581E041
S11317A0809322058A81809323058B81809324056D
S11317B0E091C803F0E0EE0FFF1FEE0FFF1FE95C9E
S11317C0FA4F80818093250581818093260583814A
S11317D08093270580932D058981813289F4609156
S11317E0D2037091D303709336056093350520E0DE
S11317F030E041E255E089EC90E00E94580E0AC0C6
S113180020E030E041E255E061E070E084E390E004
S11318100E94580E80E090E00F900F900F90DF919F
S1131820CF911F910F91FF90EF90DF90CF9008958B
S1131830E42FF0E0EE0FFF1FEE0FFF1FE95CFA4FFD
S1131840918380834283638308951092A90481E085
S11318508093AA048093AB0494E09093AC0495E045
S11318609093AD048093AE040895CF93DF93D82F63
S1131870C62F40E061E080E00E9472068D2F0E9436
S1131880E9068C2F0E94E90640E061E081E00E94B5
S11318907206DF91CF91089540E061E080E00E94FC
S11318A072060E94B10680E00E94B70680E00E94A2
S11318B0BF0682E00E94E50640E061E080E00E940D
S11318C0720689E00E94E9068FEF0E94E90640E073
S11318D061E081E00E94720640E061E080E00E94E5
S11318E072068BE00E94E90681E00E94E90640E06E
S11318F061E081E00E94720640E061E080E00E94C5
S113190072068CE00E94E90681E00E94E90640E04C
S113191061E081E00E94720640E061E080E00E94A4
S113192072068AE00E94E90683E00E94E90640E02C
S113193061E081E00E94720640E061E080E00E9484
S1131940720687E00E94E90683E00E94E90640E00F
S113195061E081E00E94720640E061E080E00E9464
S113196072060895CF93C82F40E061E080E00E94A2
S113197072068BE00E94E9068C2F0E94E90640E083
S113198061E081E00E947206CF910895FF920F9367
S11319901F93CF93DF93EC016FE085E00E94350C39
S11319A06FE084E00E94350C6FE083E00E94350C08
S11319B06FE082E00E94350C209719F1F12CF3942A
S11319C09E01ADECBCEC0E94BA158C0116950795EE
S11319D01695079516950795A801440F551F98016C
S11319E0220F331F220F331F220F331F240F351FE3
S11319F0BE01621B730B8F2D0E94350CE8012097EA
S1131A00F1F6DF91CF911F910F91FF900895CF933D
S1131A10DF93D82FC62F9091D3039F5F9093D30366
S1131A20953608F45DC09091D403943008F054C006
S1131A30933081F4682F88E00E94350C65E087E0DC
S1131A400E94350C68E086E00E94350C6FE085E06A
S1131A500E94350C8091D403811110C06D2F87E052
S1131A600E94350C65E086E00E94350C68E085E054
S1131A700E94350C6FE088E00E94350C8091D403FD
S1131A80813081F46D2F86E00E94350C65E085E09D
S1131A900E94350C68E088E00E94350C6FE087E016
S1131AA00E94350C8091D403823081F46D2F85E03F
S1131AB00E94350C65E088E00E94350C68E087E000
S1131AC00E94350C6FE086E00E94350C8091D403AF
S1131AD08F5F8093D40302C01092D4031092D30377
S1131AE08C2F0E94B20CDF91CF910895CF93DF9396
S1131AF0EC012881211121C0898190E0FC01EE0FC5
S1131B00FF1FEB52FC4F2181223021F44081322F00
S1131B10118225C02A8140E050E066E77DE082E33F
S1131B200E94580EE981F0E0EE0FFF1FEB52FC4FCC
S1131B304081318181E0818312C0213081F48A8126
S1131B40E981F0E0EE0FFF1FEB52FC4F8083E98147
S1131B50F0E0EE0FFF1FEB52FC4F82E08183842FF5
S1131B60932FDF91CF9108950E94890881110CC0B1
S1131B7068E572E089E592E00E941A04811104C0CC
S1131B80809158020E9491080895CF93DF93FC013D
S1131B906081662349F0EC01219689E592E00E9478
S1131BA0050469916111F9CFDF91CF910895682FF0
S1131BB089E592E00E940504089589E592E00E9477
S1131BC03104811108C020E040E050E064EB7DE086
S1131BD083E00E94580E0895109244041092430426
S1131BE01092460410924504089580914704089584
S1131BF0CF93DF9300D000D000D0CDB7DEB72983D8
S1131C003A834B835C836D837E83FC012281422F64
S1131C104F5F3481431708F040E0FC0133813417EF
S1131C20B9F030E0D901AA0FBB1F2A0F3B1F220FC6
S1131C30331FA081B181A20FB31F26E0FE013196AC
S1131C4001900D922A95E1F7FC01428380E001C0E6
S1131C5082E026960FB6F894DEBF0FBECDBFDF91AB
S1131C60CF910895CF93DF93EC018B81282F2F5FC1
S1131C709A818917C9F09C81291708F020E090E027
S1131C80FC01EE0FFF1F8E0F9F1F880F991FE88125
S1131C90F981E80FF91F86E0DB0101900D928A9526
S1131CA0E1F72B8380E001C081E0DF91CF910895BB
S1131CB0CF93DF9300D000D000D0CDB7DEB7922F02
S1131CC0F894262F69837A838C83642F4D835E83F3
S1131CD09B83372F492F582F7E818EE592E00E94F7
S1131CE0F80D789426960FB6F894DEBF0FBECDBFDC
S1131CF0DF91CF9108950F931F93CF93DF9300D07B
S1131D0000D000D0CDB7DEB78C01BE016F5F7F4F2E
S1131D108EE592E00E94320E81110AC086E0FE0137
S1131D203196D80101900D928A95E1F780E001C0C7
S1131D3081E026960FB6F894DEBF0FBECDBFDF91CB
S1131D40CF911F910F9108951F920F920FB60F928A
S1131D5011248F939F93AF93BF93809149049091E3
S1131D604A04A0914B04B0914C040197A105B1051C
S1131D7069F4809148048F5F809348041092490469
S1131D8010924A0410924B0410924C0416BC809199
S1131D90490490914A04A0914B04B0914C040196DB
S1131DA0A11DB11D8093490490934A04A0934B0450
S1131DB0B0934C04BF91AF919F918F910F900FBE40
S1131DC00F901F901895019729F4EEE6F0E08081BA
S1131DD08160808308950E94A00417B88BEF8AB9AC
S1131DE05A9A5B9A7894EEE6F0E080818160808371
S1131DF086E486BD83E085BD0E9457070E94BE032A
S1131E000E94EC0D85EF92E00E94BD0781E090E016
S1131E100E94E30E81E08093BC0584EF94E19093EB
S1131E20BA058093B905CCEBD5E00DEB15E08091B4
S1131E3048048130B9F4809163028F5F8093630218
S1131E4020E040E050E064EF74E181E00E94580E2D
S1131E5020E040E050E060E575E182E00E94580E29
S1131E601092480489EB95E00E947B0E81113FC0DB
S1131E706091B9057091BA0561157105C1F1988138
S1131E80892F8D578B3480F49F3A48F40E948F0F2A
S1131E90FC018091B9059091BA05099528C0892F54
S1131EA08D5A0E94860F23C0983C30F0D8018D9142
S1131EB09C91FB0109951BC0892F82538B3498F4A4
S1131EC08F5F0E948F0FFC018BEB95E00995888151
S1131ED0843369F483E00E948F0FFC01D8018D9153
S1131EE09C91099504C080E090E0FB0109950E9453
S1131EF0F50D8091A504813021F08091A504811114
S1131F0096CF85EA94E00E947E1591CFE82FF0E009
S1131F10EE0FFF1FE154FA4F718360830895E82F99
S1131F20F0E0EE0FFF1FE154FA4F80819181089594
S1131F30282FFB0139E2839F312D112432953F7004
S1131F404CE94303C0011124820F911D6AE070E043
S1131F500E94A61580E3830F808380E3860F81832C
S1131F60205D349F200D1124660F862F880F880F63
S1131F70680F261B228308959C0190917004913070
S1131F8009F04AC0F90180915304813071F028F0BE
S1131F908230C9F0833041F13FC00E944E03811169
S1131FA03BC081E08093530437C00E94EF0220E0DD
S1131FB04EE953E063EE7AE088EC0E94580E82E02A
S1131FC08093530429C08181813031F530935204C8
S1131FD020935104828193819093500480934F0401
S1131FE083E08093530418C0E0915104F0915204AB
S1131FF08681982F990F890F0E94DB0281110CC0F2
S113200081E080935304E0914F04F0915004809157
S1132010510490915204099580E090E008950F9343
S11320201F93CF93DF93CDB7DEB728970FB6F894FD
S1132030DEBF0FBECDBF80916E0490916F040196F8
S113204090936F0480936E0480916C0490916D045E
S1132050892B71F40E944C0C81E090E090936D0404
S113206080936C0480E590E09093720480937104F3
S113207067E08DE090E00E94070D80916E049091DE
S11320806F040A9709F08CC040917A04209171047E
S113209030917204429FC001439F900D112420E1AE
S11320A037E2281B390B3695279536952795ABE7EC
S11320B0B4E10E94BA15AC01569547951C829A0169
S11320C03695322F222737952795241B350B3695C5
S11320D02795369527950E94BA158C011695079574
S11320E0BE016F5F7F4F842F0E94980F43E050E042
S11320F06AE470E0CE0101960E947F0543E050E05F
S113210060E670E08DEF92E00E947F0580917A0492
S1132110843190F420916A0430916B0428323105A3
S113212058F42F5F3F4F30936B0420936A0410924E
S113213069041092680427C08B37A0F020916804CA
S1132140309169042832310568F48F3F59F01092B8
S11321506B0410926A042F5F3F4F309369042093FD
S1132160680411C010926B0410926A0410926904FE
S113217010926804109267041092660442E066E0CC
S113218080E00E947206C8010E94C60C909164020D
S113219081E089278093640210926F0410926E0488
S11321A080916A0490916B04892B31F480916804C6
S11321B090916904892BF1F08091660490916704F1
S11321C08536910570F01092670410926604909120
S11321D0650481E089278093650442E066E00E94FB
S11321E07206809166049091670401969093670447
S11321F0809366048091630490916404029708F4C8
S113220057C018861F82CE0107960E948B152F8116
S11322103885832F881F8827881F8D831E828130ED
S1132220D9F4337038872F831C82BE016F5F7F4FD0
S113223080917A040E94980F40E050E06CE570E0D1
S1132240CE0101960E947F0540E050E060E770E017
S113225081E093E00E947F0580E098E098878F8377
S1132260CE0107960E948B1580E090E198878F83BA
S1132270CE0107960E948B152F813885832F881FE6
S11322808827881F8D831E82813019F43370388724
S11322902F831092640410926304809162048F3738
S11322A020F48F5F8093620403C087538093620499
S11322B00F37110538F4A80165E070E080E090E084
S11322C00E94920580916304909164040196909316
S11322D064048093630484E093E00E94BD0780E07B
S11322E090E028960FB6F894DEBF0FBECDBFDF9105
S11322F0CF911F910F9108951F93CF93DF9300D037
S11323001F92CDB7DEB7809160049091610401966D
S11323109093610480936004843F914009F0CDC0A0
S113232010927904109261041092600419821A8246
S113233081E08B83CE0101960E94760D9A83898376
S11323408A81823009F0A3C0498150E0E0915D04A4
S1132350F0915E04E417F50708F042C0CA018E1B31
S11323609F0B64E6689F9001699F300D11242C3007
S113237087E0380790F4A5E8BAE50E94BA1500246E
S1132380880F991F001C880F991F001C892F902DFE
S113239090935C0480935B0411C036952795369521
S11323A02795A9EAB8E40E94BA15880F892F881FD7
S11323B0990B919590935C0480935B0480915B04EA
S11323C090915C04009729F450935E0440935D045B
S11323D048C0E80FF91FF0935E04E0935D0441C028
S11323E0CF01841B950B64E6689F9001699F300DB3
S11323F011242C3087E0380790F4A5E8BAE50E9450
S1132400BA150024880F991F001C880F991F001CFF
S1132410892F902D90935C0480935B0411C03695B2
S1132420279536952795A9EAB8E40E94BA15880F2E
S1132430892F881F990B919590935C0480935B047A
S113244080915B0490915C04009729F450935E049E
S113245040935D0406C0E81BF90BF0935E04E0931F
S11324605D0480915D048093D30580937A0414E61F
S11324701093780440E050E060E070E180E090E088
S11324800E945C0010925F041093780416C080913F
S11324905F048F5F80935F048A3078F040E050E0FF
S11324A062E070E180E090E00E945C008FEF809336
S11324B0D30580937A041092780480E090E00F9022
S11324C00F900F90DF91CF911F9108950E947F008C
S11324D080E090E00895CF93DF9300D01F92CDB7B2
S11324E0DEB7198281E08A8382E08B83CE01019674
S11324F00E94760D882329F080915A048F5F80937F
S11325005A0480915A04893C10F010925A04809124
S11325105804909159040196909359048093580457
S113252084369105B8F08091730490917404A0915D
S11325307504B09176040196A11DB11D80937304B6
S113254090937404A0937504B09376041092590484
S1132550109258040F900F900F90DF91CF9108952F
S1132560CF93DF9300D000D0CDB7DEB7809177044E
S11325708F5F80937704893C99F4809173049091E0
S11325807404A0917504B09176040196A11DB11D47
S11325908093730490937404A0937504B0937604A9
S11325A08091570481119DC080917B0482FD11C0EC
S11325B09091560491110DC00E945A02811176C067
S11325C080917B04846080937B0481E08093560433
S11325D075C083FD12C080915604813009F066C035
S11325E00E944E03811162C080917B0488608093B5
S11325F07B0482E08093560461C08091560482304B
S113260009F054C00E94EF020E947603813009F061
S11326104DC08091540490915504019690935504B3
S1132620809354048139914008F440C083E20E94AD
S1132630DB0281113BC0109255041092540482E3D2
S113264095E39A83898385E390E09C838B831C8242
S113265080917804843611F5BE016F5F7F4F8091BD
S11326607A040E94980F8AE093E00E948E1587EA0C
S113267092E00E948E158EE193E00E948E1586E210
S113268093E00E948E1587EA92E00E948E1583E003
S11326908093560481E08093700408C0CE010196B3
S11326A00E948E1587EA92E00E948E15809156044E
S11326B0833021F480E090E00E94BC0F0E94C001AE
S11326C081110FC081E08093570440E050E068E23C
S11326D070E380E090E00E945C008EE293E00E9450
S11326E08E150E94E302811116C087E393E00E94D5
S11326F08E151092570480917B048B7F877F809383
S11327007B041092560440E050E060E070E380E007
S113271090E00E945C000F900F900F900F90DF915B
S1132720CF91089541E061E080E00E944B0641E0D2
S113273062E080E00E944B0640E060E081E00E949D
S11327404B0680E090E0089540E061E081E00E9463
S11327504B0640E060E081E00E944B0642E067E007
S113276081E00E944B0680E090E008958FE393E0BF
S11327700E94BD070E94F50D0E94900780E090E042
S1132780089580914D0490914E04019690934E04C7
S113279080934D04853F914040F089E493E00E948A
S11327A08E1510924E0410924D0440E062E080E0D9
S11327B00E944B0642E066E081E00E944B0640E046
S11327C062E081E00E94720642E066E080E00E94DE
S11327D0720680E090E00895CF93DF9300D0CDB7E8
S11327E0DEB72FE78AE196E0215080409040E1F780
S11327F000C000000E94570720E040E050E061EB79
S113280070E08DE70E94580E20E040E050E066E75B
S11328107DE08FEA0E94580E8CEB9FE09A838983B7
S1132820CE0101960E94B50340E061E08AE794E09E
S11328300E94180C0E944A0180E38093770480E090
S113284090E00F900F90DF91CF91089580919A04BA
S1132850813011F00E9479030895FC01808190E099
S1132860DC01AA0FBB1FAA0FBB1F8A0F9B1FDC0131
S1132870A458BB4F828193818D939C932181808145
S113288090E0DC01AA0FBB1FAA0FBB1F8A0F9B1F7E
S1132890DC01A458BB4F12962C93808190E0DC019C
S11328A0AA0FBB1FAA0FBB1F8A0F9B1FDC01A458D2
S11328B0BB4F1496FC93EE9313970895FC0180810B
S11328C090E00197FC01EE0FFF1FEE0FFF1FEE0FCC
S11328D0FF1FE81BF90BEB59FD4F81E08583089539
S11328E07F928F929F92AF92BF92CF92DF92EF929C
S11328F0FF920F931F93CF93DF9300D000D01F92CA
S1132900CDB7DEB780919704811148C080916A02E7
S1132910813029F4E0916702F09168020995809171
S11329207102813029F4E0916E02F0916F020995F1
S113293081E08093970432C05801F80180818F5F51
S11329408083F7019081913001F5F80132979081ED
S11329508917D8F0F80136970190F081E02D099598
S11329609D838C838D8180FD0EC0798286958A83B8
S11329708C818B8382E00E948F0FFC01CE01019633
S11329800995F7011082F5011082095F1F4FF7E0E6
S1132990EF0EF11C0C151D0579F611C00BE612E0C3
S11329A00F2EFAE6EF2EF2E0FF2EF02D0F2EF9E7B0
S11329B0CF2EF2E0DF2EF02D77247394BDCF80E08C
S11329C090E00F900F900F900F900F90DF91CF91A8
S11329D01F910F91FF90EF90DF90CF90BF90AF9039
S11329E09F908F907F900895EF92FF920F931F9383
S11329F0CF93DF938091950481113EC06EE574E11D
S1132A0081E00E94860F6DE274E183E00E94860FEC
S1132A100E94250CC8E7D2E009EA12E088818130DF
S1132A2031F4FE0133970190F081E02D099527964A
S1132A30C017D10799F781E0809395048093960499
S1132A400E94BD0319C088818F5F8883FE0131977E
S1132A509081913061F4FE0132979081891738F0AA
S1132A60FE0136970190F081E02D09951882279692
S1132A70CE15DF0541F709C0C9E7D2E00F2EFAEA07
S1132A80EF2EF2E0FF2EF02DDECF0E94940880E0BE
S1132A9090E0DF91CF911F910F91FF90EF900895F7
S1132AA00F931F93CF93DF93CEE7D4E007E914E0AD
S1132AB0809198049091990401969093990480933D
S1132AC098042881213079F48538934060F0FE0120
S1132AD032970190F081E02D89819A8109951092B5
S1132AE09904109298042596C017D10709F780E03D
S1132AF090E0DF91CF911F910F910895209196045A
S1132B00213011F40E94261480919A04813011F42A
S1132B1080939B0208950E94A01508950E94A31516
S1132B200895CF93DF93EC01888199810E94120963
S1132B3099838883DF91CF9108950E94C50D0895EC
S1132B400E94911508950E949D15089597FB072EE4
S1132B5016F4009407D077FD09D00E94C91507FC2C
S1132B6005D03EF4909581959F4F08957095619599
S1132B707F4F0895A29FB001B39FC001A39F700D22
S1132B80811D1124911DB29F700D811D1124911D71
S1132B900895AA1BBB1B51E107C0AA1FBB1FA617A0
S1132BA0B70710F0A61BB70B881F991F5A95A9F7F2
S1132BB080959095BC01CD010895FB01DC018D91B8
S1132BC0019080190110D9F3990B0895F894FFCF5F
S1132BD0BD0190010000000A005803A30100000099
S1132BE06400090290010000006400FB01900100F0
S1132BF000006400E70190010000006400DC019023
S1132C0001000000640058038B010000006400B15F
S1132C100189010000006400AA019001000000E89D
S1132C200393019001000000E803580372010000BF
S1132C3000E80358038201000000E803D70200DD26
S1132C4002005749464920444953434F4E4E454399
S1132C505400235561727423003E002B49504400F4
S1132C604F4B0041542B434950434C4F53453D3047
S1132C700D0A00474F54204950004E494B48494CD7
S1132C800041542B43495053454E443D0041542B7D
S1132C9043574A41503D226E696B68696C222C226D
S1132CA03132333435363738220D0A0041542B4340
S1132CB0494653520D0A0041542B4349505345523F
S1132CC05645523D312C38300D0A0041542B4349AE
S1132CD0504D55583D310D0A0041542B43574D4F2B
S1132CE044453D330D0A00010200010203000102C4
S1132CF003BD04000064FF0000FF0000FF0000FFAC
S1132D000000FF0000FF0000303132333435363725
S1132D10383941424344454600010203040506078D
S1132D2008090A0B0C0D0E0F26DF030000644B0587
S1132D3000000F01019B09BA09010000BD09FA094D
S1132D400100000F1092130500007C11A41301016F
S1132D50006612B6130501006B12C113050100B021
S1132D6012EC13050100DD0DDD0D0501007014707A
S1132D70140501002C000D0A0043757272656E740F
S1132D802076616C75653A0020206368616E676522
S1132D90642076616C75653A0068007465737432FA
S1132DA000746573743100535441525400444149D2
S1132DB047230000000000000073776974636820F3
S1132DC07265616400776F726B696E6700272F2EDE
S1132DD000636D006E696E650A0057617465722048
S1132DE04C6576656C204D6F6E69746F7200312E80
S1132DF04C6576656C00322E446562756700484503
S1132E0052454F66660A00484552454F4E0A0049EE
S1132E106E206F70656E2033006F70656E34000035
S9030000FC
