:100000000C946B020C949A060C9488020C94B8130E
:100010000C9488020C9488020C9488020C94880238
:100020000C9488020C94030B0C9488020C948802A4
:100030000C9488020C9488020C9488020C94880218
:100040000C94CC120C9488020C94D20B0C94880261
:100050000C9488020C942A060C9410080C948802C4
:100060000C9488020C94880200000000000000003C
:10007000002F000000000700070000147F147F1409
:1000800000242A7F2A12006264081323003649558F
:10009000225000000503000000001C224100000067
:1000A00041221C000014083E08140008083E0808FD
:1000B000000000A060000008080808080000606058
:1000C0000000002010080402003E5149453E000097
:1000D000427F4000004261514946002141454B3179
:1000E000001814127F10002745454539003C4A4945
:1000F00049300001710905030036494949360006B7
:100100004949291E0000363600000000563600001E
:100110000008142241000014141414140000412299
:10012000140800020151090600324959513E007C71
:100130001211127C007F49494936003E414141225B
:10014000007F4141221C007F49494941007F090944
:100150000901003E4149497A007F0808087F0000F4
:10016000417F4100002040413F01007F08142241AF
:10017000007F40404040007F020C027F007F040867
:10018000107F003E4141413E007F09090906003EC3
:100190004151215E007F09192946004649494931EC
:1001A0000001017F0101003F4040403F001F20400F
:1001B000201F003F4038403F0063140814630007CD
:1001C0000870080700615149454300007F41410024
:1001D00000552A552A55000041417F0000040201C4
:1001E00002040040404040400000010204000020A2
:1001F00054545478007F48444438003844444420E0
:1002000000384444487F00385454541800087E098C
:1002100001020018A4A4A47C007F08040478000054
:10022000447D4000004080847D00007F1028440011
:100230000000417F4000007C04180478007C080422
:10024000047800384444443800FC2424241800185E
:10025000242418FC007C080404080048545454204A
:1002600000043F444020003C4040207C001C2040D3
:10027000201C003C4030403C004428102844001C16
:10028000A0A0A07C004464544C441414141414140E
:10029000230026002900240027002A00250028002A
:1002A0002B00EC02DC02CC02BC02AC023E03CA040E
:1002B00028031203CA04CA04CA04FC029603CA042F
:1002C00080036A03CA04CA04CA0454030404CA04A7
:1002D000EE03D803C203CA04CA04AC037204CA04FE
:1002E0005C0446043004CA04CA041A04B404CA04F0
:1002F0009E04CA04CA04CA04CA0488042020202018
:10030000202020204241434B20202020202020205C
:100310002000322E46756C6C2054616E6B20436E4B
:100320007420202020202000312E4F70722048722F
:1003300020202020202020202020202020002020DD
:1003400020202020202044616967202020202020B8
:100350002020200020202020202020204241434B2C
:1003600020202020202020202000322E4F4E202030
:10037000202020202020202020202020202020009D
:10038000312E4F46462020202020202020202020D3
:1003900020202020200020202020202020204D6F01
:1003A000746F722020202020202020002020202078
:1003B000202020204241434B2020202020202020AC
:1003C0002000332E53656D6920202020202020201E
:1003D0002020202020202000322E4175746F202004
:1003E0002020202020202020202020202000312E0E
:1003F0004D616E75616C202020202020202020205F
:100400002020200020202020202020204D6F646507
:1004100020202020202020202000202020202020FC
:1004200020204241434B202020202020202020005B
:10043000332E4461696720202020202020202020A6
:10044000202020202000322E4D6F746F722020203B
:10045000202020202020202020202000312E4D6F21
:100460006465202020202020202020202020202003
:10047000200020202020202020204D454E552020E7
:10048000202020202020200020202020202020208C
:100490004D454E5520202020202020202000546152
:1004A0006E6B204C6576656C203A20202020202041
:1004B000202020002020202020202020574C4320D6
:1004C000202020202020202020002020202020204C
:1004D00020202020000011241FBECFEFD8E0DEBF77
:1004E000CDBF13E0A0E0B1E0E2E3FCE302C0059081
:1004F0000D92A03BB107D9F726E0A0EBB3E001C015
:100500001D92A939B207E1F70E9413130C94171E2C
:100510000C9400009B013327E091B003F0E0E21758
:10052000F30768F48093B1036093B0036627707F8C
:100530007093B3036093B2034093B4030895232BE5
:1005400059F46627707F8091B2039091B3036817C6
:10055000790711F41092B00308956091B0036623F7
:1005600031F12091B5033091B60388EE93E070E04D
:100570000E94D31D2617370798F09091B70381E0AA
:1005800089278093B7034091B4036091B1030E941F
:10059000FC0881E090E09093B6038093B503089542
:1005A0002F5F3F4F3093B6032093B50308954091DA
:1005B000B4036091B10380E00E94FC0808954F925B
:1005C0005F926F927F928F929F92AF92BF92CF92E3
:1005D000DF92EF92FF920F931F93CF93DF931F92BF
:1005E000CDB7DEB77C0186E289830F2EFCE0AF2E0B
:1005F000F1E0BF2EF02D0F2EFBE0CF2EF1E0DF2E2D
:10060000F02D08E711E0512C752C992493944AC0E1
:10061000C901D90112974C91413011F5663201F1AF
:10062000AF016080D90114970D90BC91A02DA60D4B
:10063000B11DAC916A130FC0D9014C90641410F431
:1006400063946082DA014C91DC018C91481308C0FC
:10065000872C792D05C0D9018C91681608F4108279
:10066000275F3F4F39962017310791F67093B903F2
:100670008092BA037130B1F48981863209F1E82D94
:10068000F0E0E554FC4F8083982D9F5F9093BA0370
:100690009C3111F08A3031F45092B9035092BA0370
:1006A0009092DA03CE010196F701099581110CC0F1
:1006B00069817091B9038090BA039501F601A8CFC2
:1006C000FCE18F12EFCFE8CF80E090E00F90DF9158
:1006D000CF911F910F91FF90EF90DF90CF90BF903F
:1006E000AF909F908F907F906F905F904F90089504
:1006F000CF93DF93ECE0F1E088E791E0EF012497FE
:10070000A881B981ED0109900020E9F72197CA1B62
:10071000DB0BC0833996E817F90781F781E08093F6
:1007200064018093130180936D01DF91CF9108954F
:100730001F93CF93DF9300D000D0CDB7DEB7809169
:10074000DE0389831A82CE0101960E94BB1D8FEBC6
:1007500092E00E94BB1D2091DF033091E003E22F65
:1007600049E2249F412D112442954F701CE9140346
:10077000C0011124820F911D6AE070E00E94D31D18
:10078000842F805D8983862F805D8A83E05D419F11
:10079000E00D1124660F962F990F990F690FE61B34
:1007A000EB831C822A3031051CF4E9831A8206C0CF
:1007B000243631051CF48983EA831B82CE0101961D
:1007C0000E94BB1D81EC92E00E94BB1D0F900F9018
:1007D0000F900F90DF91CF911F9108959091650137
:1007E00080916601981304C01092650180E008951D
:1007F00082E00895813029F41092DD031092DC0329
:100800000BC0823049F48091DC039091DD030196A6
:100810009093DD038093DC038091DC039091DD03F2
:1008200008951F93CF93DF93182F8091DB038111DD
:1008300026C0C12FD0E0FE01EE0FFF1FEE0FFF1FFD
:10084000EE0FFF1FEC0FFD1FEA5FFE4F80819181CD
:100850000E94BB1D173011F40E9498039E01220FC5
:10086000331F220F331F220F331FC20FD31FCA5F44
:10087000DE4F81E08C838093DB030E94FA03C12F5B
:10088000D0E0FE01EE0FFF1FEE0FFF1FEE0FFF1F68
:10089000EC0FFD1FEA5FFE4F95818681981313C010
:1008A000163069F0FE01EE0FFF1FEE0FFF1FEE0F77
:1008B000FF1FEC0FFD1FEA5FFE4F1482158210929E
:1008C000DB0310E001C011E082E00E94FA03FE01A8
:1008D000EE0FFF1FEE0FFF1FEE0FFF1FEC0FFD1FB0
:1008E000EA5FFE4F278130852817390760F41482AC
:1008F00015821092DD031092DC031092DB0381E07D
:100900000E94FA0312E0812FDF91CF911F91089589
:100910008091E103811106C084E08093E20381E0CD
:100920008093E1038091E2030E94110481110BC0C6
:100930008091E2038F5F8093E203863089F5109205
:10094000E10380E00895823069F58091E30385300A
:1009500000F12091E203223031F41092E30310926F
:10096000E10382E017C0E22FF0E0CF01880F991F6A
:10097000880F991F880F991FE80FF91FEA5FFE4F34
:100980001482158221502093E2031092E30381E048
:1009900001C081E09091E3039F5F9093E30308958A
:1009A00081E0089581E00895FC01E60FF11D2081AA
:1009B000222389F0241306C002C0241303C0862F0B
:1009C0008F5F08956F5FFC01E60FF11D20812111FB
:1009D000F4CF80E0089580E00895421770F4FB01A1
:1009E00030E0DC01A40FB11D5C9151933F5F4F5F7C
:1009F000421720F43430A9F701C030E0FC01E40FC5
:100A0000F11D8081FB01E30FF11D80833093F6031C
:100A100008958093DF031092E00387E00E941104A1
:100A200008959091140180911501981304C01092BB
:100A3000140180E0089582E008950F931F93CF93EF
:100A4000DF938091DA03813009F04FC0909141012A
:100A500080914201981347C081E080934001109239
:100A600041014CE260E08BEB93E00E94D404C82F7C
:100A70004CE2682F8BEB93E00E94D404082F282FC0
:100A80004C2F67EE73E08BEB93E00E94ED04C7EE12
:100A9000D3E088818093DE034AE3602F8BEB93E001
:100AA0000E94D404182F282F402FBE018BEB93E017
:100AB0000E94ED04C881C093F9038091E8038093FC
:100AC000FA031093F803C10FC093F7032C2F412FA3
:100AD00067EE73E08BEB93E00E94ED04EC2FF0E007
:100AE000EB51FC4F10821092DA0390916E018091CD
:100AF0006F01981303C081E080931E05DF91CF91B1
:100B00001F910F9108958091E403811108C086E040
:100B10008093E50381E08093E4038093E603809172
:100B20001D02882339F086E00E94110480931D0283
:100B300081E008958091DA03813059F41092E40342
:100B40001092E6030E941D0581E080931D0280E063
:100B5000089581E008958091740108956091720173
:100B60007091730187EE93E00E940E1E282F392F9B
:100B7000232B21F481E08093740102C01092740150
:100B8000609175017091760187EE93E00E940E1ED0
:100B9000282F392F232B19F010927701089581E027
:100BA00080937701089521E22093D90320910304D3
:100BB000E22FF0E0E554FC4F3781FC013083273110
:100BC00021F41092030481E008952F5F2093030421
:100BD00080E00895FC0120812093D70381818093D8
:100BE000D80308950895EAE7F0E080818760808364
:100BF000ACE7B0E08C91806C8C938C9180628C938C
:100C00008081886080830895EAE7F0E090819068B1
:100C10009083ACE7B0E09C91987F9C939C91892B4A
:100C20008C93808180648083089580917A008074A1
:100C30000895809178002091790082958695869517
:100C4000837030E0220F331F220F331F282B822F97
:100C5000932F08951F920F920FB60F9211248F9326
:100C600080917800809179008F910F900FBE0F9046
:100C70001F901895FC019281892F8F5F2481821724
:100C800008F080E02381281741F0A081B181A90FED
:100C9000B11D6C93828380E0089582E00895FC0189
:100CA0008381982F9F5F2281821771F02481921790
:100CB00008F090E0A081B181A80FB11D8C91DB01FB
:100CC0008C93938380E0089581E00895FC0181E096
:100CD00023819281291380E00895FC019381828110
:100CE000891720F42481820F891B0895891B089598
:100CF00042E067E080E00E94FC0800C042E067E05C
:100D000081E00E94FC0800C000C0000042E067E0F3
:100D100080E00E94FC080895813031F4E9E6F0E0BB
:100D20008081816080830895E9E6F0E080818160C0
:100D3000808308951F920F920FB60F9211242F9364
:100D40003F934F935F936F937F938F939F93AF9353
:100D5000BF93EF93FF938091040481110AC00E9416
:100D6000D70A80E090E00E948C0681E08093040422
:100D70000BC00E94F20A81E090E00E948C06109263
:100D8000040481E080930504FF91EF91BF91AF913E
:100D90009F918F917F916F915F914F913F912F9193
:100DA0000F900FBE0F901F90189581E090E00E9469
:100DB0008C06E89A1092040481E08093050408955B
:100DC000CF93DF93EC0180910604833060F081E0E3
:100DD0000E948C060E94780610920504109204046A
:100DE000109206043BC090910504913099F5209132
:100DF000370580913505909136053FEF239F800D93
:100E0000911D112490933605809335052091350569
:100E10003091360522953295307F3227207F322758
:100E2000AFE9B6E40E94E71D929582958F708927FD
:100E30009F7089279093360580933505C0913505BD
:100E4000D0913605D06810920604109205040E94D5
:100E5000780604C0D0618F5F809306048C2F9D2F8D
:100E6000DF91CF910895ECEBF0E080818823ECF7DF
:100E700081E00895ECEBF0E0108294EA9083908199
:100E80009923ECF79091B900987F9830A1F4809362
:100E9000BB0084E88093BC00ECEBF0E08081882309
:100EA000ECF79091B900987F983139F081E0903457
:100EB00029F480E0089581E0089580E0089580930A
:100EC000BB0084E88093BC00ECEBF0E080818823D9
:100ED000ECF79091B900987F81E0983209F480E0B6
:100EE000089584E98093BC0008950F931F93CF93D6
:100EF000DF93082F88E70E943A07811120C080E421
:100F00000E945F070052802F90E08C01000F111F9C
:100F1000800F911F8C01000F111FC0E0D0E0FE0177
:100F2000E00FF11FE859FF4F84910E945F07811184
:100F300006C02196C630D10591F70E947107DF9156
:100F4000CF911F910F910895CF93DF93C82FD62F84
:100F500088E70E943A07811112C00E945F078D2F17
:100F600080550E945F078C2F8F700E945F078C2F27
:100F700082958F7080610E945F070E947107DF91E8
:100F8000CF910895CF93DF93EC01862F642F0E94B9
:100F9000A4078881882331F021960E9475078991E2
:100FA0008111FBCFDF91CF910895CF93DF93D42FA1
:100FB0000E94A40788E70E943A07811119C080E4C3
:100FC0000E945F07D11102C0CD2F0AC0C0E08FEF91
:100FD0000E945F07CF5FCD13FACFDF37A8F306C0BB
:100FE00081E00E945F07CF5FCF37D0F30E94710787
:100FF000DF91CF910895805290E0FC01EE0FFF1F2A
:101000008E0F9F1FFC01EE0FFF1FE60FF11DE85929
:10101000FF4F84910895FB9882E080931E0208950B
:101020001F920F920FB60F9211242F933F934F935D
:101030005F936F937F938F939F93AF93BF93EF9340
:10104000FF9380913D05811134C080914005882334
:1010500069F181E080931E0280913B0590913C05EF
:1010600092BD81BD019690933C0580933B05809194
:1010700040058150809340058EEF92E00E946C0BFA
:10108000209140058091390590913A05FC01E20FCD
:10109000F11D208120BD20914005FC01E20FF11DD2
:1010A00080810E94A10BFA9AF99A48C00E940B080D
:1010B00045C020913B0530913C0580913E059091C3
:1010C0003F058217930770F181E080931E0285E04F
:1010D00093E00E946C0B80913B0590913C0592BD82
:1010E00081BD019690933C0580933B05F89A9091C1
:1010F000380580B5E0913905F0913A05E90FF11D09
:10110000808380913805E0913905F0913A05E80F28
:10111000F11D80810E94A10B809138058150809340
:1011200038050CC08BE093E00E946C0B0E940B080A
:101130001092380510923F0510923E05FF91EF91F5
:10114000BF91AF919F918F917F916F915F914F91DF
:101150003F912F910F900FBE0F901F901895809385
:10116000400510923C0510923B0540933D0530939D
:101170003A05209339052091400580913B059091D7
:101180003C050197820F911D90933F0580933E058A
:10119000809140058150809338050895FB9A109204
:1011A0001E02089580911E020895E42FF0E0EE0FD4
:1011B000FF1FEA56FD4F25913491E22FF32F813026
:1011C00069F4208181E090E0AC0102C0440F551F1A
:1011D0006A95E2F7BA01622B60830895208181E06D
:1011E00090E0AC0102C0440F551F6A95E2F7BA01C6
:1011F0006095622360830895E42FF0E0EE0FFF1FF7
:10120000E456FD4F25913491E22FF32F813069F49C
:10121000208181E090E0AC0102C0440F551F6A9527
:10122000E2F7BA01622B60830895208181E090E0AB
:10123000AC0102C0440F551F6A95E2F7BA016095F0
:10124000622360830895E42FF0E0EE0FFF1FE05764
:10125000FD4F25913491E22FF32F408121E030E0C2
:10126000F90102C0EE0FFF1F6A95E2F7BF01642388
:10127000FC016083089590910D04913081F028F075
:101280009230D1F0933089F521C0ECEBF0E0108280
:1012900084EA808381E080930D0482E008950E94B7
:1012A0003307813021F58091B900887F883009F5B6
:1012B00082E080930D0408958093BB0084E88093BE
:1012C000BC0083E080930D0482E008950E94330700
:1012D000882389F08091B900887F883111F08034AB
:1012E00061F410920D0481E0089582E0089582E097
:1012F000089580E0089582E0089580E00895909137
:101300000E04992319F09130E1F40AC08093BB00D8
:1013100084E88093BC0081E080930E0482E008950D
:101320000E943307882379F08091B900887F883242
:1013300021F410920E0481E0089510920E0480E0D2
:10134000089582E0089582E0089590910B04913011
:1013500079F020F0923009F045C03EC088E70E9445
:101360003B09813009F040C080930B0482E008956E
:1013700090910C04913079F028F09230B1F09330D4
:10138000A9F51DC080E00E947F09813089F5809316
:101390000C0482E00895862F80550E947F098130D9
:1013A00049F582E080930C0408958F700E947F09B4
:1013B000813011F583E080930C0482E008958295DA
:1013C0008F7080610E947F098130C1F410920C04FB
:1013D00082E080930B0408950E94710710920B0421
:1013E00081E0089582E0089582E0089582E0089502
:1013F00082E0089582E0089582E0089582E00895F1
:1014000090910F04913079F028F09230D9F0933018
:10141000A9F52EC088E70E943B09813089F58093A9
:101420000F0482E0089580E40E947F09813021F456
:1014300082E080930F040895811124C010920F045C
:1014400082E00895609110040E94FB070E947F09CA
:101450008130D1F4809110048F5F80931004863026
:10146000A9F483E080930F041092100482E00895A1
:101470000E94710710920F0481E0089582E00895A0
:1014800082E0089582E0089582E0089582E0089560
:1014900080910704813071F018F0823049F520C046
:1014A00088E094E00E94D611811122C081E08093EF
:1014B0000704089580910904811104C090910A04E1
:1014C000992351F060910A040E94A509813081F4AA
:1014D00082E080930704089582E0809307040895D2
:1014E000809108040E94000A813011F410920704D0
:1014F0000895CF93DF93CDB7DEB769970FB6F89411
:10150000DEBF0FBECDBF20911104283048F5E09119
:101510001204F0E0EE0FFF1FEE55FD4F8591949100
:10152000E22FF0E0EE0FFF1FE80FF91F8591949175
:10153000682F792FCE0101960E94071E4091130457
:1015400060911F02CE0101960E94B3118091130495
:101550008F5F80931304809111048F5F8093110437
:1015600080911104883011F0803139F480911F028C
:10157000845C80931F0210921304809114048F5F87
:101580008093140480E069960FB6F894DEBF0FBE16
:10159000CDBFDF91CF910895809312041092110472
:1015A00081E080931F021092130480E0089510924E
:1015B000370510923405E1EBF0E08081866080838E
:1015C000E0E7F0E08081816080831092B2001092A9
:1015D00036051092350508951092B10081E0809390
:1015E00034050895CF93DF93C2EBD0E0888190E07B
:1015F00090933605809335050E94EC0A1882888105
:10160000DF91CF9108951F920F920FB60F92112480
:101610008F93809137058F5F809337058F910F905F
:101620000FBE0F901F901895909327058093260565
:10163000089520E042E25BE061E27FE088EC0E94F6
:10164000801208950F931F93CF93DF931F92CDB70E
:10165000DEB78C01BE016F5F7F4F80E292E00E9497
:101660004F06811105C08981F801808380E001C0A7
:1016700081E00F90DF91CF911F910F91089510920B
:10168000280588E98093C1008EE08093C200109203
:10169000C50088E08093C4001092270510922605AB
:1016A00064E17BE080E00E94DF13089520E030E0F9
:1016B000000000000000000000000000000000002A
:1016C0000000000000000000000000002F5F3F4FFE
:1016D0008217930768F70895EF92FF920F931F9375
:1016E000CF93DF93FC0120812223C1F08C010F5F97
:1016F0001F4F0F2EF6ECEF2EF12CF02DC0ECD0E0AA
:10170000F7012083888186FFFDCF88EE93E00E9459
:10171000560BF80121918F012111F2CFDF91CF916A
:101720001F910F91FF90EF9008958093C600E0EC19
:10173000F0E0808186FFFDCF88EE93E00E94560B9B
:1017400008950F931F93CF93DF93C82F19E2819FC2
:10175000112D112412951F700CE901039001112421
:10176000C9018C0F911D6AE070E00E94D31DD62F35
:10177000812F805D0E94950B8D2F805D0E94950BBF
:10178000C05D8C2F109F800D1124DD0F9D2F990FB0
:10179000990FD90F8D1B0E94950BDF91CF911F914F
:1017A0000F9108951F920F920FB60F9211242F934D
:1017B0003F934F935F936F937F938F939F93AF93D9
:1017C000BF93EF93FF93CF93DF931F92CDB7DEB715
:1017D0008091C600809324056091240580E292E008
:1017E0000E943A0680912405843611F4109228054F
:1017F000E0912805F0E080912405E15EFA4F8083B6
:10180000809128058F5F8093280580912805853079
:1018100031F580911F05843601F5809120058536CC
:10182000E1F4809121058236C1F48091220585374B
:10183000A1F480912305873681F403C089810E9439
:10184000950BBE016F5F7F4F80E292E00E944F06D2
:101850008823A1F381E080931504109228056091FC
:101860002605709127056115710559F080911504C1
:10187000811107C020E042E25BE088EC0E94801208
:1018800020C080911504823081F464E180E292E00E
:101890000E946D068431A8F020E042E25BE069E13D
:1018A0007BE088EC0E9480120CC0813051F482E011
:1018B00080931504BE016F5F7F4F80E292E00E942B
:1018C0004F060F90DF91CF91FF91EF91BF91AF91B4
:1018D0009F918F917F916F915F914F913F912F9148
:1018E0000F900FBE0F901F9018958091C00085FB40
:1018F000882780F991E0892708958093C60008958C
:10190000CF93DF9380912B04811137C020912C0459
:10191000822F90E0FC01EE0FFF1FE80FF91FEB5D37
:10192000FD4F3281313029F5FC01EE0FFF1FE80F2A
:10193000F91FEB5DFD4F318131111BC0FC01EE0F32
:10194000FF1F8E0F9F1FFC01EB5DFD4F80810E94EA
:10195000040680912C0490E0FC01EE0FFF1F8E0F17
:101960009F1FFC01EB5DFD4F81E0818380932B0481
:101970003AC02F5F20932C0436C00E9415068111B7
:1019800032C080912C0490E0FC01EE0FFF1FE80FA5
:10199000F91FEB5DFD4F2181213029F5FC01EE0F90
:1019A000FF1F8E0F9F1FFC01EB5DFD4FC081D0E03C
:1019B0000E941906CC0FDD1FCA5EDB4F9983888316
:1019C00020912C04822F90E0FC01EE0FFF1F8E0F60
:1019D0009F1FFC01EB5DFD4F82E081832F5F209311
:1019E0002C0410922B0480912C04863011F4109258
:1019F0002C0480E090E0DF91CF910895CF93DF93A6
:101A000000D0CDB7DEB79A8389838A818695869583
:101A10008695877080932A0430912A04809125024C
:101A2000381741F0E8E2F2E081E090E020813213E3
:101A300013C002C080E090E0DC01AA0FBB1FA80F1A
:101A4000B91FAB5DBD4F11962C9180932D042230B0
:101A500099F120E030E048C0019633968630910538
:101A600029F745C01092270211C0822F90E0FC0197
:101A7000EE0FFF1F8E0F9F1FFC01EB5DFD4F82815C
:101A8000882321F081E080932F0439C080912F04B6
:101A9000811135C0822F90E030912A04FC01EE0FB5
:101AA000FF1FE80FF91FEB5DFD4F308381E082835C
:101AB0002F5F20932E0423C0E32FF0E0EE0FFF1FD3
:101AC000EA5EFB4F208131813068992740912A04DA
:101AD000FC01EE0FFF1F8E0F9F1FFC01EB5DFD4F02
:101AE0004083118281E08283822F932F0BC010925A
:101AF0002D0420912E04263009F0B7CFB3CF20E07B
:101B000030E0F2CF0F900F90DF91CF910895CF93F7
:101B1000DF9300D0CDB7DEB780E090E00E94E00612
:101B20009A8389838A81803821F0811105C08FEFE3
:101B30008983898190E002C0898191E00F900F90A4
:101B4000DF91CF91089580E090E00895CF93DF93E7
:101B500000D01F92CDB7DEB740E061E0CE01019624
:101B60000E942309898190913004891313C09091B8
:101B700031049F5F9093310480933004809332044A
:101B800093E09B83811134C042E066E081E00E94D3
:101B9000FC082EC0882329F142E066E080E00E9424
:101BA000FC0880913104853638F082E08B83809187
:101BB00032048D5F8A8317C0833338F082E08B83D1
:101BC000809132048E5F8A830EC0863038F082E0C6
:101BD0008B83809132048F5F8A8305C083E08B837F
:101BE00002C083E08B83109231048981809330049A
:101BF0008A819B810F900F900F90DF91CF91089574
:101C000080E090E0089580E090E00E94480A8FEF25
:101C10009FEF0895809133048F5F843018F4809390
:101C2000330406C01092330480E090E00E94790AE9
:101C30008FEF9FEF0895982F90539A3030F4E82F4C
:101C4000F0E0E95EFD4F80810895982F9154963021
:101C500030F4E82FF0E0E05FFD4F8081089580E0F0
:101C60000895DF92EF92FF920F931F93CF93DF932C
:101C70007C018AE00E94FF11D7011C968C91882379
:101C800069F1D12CF701ED0DF11DB581DB2F80E05D
:101C9000C82F84818E01082BD801EC91E295EF705A
:101CA000F0E0E95CFD4F80810E94FF11D801EC91CA
:101CB000EF70F0E0E95CFD4F80810E94FF1180E24F
:101CC0000E94FF11D394D3942D2D30E0F701848529
:101CD00090E0880F991F28173907A4F280E090E060
:101CE000DF91CF911F910F91FF90EF90DF900895BA
:101CF000DF92EF92FF920F931F93CF93DF938C01AC
:101D0000FC01F581DF2F80E0C82FF8018481C82B0A
:101D10008AE00E94FF11F8018485882339F1D12CD3
:101D20000F2EF6EAEF2EF5E0FF2EF02DE881E2957A
:101D3000EF70F0E0E95CFD4F80810E94FF11E881C7
:101D4000EF70F0E0E95CFD4F80810E94FF1180E2BE
:101D50000E94FF11F801ED0DF11D86818993F701B5
:101D60001082D394F8018485D81600F320E030E087
:101D700045EA55E061E070E084E390E00E94801263
:101D800080E090E0DF91CF911F910F91FF90EF9055
:101D9000DF900895EF92FF920F931F93CF93DF93FD
:101DA0008C01FC01F580E12C8481E82AE7018AE0BE
:101DB0000E94FF1145E063E087E193E00E94B311C8
:101DC000F80186818823A1F1E881E295EF70F0E0C7
:101DD000E95CFD4F80810E94FF11E881EF70F0E027
:101DE000E95CFD4F80810E94FF11E881E295EF7070
:101DF000F0E0E95CFD4F40E060E080810E94CD11A1
:101E0000E991EF70F0E0E95CFD4F40E060E0808137
:101E10000E94CD1140E060E080E20E94CD1180E29E
:101E20000E94FF119C2F9E19F8018681981760F27D
:101E300080E090E0DF91CF911F910F91FF90EF90A4
:101E40000895CF92DF92EF92FF920F931F93CF935B
:101E5000DF9300D01F92CDB7DEB78C018AEC9EE0F5
:101E60009B838A83D12CF12CE12C31C029E02F15E2
:101E700038F1D1100EC089810E941B0EEF2DF0E0C9
:101E8000EC5CFB4F20E1829FC00111248083D3943E
:101E90001EC081E0D8120DC0CF2CD12C89810E94A8
:101EA0001B0EF601EC5CFB4F8F709081892B8083B9
:101EB00004C0D394E2E0DE120AC0F394DE2C07C023
:101EC000EF2DF0E0EC5CFB4F89818083F394CE0131
:101ED0000196F8010995882349F2809134048B3AE0
:101EE00071F58091370481111AC01092A50581E027
:101EF0008093A6058A818093A7058B818093A8058E
:101F0000809136048093A905809135048093AA05B9
:101F1000809138048093AB058093B1059BC08130DC
:101F200009F098C01092A60520E030E045EA55E09F
:101F300061E070E084E390E00E9480128BC08C3AF4
:101F400099F588E79EE09B838A831092A50591E02E
:101F50009093A6058093A7058B818093A805809117
:101F600036048093A905809135048093AA05809159
:101F700037048093AB05809138048093AC05809141
:101F800039048093AD0580913A048093AE05809129
:101F90003B048093AF0580913C048093B005809111
:101FA0003D048093B10556C08D3F99F581E39EE0D5
:101FB0009B838A831092A50591E09093A605809358
:101FC000A7058B818093A805809136048093A9058D
:101FD000809135048093AA05809138048093AB05E5
:101FE000809137048093AC0580913A048093AD05CD
:101FF000809139048093AE0580913C048093AF05B5
:1020000080913B048093B00580913D048093B1059D
:1020100021C08D3BF9F41092A50581E08093A605BF
:102020008A818093A7058B818093A805E091350470
:10203000F0E0EE0FFF1FEE0FFF1FE554FA4F808117
:102040008093A90581818093AA0583818093AB0544
:102050008093B1058981813289F460913F04709148
:1020600040047093BA056093B90520E030E045EA7A
:1020700055E089EC90E00E9480120AC020E030E038
:1020800045EA55E061E070E084E390E00E94801250
:1020900080E090E00F900F900F90DF91CF911F9113
:1020A0000F91FF90EF90DF90CF900895E42FF0E034
:1020B000EE0FFF1FEE0FFF1FE554FA4F9183808351
:1020C00042836383089510922D0581E080932E054D
:1020D00080932F0594E09093300595E0909331051F
:1020E000809332050895CF93DF93EC010E94D208CC
:1020F00040915B0250915C0260915D0270915E02C2
:102100004F5F5F4F6F4F7F4F40935B0250935C0276
:1021100060935D0270935E02823089F58091400485
:10212000811118C0EE81F0E02C813D814F81EE0FCE
:10213000FF1FE35DFA4F608150E070E0818190E025
:102140000E94AF080E94CE0881E08093400421E005
:1021500030E016C0813099F4109242048EE193E091
:102160000E946C0B20E041E454E061E070E084E305
:102170000E9480121092400420E030E001C002C0B2
:10218000822F932FDF91CF91089590914004911168
:1021900043C023E730E13093D0052093CF0592E090
:1021A0009093410491E090934204EFECF5E020938A
:1021B00043049181909344046093CF057093D005BC
:1021C0006093450491819093460480934704409323
:1021D00048048091570290915802A0915902B09101
:1021E0005A020196A11DB11D809357029093580287
:1021F000A0935902B0935A028EE293E00E946C0BB6
:1022000020E041E454E061E070E084E30E94801249
:1022100084E393E00E946C0B0895CF93DF939B01BE
:10222000C82FD0E0CC0FDD1FC35DDA4F688141E0DD
:1022300050E070E0898190E00E94AF082881898198
:1022400090E0820F911D0E94A10B89E393E00E9410
:102250006C0B0E94CE08C1E002C0C09349040E94EA
:10226000D208892BD1F380E0DF91CF910895CF93ED
:10227000DF93EC012881211121C0898190E0FC01CC
:10228000EE0FFF1FE65BFB4F2181223021F44081DE
:10229000322F118225C02A8140E050E067E371E1CE
:1022A00082E30E948012E981F0E0EE0FFF1FE65BFF
:1022B000FB4F4081318181E0818312C0213081F464
:1022C0008A81E981F0E0EE0FFF1FE65BFB4F808320
:1022D000E981F0E0EE0FFF1FE65BFB4F82E08183B8
:1022E000842F932FDF91CF910895FC018281282FB5
:1022F0002F5F9481291708F020E09381921781F0D5
:1023000090E0DC01AA0FBB1F8A0F9B1FA081B18147
:10231000A80FB91F4D935D936C93228380E00895BD
:1023200082E00895FC018381582F5F5F92818917B5
:10233000C1F09481591708F050E090E0DC01AA0F39
:10234000BB1F8A0F9B1FA081B181A80FB91F2D91C0
:102350003D914C91DB012D933D934C93538380E051
:10236000089581E008951F93CF93DF93562F642F34
:10237000FC014081442361F0EC01219610E08FE5DF
:1023800092E00E947511512F612F49914111F7CFB1
:1023900081E0DF91CF911F910895562F642F482F30
:1023A0008FE592E00E94751181E00895BC018FE5F0
:1023B00092E00E94921108950E94750C81110CC048
:1023C00069E672E084E692E00E944F06811104C043
:1023D000809169020E947D0C0895CF93DF93FC01E8
:1023E0006081662349F0EC01219684E692E00E9428
:1023F0003A0669916111F9CFDF91CF910895682F65
:1024000084E692E00E943A06089584E692E00E94F3
:102410006606811108C020E040E050E06CED71E1FB
:1024200083E00E94801208951092B9041092B804BB
:102430001092BB041092BA0408958091BC040895D0
:10244000CF93DF9300D000D000D0CDB7DEB7298383
:102450003A834B835C836D837E83FC012281422F10
:102460004F5F3481431708F040E0FC01338134179B
:10247000B9F030E0D901AA0FBB1F2A0F3B1F220F72
:10248000331FA081B181A20FB31F26E0FE01319658
:1024900001900D922A95E1F7FC01428380E001C092
:1024A00082E026960FB6F894DEBF0FBECDBFDF9157
:1024B000CF910895CF93DF93EC018B81282F2F5F6D
:1024C0009A818917C9F09C81291708F020E090E0D3
:1024D000FC01EE0FFF1F8E0F9F1F880F991FE881D1
:1024E000F981E80FF91F86E0DB0101900D928A95D2
:1024F000E1F72B8380E001C081E0DF91CF91089567
:10250000CF93DF9300D000D000D0CDB7DEB7922FAD
:10251000F894262F69837A838C83642F4D835E839E
:102520009B83372F492F582F7E818AE692E00E94A5
:102530002012789426960FB6F894DEBF0FBECDBF5A
:10254000DF91CF9108950F931F93CF93DF9300D026
:1025500000D000D0CDB7DEB78C01BE016F5F7F4FDA
:102560008AE692E00E945A1281110AC086E0FE01BA
:102570003196D80101900D928A95E1F780E001C073
:1025800081E026960FB6F894DEBF0FBECDBFDF9177
:10259000CF911F910F9108951F920F920FB60F9236
:1025A00011248F939F93AF93BF938091BE0490911A
:1025B000BF04A091C004B091C1040197A105B10569
:1025C00069F48091BD048F5F8093BD041092BE04B6
:1025D0001092BF041092C0041092C10416BC8091E6
:1025E000BE049091BF04A091C004B091C1040196B3
:1025F000A11DB11D8093BE049093BF04A093C0049D
:10260000B093C104BF91AF919F918F910F900FBE76
:102610000F901F901895019729F4EEE6F0E0808165
:102620008160808308950E94D50617B88BEF8AB920
:102630005A9A5B9A7894EEE6F0E08081816080831C
:1026400086E486BD83E085BD0E943F0B0E94F305B2
:102650000E9414128FE393E00E946C0B81E090E0E3
:102660000E940B13E8E6F0E0808181608083EBE656
:10267000F0E080818160808381E08093810689E140
:102680009DE190937F0680937E06C1E8D6E002E844
:1026900016E08091BD048130B9F480916F028F5FA4
:1026A00080936F0220E040E050E069E17DE181E04D
:1026B0000E94801220E040E050E065E77DE182E08A
:1026C0000E9480121092BD048EE796E00E94A31231
:1026D00081113FC060917E0670917F066115710582
:1026E000C1F19881892F8D578B3480F49F3A48F43B
:1026F0000E94E813FC0180917E0690917F06099567
:1027000028C0892F8D5A0E94DF1323C0983C30F0D7
:10271000D8018D919C91FB0109951BC0892F825393
:102720008B3498F48F5F0E94E813FC0180E896E0F8
:1027300009958881843369F483E00E94E813FC01E1
:10274000D8018D919C91099504C080E090E0FB0137
:1027500009950E941D1280912905813021F08091F8
:102760002905811196CF89E295E00E94A31D91CFA2
:102770001F920F920FB60F9211242F933F934F93F6
:102780005F936F937F938F939F93AF93BF93EF93D9
:10279000FF9342E066E081E00E94FC08FF91EF9128
:1027A000BF91AF919F918F917F916F915F914F9169
:1027B0003F912F910F900FBE0F901F901895E82F0B
:1027C000F0E0EE0FFF1FEC57F94F7183608308951F
:1027D000E82FF0E0EE0FFF1FEC57F94F8081918159
:1027E00008951F93CF93C82FFB0149E2849F412D89
:1027F000112442954F701CE9140390011124C90162
:102800008C0F911D6AE070E00E94D31D842F805DC3
:102810008083862F805D8183C05D419FC00D112420
:10282000660F862F880F880F680FC61BC283CF9153
:102830001F910895CF93DF9300D000D000D0CDB783
:10284000DEB7DA019C91992389F090E030E2E1E073
:10285000F0E0EC0FFD1FE90FF11D30839F5FFD01DC
:10286000E90FF11D20812111F2CF01C090E0FE019E
:10287000E90FF11D11829091FF0491110CC0462FB8
:10288000682FCE0101960E94B3118091FF048F5FE3
:102890008093FF040DC09F5F9093FF04923341F437
:1028A000462F682FCD010E94B31188EC8093FF045E
:1028B00026960FB6F894DEBF0FBECDBFDF91CF9145
:1028C00008952091EE04213009F04AC02091EF04D0
:1028D000213079F030F02230D1F0233009F040C0BF
:1028E00028C00E94830581113BC081E08093EF04E2
:1028F00037C00E941D0520E043ED55E061E27FE016
:1029000088EC0E94801282E08093EF0429C0FC01D1
:102910002181213029F59093F1048093F004828184
:1029200093819093F3048093F20483E08093EF0407
:1029300017C0E091F004F091F1048681982F990F6F
:10294000890F0E94090581110BC01092EF04E091DC
:10295000F204F091F3048091F0049091F104099550
:1029600080E090E008950F931F93CF93DF93CDB74E
:10297000DEB728970FB6F894DEBF0FBECDBF20910B
:10298000C4043091C5042F5F3F4F3093C50420939A
:10299000C4046091C6047091C704672B61F481E0A0
:1029A00090E09093C7048093C60480E590E09093F4
:1029B000C9048093C8042A30310509F087C04091CA
:1029C000CA042091C8043091C904429FC001439FAA
:1029D000900D112420E137E2281B390B36952795FD
:1029E00036952795ABE7B4E10E94E71DAC015695FB
:1029F00047951C829A013695322F222737952795C5
:102A0000241B350B36952795369527950E94E71D93
:102A10008C0116950795BE016F5F7F4F842F0E9432
:102A2000F11343E050E06AE470E0CE0101960E94A9
:102A3000C20743E050E060E670E087E493E00E9464
:102A4000C2072091CA04243188F48091CB0490916C
:102A5000CC048832910550F401969093CC04809375
:102A6000CB041092CE041092CD0426C02B3798F0E0
:102A70008091CD049091CE048832910560F42F3F6F
:102A800051F01092CC041092CB0401969093CE0496
:102A90008093CD0411C01092CC041092CB041092FC
:102AA000CE041092CD041092D0041092CF0442E0D4
:102AB00066E080E00E94FC089091700281E0892726
:102AC000809370021092C5041092C4042091CB042C
:102AD0003091CC04232B31F48091CD049091CE041D
:102AE000892BF1F08091CF049091D0048536910527
:102AF00070F01092D0041092CF049091D10481E034
:102B000089278093D10442E066E00E94FC0880910E
:102B1000CF049091D00401969093D0048093CF0479
:102B20002091D2043091D3042230310508F457C0EB
:102B300018861F82CE0107960E94B81D8F81988546
:102B4000292F221F2227221F2D831E822130D9F4F4
:102B5000937098878F831C82BE016F5F7F4F809137
:102B6000CA040E94F11340E050E06CE570E0CE0131
:102B700001960E94C20740E050E060E770E08BE4FD
:102B800093E00E94C20780E098E098878F83CE018F
:102B900007960E94B81D80E090E198878F83CE0150
:102BA00007960E94B81D8F819885292F221F222702
:102BB000221F2D831E82213019F4937098878F83F2
:102BC0001092D3041092D2048091D4048F3720F451
:102BD0008F5F8093D40403C087538093D4040F374E
:102BE000110538F4A80165E070E080E090E00E94F3
:102BF000D5078091D2049091D30401969093D30489
:102C00008093D20480E090E028960FB6F894DEBF5F
:102C10000FBECDBFDF91CF911F910F9108951F93EC
:102C2000CF93DF93CDB7DEB727970FB6F894DEBF0B
:102C30000FBECDBF8091D5049091D604019690939C
:102C4000D6048093D5048436910509F032C11092E0
:102C5000C3041092D6041092D5041D821E8281E016
:102C60008F83CE0105960E9437119E838D838E81BE
:102C7000823009F000C1ED8185EB90E09093D9049A
:102C80008093D804F0E04091DA045091DB044E17B1
:102C90005F0708F042C0CF01841B950B64E6689F74
:102CA0009001699F300D11242C3087E0380790F493
:102CB000A5E8BAE50E94E71D0024880F991F001CB3
:102CC000880F991F001C892F902D9093DD0480930D
:102CD000DC0411C03695279536952795A9EAB8E406
:102CE0000E94E71D880F892F881F990B919590935B
:102CF000DD048093DC048091DC049091DD04009776
:102D000029F4F093DB04E093DA0448C0840F951FA4
:102D10009093DB048093DA0441C0CA018E1B9F0BA1
:102D200064E6689F9001699F300D11242C3087E084
:102D3000380790F4A5E8BAE50E94E71D0024880F43
:102D4000991F001C880F991F001C892F902D9093AC
:102D5000DD048093DC0411C03695279536952795C0
:102D6000A9EAB8E40E94E71D880F892F881F990BF4
:102D700091959093DD048093DC048091DC04909124
:102D8000DD04009729F4F093DB04E093DA0406C035
:102D9000481B590B5093DB044093DA048091DA040A
:102DA0009091DB049093DF048093DE04682F80937E
:102DB00098068093CA042091E0043091E1042536FE
:102DC0003105A0F120917102233008F46BC08F3FD0
:102DD00009F468C0882309F465C0992730E0A90187
:102DE0004D5F5F4F841795075CF02350310928171A
:102DF000390734F08091E20481508093E20452C09C
:102E00008091E2048F5F8093E204609371028431C9
:102E100008F448C01092E20483E08093710240E01D
:102E200060E68EE493E00E94B31106C02F5F3F4F2F
:102E30003093E1042093E00414E61093C20482E38B
:102E400095E3A5E3B0E089839A83AB83BC83BE019D
:102E50006F5F7F4F8D810E94F1131C8240E050E034
:102E600060E070E180E090E00E948A021092D70456
:102E70001093C2041EC08091D7048F5F8093D70443
:102E80008A30B8F040E050E062E070E180E090E02D
:102E90000E948A028FEF809398068093CA04109252
:102EA000C20407C040E060E681E593E00E94B311F0
:102EB000C3CF80E090E027960FB6F894DEBF0FBE38
:102EC000CDBFDF91CF911F9108950E94AD0280E0A8
:102ED00090E00895CF93DF9300D01F92CDB7DEB777
:102EE000198281E08A8382E08B83CE0101960E9461
:102EF00037119A8389838A818230E9F489810E941B
:102F0000A10B85E893E00E946C0B8981823039F037
:102F1000833049F0813051F48093E30407C082E0AC
:102F20008093E30403C083E08093E3048091E4048E
:102F30008F5F8093E4048091E404833010F010925A
:102F4000E4048091E5049091E604019684369105AD
:102F500028F49093E6048093E50404C01092E604FC
:102F60001092E5040F900F900F90DF91CF9108958C
:102F7000CF93DF9300D000D0CDB7DEB78091E704C8
:102F80008F5F8093E7048091E8048111A2C0809153
:102F9000E90482FD11C09091EA0491110DC00E94D4
:102FA000880481117BC08091E90484608093E904E6
:102FB00081E08093EA047AC083FD12C08091EA0424
:102FC000813009F06BC00E948305811167C0809138
:102FD000E90488608093E90482E08093EA0466C093
:102FE0008091EA04823009F059C00E941D050E94B8
:102FF000AB05813009F052C08091EB049091EC0454
:1030000001969093EC048093EB048139914008F48D
:1030100045C084E20E940905811140C01092ED0470
:103020001092EC041092EB0482E395E3A5E3B0E088
:1030300089839A83AB83BC838091C204843631F543
:10304000BE016F5F7F4F8091CA040E94F11384E537
:1030500093E00E94BB1D82EC92E00E94BB1D88E6BB
:1030600093E00E94BB1D82EC92E00E94BB1D80E7B2
:1030700093E00E94BB1D82EC92E00E94BB1D83E0A6
:103080008093EA0481E08093EE0408C0CE010196AB
:103090000E94BB1D82EC92E00E94BB1D8091EA045D
:1030A000833021F480E090E00E9461140E94EE03DE
:1030B00081110FC081E08093E80440E050E068E2B5
:1030C00070E380E090E00E948A0288E793E00E942B
:1030D000BB1D0E941105811116C081E893E00E947A
:1030E000BB1D1092E8048091E9048B7F877F809359
:1030F000E9041092EA0440E050E060E070E380E010
:1031000090E00E948A020F900F900F900F90DF9135
:10311000CF91089541E061E080E00E94D50841E050
:1031200062E080E00E94D50840E060E081E00E941B
:10313000D50880E090E0089540E061E080E00E94E2
:10314000D50840E061E081E00E94FC0840E060E0DA
:1031500081E00E94D50842E067E081E00E94D50846
:1031600080E090E0089589E893E00E946C0B0E9453
:103170001D120E94A10B80E090E008958091F4045C
:103180009091F50401969093F5048093F404853FA3
:10319000914040F083E993E00E94BB1D1092F5043A
:1031A0001092F40440E062E080E00E94D50842E022
:1031B00066E081E00E94D50840E062E081E00E9484
:1031C000FC0842E066E080E00E94FC0880E090E0BD
:1031D00008950F931F93CF93DF9300D0CDB7DEB741
:1031E0002FE78AE196E0215080409040E1F700C04F
:1031F00000000E943F0B20E040E050E06FED72E0E5
:103200008DE70E94801220E040E050E067E371E12A
:103210008FEA0E94801281E694E19A838983CE012D
:1032200001960E94EA0540E061E08AEC94E00E9489
:10323000561089E993E00E946C0B66EF74E081E020
:103240000E940D118111F9CF06EF14E0F801808181
:103250000E94A10BF80181810E94A10BF8018281DB
:103260000E94A10BF80183810E94A10B84E093E0EE
:10327000A2E0B1E08093F6049093F704A093F804E1
:10328000B093F90440E0B80181E00E94C5100E94AB
:10329000780384E38093FA0480E38093E70486E371
:1032A0008093FB0480E090E00F900F90DF91CF912E
:1032B0001F910F91089580911E05813011F00E9499
:1032C000AE050895CF93DF9300D000D0CDB7DEB721
:1032D00082E395E3A5E3B0E089839A83AB83BC8363
:1032E0008091FC04813089F030F0823049F18330E4
:1032F00009F0CBC22FC080E090E00E94CC0A809100
:10330000FC048F5F8093FC04C0C2BE016F5F7F4FDF
:103310008091CA040E94F1131C8242E062E4CE0153
:1033200001960E94B3118091E304813009F0ADC28F
:103330008091FC048F5F8093FC041092E304A5C28B
:1033400081E090E00E94CC0A8091FC048F5F809322
:10335000FC049BC28091FD04833009F400C128F471
:10336000813011F108F045C00CC0853009F4A5C1C9
:1033700008F41CC1863009F4C7C1873009F085C242
:1033800063C28091E304813009F07FC242E060E0D3
:103390008CEF92E00E94B3118091FD048F5F8093C7
:1033A000FD041092E30471C240EF52E062E080E05D
:1033B0000E941A148091E304982F9250923050F496
:1033C00082E08093FD0482E090E00E94CC0A10929B
:1033D000E3045BC2813009F058C283E08093FD04AE
:1033E0001092E30442E060E080EF92E00E94B311AB
:1033F0004CC28091FE04823009F43FC030F488232F
:1034000059F0813009F041C211C0833009F45CC029
:10341000843009F03AC27FC08091E304813009F022
:1034200034C21092E3048093FE042FC28091E3041F
:10343000982F9250923060F442E06CE383EA93E07C
:103440000E94B3111092E30484E08093FE041DC235
:10345000813061F41092E30482E08093FE0442E044
:1034600060E080EF92E00E94B3110FC240EF52E0A3
:1034700062E080E00E941A1408C28091E304982F51
:103480009250923060F443E06CE383EA93E00E9450
:10349000B3111092E30484E08093FE04F6C18130FE
:1034A00061F41092E30483E08093FE0443E060E063
:1034B0008AEE92E00E94B311E8C14AEE52E063E066
:1034C00080E00E941A14E1C18091E304982F925089
:1034D000923060F444E06CE383EA93E00E94B3111D
:1034E0001092E30484E08093FE04CFC1813061F444
:1034F0001092E30484E08093FE0444E060E081E9FC
:1035000093E00E94B311C1C141E953E064E080E05F
:103510000E941A14BAC18091E304982F92509230FD
:1035200050F482E08093FC041092FD041092E304B6
:103530001092FE04AAC1813059F41092E304109253
:10354000FE0447E060E385EA93E00E94B3119DC169
:103550004AEA53E067E080E30E941A1496C14AEEFB
:1035600052E063E080E00E941A148091E304982FF7
:103570009250923060F484E08093FD041092FE0437
:1035800083E090E00E94CC0A1092E3047EC1813077
:1035900009F07BC11092E30485E08093FD0443E0D1
:1035A00060E08AEE92E00E94B3116FC18091FE0448
:1035B000813089F030F08230A9F1833009F065C1A3
:1035C00058C08091E304813009F05FC11092E30498
:1035D0008093FE045AC18091E304982F9250923058
:1035E00060F442E06CE383EA93E00E94B31110922E
:1035F000E30483E08093FE0448C1813061F41092BB
:10360000E30482E08093FE0442E060E080EF92E019
:103610000E94B3113AC140EF52E062E080E00E94A4
:103620001A1433C18091E304982F9250923060F4C1
:1036300043E06CE383EA93E00E94B3111092E30449
:1036400083E08093FE0421C1813061F41092E30491
:1036500083E08093FE0443E060E08AEE92E00E9403
:10366000B31113C14AEE52E063E080E00E941A14E5
:103670000CC18091E304982F9250923050F482E074
:103680008093FC041092FD041092E3041092FE0457
:10369000FCC0813059F41092E3041092FE0447E01C
:1036A00060E385EA93E00E94B311EFC04AEA53E079
:1036B00067E080E30E941A14E8C041E953E064E047
:1036C00080E00E941A148091E304982F9250923067
:1036D00060F486E08093FD041092FE0484E090E0A4
:1036E0000E94CC0A1092E304D0C0813009F0CDC012
:1036F0001092E30487E08093FD0444E060E081E9F8
:1037000093E00E94B311C1C08091FE04813091F01A
:1037100038F0823009F447C0833009F0B6C070C079
:103720008091E304813009F0B0C01092E3048093EB
:10373000FE04ABC08091E304982F92509230F0F4D5
:1037400042E06CE383EA93E00E94B31184E093E0EB
:10375000A2E0B1E08093F6049093F704A093F804FC
:10376000B093F90440E066EF74E081E00E94C51078
:103770001092E30483E08093FE0487C0813061F4FB
:103780001092E30482E08093FE0442E060E080EF68
:1037900092E00E94B31179C040EF52E062E080E015
:1037A0000E941A1472C08091E304982F92509230B4
:1037B00090F443E06CE383EA93E00E94B31141E0AC
:1037C00066EF74E081E00E94C5101092E30483E08C
:1037D0008093FE045AC0813061F41092E30483E0C8
:1037E0008093FE0443E060E08AEE92E00E94B31111
:1037F0004CC04AEE52E063E080E00E941A1445C0DB
:103800008091E304982F9250923050F482E080939C
:10381000FC041092FD041092E3041092FE0435C0E3
:10382000813059F41092E3041092FE0447E060E303
:1038300085EA93E00E94B31128C04AEA53E067E0AA
:1038400080E30E941A1421C04AEA53E067E080E353
:103850000E941A148091E3048250823040F4109246
:10386000FD041092FE041092E3041092FC04809177
:10387000E304813051F41092E3041092FD0447E018
:1038800060E385EA93E00E94B31180E090E00F903E
:103890000F900F900F90DF91CF910895FC018081E0
:1038A00090E0DC01AA0FBB1FAA0FBB1F8A0F9B1F52
:1038B000DC01A050BB4F828193818D939C93218129
:1038C000808190E0DC01AA0FBB1FAA0FBB1F8A0FEB
:1038D0009B1FDC01A050BB4F12962C93808190E07F
:1038E000DC01AA0FBB1FAA0FBB1F8A0F9B1FDC01A5
:1038F000A050BB4F1496FC93EE9313970895FC01D0
:10390000808190E00197FC01EE0FFF1FEE0FFF1F7B
:10391000EE0FFF1FE81BF90BEE58FD4F81E085838A
:1039200008957F928F929F92AF92BF92CF92DF9233
:10393000EF92FF920F931F93CF93DF9300D000D0AD
:103940001F92CDB7DEB780911B0581114CC007E7F0
:1039500012E00F2EFCE8EF2EF2E0FF2EF02DF80122
:103960008081813029F433970190F081E02D099511
:10397000095F1F4F0E151F0591F781E080931B050E
:1039800032C05801F80180818F5F8083F7019081F8
:10399000913001F5F801329790818917D8F0F8013C
:1039A00036970190F081E02D09959D838C838D8160
:1039B00080FD0EC0798286958A838C818B8382E01C
:1039C0000E94E813FC01CE0101960995F7011082CF
:1039D000F5011082095F1F4FF7E0EF0EF11C0C1587
:1039E0001D0579F611C008E712E00F2EF7E7EF2E5C
:1039F000F2E0FF2EF02D0F2EFDE8CF2EF2E0DF2EAD
:103A0000F02D77247394BDCF80E090E00F900F905D
:103A10000F900F900F90DF91CF911F910F91FF901A
:103A2000EF90DF90CF90BF90AF909F908F907F905E
:103A30000895EF92FF920F931F93CF93DF9380919E
:103A4000190581113EC06FE77CE181E00E94DF1320
:103A50006EE47CE183E00E94DF130E946310CCE8F7
:103A6000D2E004EC12E08881813031F4FE0133971A
:103A70000190F081E02D09952796C017D10799F79D
:103A800081E08093190580931A050E94F20519C000
:103A900088818F5F8883FE0131979081913061F436
:103AA000FE0132979081891738F0FE013697019018
:103AB000F081E02D099518822796CE15DF0541F794
:103AC00009C0CDE8D2E00F2EF5ECEF2EF2E0FF2E8C
:103AD000F02DDECF0E94800C80E090E0DF91CF914E
:103AE0001F910F91FF90EF9008950F931F93CF9325
:103AF000DF93C2E0D5E00BE115E080911C059091C9
:103B00001D05019690931D0580931C052881213089
:103B100079F48538934060F0FE0132970190F0818E
:103B2000E02D89819A81099510921D0510921C053E
:103B30002596C017D10709F780E090E0DF91CF917B
:103B40001F910F910895CF93DF93EC010E94030E14
:103B500080911A05813019F4CE010E945B19809181
:103B60001E05813011F48093AF02DF91CF9108954B
:103B70000E94CD1D08950E94D01D0895CF93DF931C
:103B8000EC01888199810E94FE0C99838883DF91E2
:103B9000CF9108950E94ED1108950E94BE1D0895D1
:103BA0000E94CA1D089597FB072E16F4009407D0B3
:103BB00077FD09D00E94F31D07FC05D03EF49095D7
:103BC00081959F4F0895709561957F4F0895A29FAD
:103BD000B001B39FC001A39F01D0B29F700D811DA2
:103BE0001124911D0895AA1BBB1B51E107C0AA1FF8
:103BF000BB1FA617B70710F0A61BB70B881F991F8E
:103C00005A95A9F780959095BC01CD010895FB01C7
:103C1000DC0105900D920020E1F70895FB01DC0125
:103C20008D91019080190110D9F3990B0895F894A2
:023C3000FFCFC4
:103C3200000099062000C30196010000000A00B8A6
:103C420003A90100000064000F0296010000006455
:103C520000010296010000006400ED0196010000DF
:103C6200006400E20196010000006400B8039101C3
:103C72000000006400B7018F010000006400B00181
:103C82009601000000E80399019601000000E80394
:103C9200B8037801000000E803B8038801000000BF
:103CA200E803F20200F8020057494649204449530A
:103CB200434F4E4E45435400235561727423003ED8
:103CC200002B495044004F4B0041542B4349504371
:103CD2004C4F53453D300D0A00474F542049500088
:103CE2004E494B48494C0041542B43495053454E91
:103CF200443D0041542B43574A41503D226E696B6B
:103D020068696C222C223132333435363738220D31
:103D12000A0041542B43494653520D0A0041542B89
:103D22004349505345525645523D312C38300D0AC5
:103D32000041542B4349504D55583D310D0A004125
:103D4200542B43574D4F44453D330D0A00010201A8
:103D52004105000064FF0000FF0000FF0000FF00BB
:103D620000FF0000FF00003031323334353637387F
:103D7200394142434445460001020304050607084F
:103D8200090A0B0C0D0E0F04030201C8000000D13A
:103D920005000015540400006426100600000F01FF
:103DA2000103870DA30D010000A60D000E01000006
:103DB2000A0E000E010100B3148A180500000F1646
:103DC2009C180101006517B3180501006A17BE1897
:103DD200050100B817E91805010062199C180501D0
:103DE2000005120512050100911C911C0501002C11
:103DF200000D0A0043757272656E742076616C75EF
:103E0200653A0020206368616E6765642076616CA4
:103E120075653A0068007465737432007465737472
:103E220031005354415254004441494723007772B0
:103E32006974650A00726561640A00737769746364
:103E42006820726561640056616C75653A00494E7E
:103E5200206E766D207461736B20454E4400646160
:103E620074610A006865726500646F6E650A0077A6
:103E72006F726B696E6700272F2E00636D004320FF
:103E8200004321005761746572204C6576656C2091
:103E92004D6F6E69746F7200312E4C6576656C00E1
:103EA200322E446562756700484552454F66660A80
:103EB20000484552454F4E0A00496E206F70656EAC
:103EC2002033006F70656E3400496E206F70656E2E
:103ED2002035006F004241434B004241434B2000DA
:00000001FF
